:106000003DB8F3960000000000080000BC0201004B
:10601000000000000000010000000000000000007F
:106020000000000000000000000000000000000070
:106030000000000000000000000000000000000060
:106040000000000000000000000000000000000050
:106050000000000000000000000000000000000040
:10680000F82300202D7500003DEF000019750000F1
:106810001975000019750000197500001975000040
:10682000000000000000000000000000F9750000FA
:106830001975000000000000BD7700001975000008
:1068400031780000317800003178000031780000A4
:106850003178000031780000317800003178000094
:106860003178000031780000317800003178000084
:106870003178000031780000317800003178000074
:106CC000317800003178000053B94AB9002908BF73
:106CD00000281CBF4FF0FF314FF0FF3000F00CB820
:106CE000ADF1080C6DE904CE07F020FBDDF804E0FF
:106CF000DDE9022304B07047704700BF10F8012B94
:106D000011F8013B012A28BF9A42F7D0D01A7047E8
:106D10002DE9F041174C20460DF0CEF8054610B392
:106D20002269A5681368182123F0807313602B680B
:106D30004FF4C022204698470F4807F030FF002646
:106D4000DFF83C804FF080716B69204698473146F0
:106D50004046771C07F023FF43F6095000210DF051
:106D600074FB3E46EEE7054807F019FF2846BDE8EC
:106D7000F08100BFF84A0100FF5B0100EA5B0100FF
:106D8000325C0100014B1B68184700BF6001002006
:106D9000014B1860704700BF6001002030B5044609
:106DA00085B00D461022002168460DF00CFD02232F
:106DB0008DF80230044B2A4621466846019307F0BD
:106DC0005DF805B030BD00BF856D000008B5044614
:106DD000EFF31183202383F31288BFF36F8F04F046
:106DE000DDF9204601F0B4F8024807F0D8FE08F0BB
:106DF000BEF8FCE73D5C01002DE9F84FB0F81890B3
:106E0000044619F008080DD001290CBF49F01009FB
:106E100049F02009A0F8189082F31188BFF36F8F12
:106E2000BDE8F88F09F00709022907D1204607F0CD
:106E3000E8FE0028F0D00128238B4AD16769238B14
:106E4000002F15DA2568C4E9008823F0070343F012
:106E5000010323830026238B03F0070ACA4502D0CF
:106E6000A168002956D10DB9002E6CD0002152E046
:106E700003F00701481F01281CD823F00703062947
:106E800025689BB2C4E9008802D15DB943F00203D2
:106E90002383204607F0B5FE0028DBD0238B43F088
:106EA0002003D6E72946608B0130608309680029FA
:106EB000F9D1EBE704290AD123F0070399B2218322
:106EC000204607F09EFE10B141F0200121830025ED
:106ED000C0E7032809D1216923F007030E6843F0B6
:106EE0000603002523832F46B5E7042806D1216930
:106EF00023F007034E6843F00403F2E7052806D1A8
:106F0000216923F007038E6843F00503E9E70025B4
:106F10002E46E8E7012143F00803238382F311881A
:106F2000BFF36F8FF1B97DBB16B120492046B04742
:106F3000EFF31182202383F31288BFF36F8F238B2B
:106F400023F008032383238BD90627D5012123F0BF
:106F500010032383B4F8189009F0070900297FF47F
:106F600063AF59E7A1680029DDD0D1F80090D1F8CE
:106F700004B03B4652462046D847B9F1000FD2D064
:106F80004946D9F80090F2E7D5F8009029463B46EB
:106F90005246204607F051FE4D46C4E713F020014B
:106FA0001EBF23F0200323830221D3E767EC0000F8
:106FB000014B036000207047185801000E4A0F4B28
:106FC00013B5012818BF1A46044601460C4808F0BC
:106FD00075FD70B9012322460A49094808F078FE78
:106FE00038B90123EF22009321460223044808F018
:106FF00079F802B010BD00BF7801002064010020C4
:107000005C070020A75C010008B51549154808F089
:1070100058F920BB1449134808F053F9F8B913493B
:10702000104808F04EF9D0B911490E4808F049F956
:10703000A8B90C4808F04FF801280CD00020FFF741
:10704000BDFF60B9074808F076F840B9BDE80840D0
:10705000044808F0A0B8FFF7B1FF0028EED008BD43
:107060008C0100205C070020A4010020BC0100204E
:10707000D401002008B50348034A0021121A07F082
:1070800055FF08BD08080020F8190020074808B57A
:10709000074A0849121A07F04BFFBDE808400648A6
:1070A000064A0749121A07F043BF00BF000000203C
:1070B00008080020B062010000000020000000204D
:1070C000B062010038B505460C4699B1D1E90123FB
:1070D0000F48096807F063FDD4E90423E1680D480F
:1070E00007F05DFDE1690C4807F059FDA1690B4807
:1070F00007F055FD012D05D1EFF305810848103942
:1071000007F04DFD21462846BDE8384005F068BB34
:10711000C05C0100F05C0100205D0100305D0100F9
:107120005F5D010030BFFFF7FDBF00BF70B5274CAA
:10713000064627480D4607F032FDA26AD00639D52B
:10714000244807F02CFD1120A36A190703D5224813
:1071500007F025FD12201D4CA36A9A0707D51F488A
:1071600007F01DFD616BA36A1B0625D41320174C85
:10717000A26AD60703D51A4807F011FD1420A36AA6
:107180009C0603D5174807F00AFD15200F4B9A6A95
:10719000D10658BF9A6A9A6A920642BF5A6A22F486
:1071A00000525A62094A936A43F0FF039362002334
:1071B0002B7070BD1020C7E70B4807F0F0FC002EC5
:1071C000D4D0A36A23F08003A362CFE700ED00E0F0
:1071D000015E0100185E01004C5E0100605E01006E
:1071E000905E0100B05E0100795E010070B5254C33
:1071F000064625480D4607F0D2FCA26AD1042DD5DB
:10720000224807F0CCFC1720A36A1A0503D52048B2
:1072100007F0C5FC18201B4CA36A9B0507D51D4829
:1072200007F0BDFCA16BA36A180419D41920154CF2
:10723000A36A590503D5184807F0B1FC1A20A36AC0
:10724000DA0517D5154807F0AAFC1B200D4A936AEA
:1072500043F47F43936200232B7070BD1620D3E765
:107260000F4807F09CFC002EE0D0A36A23F40043F3
:10727000A362DBE7A36A9B04E8D50A4807F08FFC0A
:107280001C20E3E700ED00E0735D01008A5D010072
:107290004C5E01009C5D0100CC5D0100E85D0100D9
:1072A000B65D0100B05E010010B5204C204807F02B
:1072B00076FCA26A910137D51E4807F070FC1E20AB
:1072C000A36ADA0103D51C4807F069FC1F20174C9C
:1072D000A26AD30203D5194807F061FC0220A36A11
:1072E0001C0303D5164807F05AFC21200F4CA26A54
:1072F000510303D5134807F052FC2220A36A9A03D6
:1073000003D5114807F04BFC2320084CA36ADB038C
:1073100003D50E4807F043FC2420A36A6FEA034319
:107320006FEA1343A36210BD1D20C9E700ED00E022
:10733000E05E0100F95E01000D5F0100285F0100C1
:10734000535F0100725F0100985F0100B35F0100AD
:107350002DE9F0415D4B8AB0D3F804800026C8F3D4
:10736000080786F31188BFF36F8F02F07F43B3F1F4
:107370007F4F06D102F00C03082B04D1544807F0CC
:107380000EFC354604E012074EBF0D4605460126A9
:107390000023F91E8DF807301C46092900F285806C
:1073A000DFE801F005797D76838383838381494813
:1073B000464F07F0F4FB8DF80740FC6A14F0020416
:1073C00003D0454807F0EBFB07E0FB6A002B01DA2E
:1073D0004248F7E7FB6A5B0001D4002329E04048FC
:1073E00007F0DDFB7B69AA6943F480737B61BFF31F
:1073F0004F8FBFF36F8F7B6932F8022C23F48073B9
:107400007B61BFF34F8FBFF36F8F4DF602739A42CC
:107410000AD0BB6A13F0FF0F2BD001200DF107013A
:10742000FFF784FE034604E029682E4807F0B7FB07
:107430002B689DF80720CAB902AC05F12007224647
:1074400028686968083503C2BD421446F7D1099A15
:10745000002E36D0C2F3080121B96FEA52226FEA3A
:107460004222099202A91846FFF72CFE0AB0BDE895
:10747000F081BB6A13F47F4F05D001200DF10701A5
:10748000FFF7B4FECEE7BB6A1B0C1B04002BA4D095
:10749000FFF70AFFC6E70DF107010020C0E70DF175
:1074A00007010020ECE710488CE7104B18F4F87F38
:1074B0000F49A7F1100218BF19460E4807F06FFBDD
:1074C0008BE722F4FF7222F00102CAE700ED00E030
:1074D0000D6001003960010051600100736001001E
:1074E00082600100A2600100BF600100F45F010042
:1074F000DF5F0100E4600100064B5A6942F01002B0
:107500005A615A6942F480625A615A6922F008024B
:107510005A61704700ED00E0EFF30880EFF3098156
:1075200001B57246FFF714FF01BD00BF002080F3D4
:107530001488BFF36F8F002080F30A8880F30B88D4
:107540000F4880F3088803F0D7FE00200D4908603B
:10755000BFF34F8F00F02AF8202080F311880A48EB
:107560004FF40061401880F30988EFF31480022182
:10757000084380F31488BFF36F8F00F0A7F8000072
:10758000F823002094ED00E0382500200023184661
:10759000054A1168C1F307218B4200D170479360FF
:1075A00010610133F8E700BF90ED00E010B572B64E
:1075B000002484F31388FFF7E9FF0E4A234611469F
:1075C0004FF0FF3403F120000133102B42F820402C
:1075D000F8D100234FF0FF3003F160020133102B8C
:1075E00041F82200F8D162B6BFF34F8FBFF36F8F1F
:1075F00010BD00BF00E100E01EF0040F0CBFEFF370
:107600000880EFF30980816911F8021C0229FFD07C
:1076100001B5724607F08EFC01BD00BF03B2002B1E
:1076200008DB012200F01F0002FA00F0024A5B09A9
:1076300042F82300704700BF00E100E003B2002BD6
:107640000DDB012200F01F0002FA00F05B09044A82
:10765000203342F82300BFF34F8FBFF36F8F704783
:1076600000E100E0054B420953F82220012300F01D
:107670001F0003FA00F01040704700BF00E100E077
:1076800003B2002B01F10101A8BF03F160434FEAEF
:107690004111B8BF054BC9B2ABBF03F5614300F060
:1076A0000F0083F800131954704700BF14ED00E079
:1076B000044B054A23F07F039360BFF34F8FBFF362
:1076C0006F8F70470068000000ED00E008B5FFF71D
:1076D000EFFF074AD2F8883023F47003C2F88830ED
:1076E000FFF7C8FCFFF7D2FC00F094F805F03CF976
:1076F00000ED00E042F8203C009B0B4942F81C3CA6
:10770000019B21F0010142F8183C029B42F8081C41
:1077100042F8143C4FF0807342F8043C0023203AB6
:107720000265C367704700BFB9EB000070B50C4B32
:107730000E4698601546C36E83F30B882C4686F37D
:1077400009880020034B984720460021002200238F
:10775000014C204761EF0000B9EB000070BD00BF95
:10776000581900201022014B1A61704700ED00E00B
:10777000054B5A699B689A421FBF044A536843F0FD
:1077800080535360704700BF5819002000ED00E09F
:10779000084B9B6883420BD1EFF3058343B1064B43
:1077A0005A6842F080525A605A6A22F400425A6281
:1077B00006F078B85819002000ED00E013498A68F7
:1077C0004FF030001044EFF3098C80E8F01F2020C8
:1077D00080F31288BFF36F8F0D4F4FF000664A6938
:1077E0008A603E60D06F0023D36780F3118802F176
:1077F000300090E8F01F8CF3098802F1000004B516
:1078000007F0A7FBBDE804407047000058190020AE
:1078100004ED00E0002320210448C2180133B3F531
:10782000917F82F80013F8D1704700BF00E100E0BB
:1078300008B5EFF30583064A103B02EBC30152F88B
:10784000330049688847BDE80840FFF791BF00BF93
:10785000D44C01001FB5094C094A234601210948AF
:1078600000F0ECF800230393074B0121E41A01A870
:107870000193029400F0ECF804B010BD00FC072066
:1078800000000020185801000808002010B50C7AEC
:107890000B6823F01F0204F01F031A43CB6864092E
:1078A00023F01F03044943EA440343F001038860C3
:1078B000CA600B6110BD00BF90ED00E010B5064B33
:1078C0001B68C3F30723013B984202D8FFF7DEFF92
:1078D00010BD6FF01500FBE790ED00E02DE9F04FD3
:1078E00088461446064600274A4D85B0474509DAC2
:1078F000D6F80490B9F1000F38D0B9F11F0F05D8B0
:107900006FF01504204605B0BDE8F08F19F01F0F89
:10791000F6D1D6F800A01AF01F0FF1D1504607F0AB
:1079200042FB834609EB0A00013807F03CFB834524
:10793000E6D11BF1160FE3D05C45E1DDC5F808B0D8
:10794000E968C5F808B02B6921F01F0143F01F0A50
:10795000D6E900321A44994202F1FF391BD1CA45D7
:1079600007D131465FFA8BF007F026FB01370C3662
:10797000BCE73146C5F808B0EB6822F01F0203F0FF
:107980001F031A43EA60E0B207F016FB10F1160F6E
:10799000B6D0441CEAE7013BCA45E0B223F01F031E
:1079A000C5F808B006D12A69314602F01F02134318
:1079B0002B61E9E7296901F01F010B432B61314677
:1079C00007F0FAFA10F1160F9AD0C5F808B0EA6875
:1079D0009DF808300AF1FF3A62F304038DF808308D
:1079E0002B699DF808205B0863F347128DF8082087
:1079F000D6E900321344009323F01F035344A3EB52
:107A00000903013023F01F036946C0B20393FFF757
:107A100055FFBBE790ED00E00522034B5A60BFF332
:107A20004F8FBFF36F8F704790ED00E0BFF35F8F14
:107A30000022014B5A60704790ED00E010B5034CF6
:107A40002278FFF74BFF207010BD00BF8C1900207B
:107A50002DE9F74F254C8A4680460027A1464FF076
:107A6000140B234D57451ADAD8F804300193002B34
:107A700036D0D8F800100846009107F094FADDE9F6
:107A8000001306465818013807F08DFA8642194A45
:107A900008D014235F436FF0150349F8073003B093
:107AA000BDE8F08F16F1160F2660F8D01378B342B8
:107AB000F5DD0BFB0793AE60AE60E868197B60F301
:107AC000040119732969187B490861F34710187379
:107AD000EB6823F01F0363602B6923F01F0323610E
:107AE0000137143408F10C08BCE700BF880E0020F1
:107AF00090ED00E08C1900202DE9F043564C574ED4
:107B000022683768C2F30722974287B000F2A1804B
:107B10000025FFF78BFF524B2363AF4218D1514D25
:107B200001A82F70FFF744FA002607464FF0060918
:107B3000DFF83481B74213D100212B782268C2F3D9
:107B400007229342C0F28180FFF766FF002067E0C2
:107B50007168284601EB0511FFF798FE0135DCE757
:107B6000DDF804C031010CEB0103DA6802EA080217
:107B7000B2F5800F3DD007D8B2F5801F1BD0B2F50B
:107B8000001F28D00136D5E7B2F1006F05D0B2F161
:107B9000805F48D0B2F1807FF4D158689B685CF870
:107BA0000120013B20F01F010B44CDE9020223F02C
:107BB0001F0361220CE058685CF801209B68CDE946
:107BC00002022122013B20F01F010B4423F01F037E
:107BD0008DF810201BE058689B685CF80120013B81
:107BE00020F01F010B44CDE9020223F01F034122C4
:107BF000EEE758685CF801209B6820F01F01013B0C
:107C0000CDE902020B4423F01F038DF8109002A966
:107C100028780593FFF752FE002812DA6FF015005E
:107C200007B0BDE8F08358689B685CF80120013B11
:107C300020F01F010B44CDE9020223F01F030122B3
:107C4000C6E72B7801332B709CE7A36021610133D9
:107C500074E74FF0FF30E3E790ED00E024580100B7
:107C6000AAFF44008C1900200000F0FF08B5024B69
:107C70001B689847002008BD9C0E0020034B044A57
:107C80001860937843F00203937070479C0E0020B5
:107C90001C02002008B50549054A21F00701521AC7
:107CA000044806F027FF002008BD00BFBF400020A9
:107CB00000FC0720A00E002070B541690546847ABB
:107CC0000B4E59B1437ADB0706D4242303FB04632C
:107CD000DB691B689B68984700236B6104EBC40455
:107CE000294606EB8400BDE870400CF075BA00BF71
:107CF000140700202422024B02FB0030704700BF13
:107D0000140700202421837A054A01FB03231A6A01
:107D10001B7D801A1B3323F00303B0FBF3F0704785
:107D20001407002038B52424837A064A04FB032371
:107D3000DB69D3E901540C60FFF7E4FF2B6804FB17
:107D4000003038BD140700202DE9FF4D0546684678
:107D5000039192469B460CF061FCDDE90067EFF36E
:107D60001188202383F31288BFF36F8F6B8A002B57
:107D700043D02A8A9A4227D900220023284605F0B8
:107D800055F8044600B388F31188BFF36F8F039B47
:107D9000002B42D032463B4668460CF063FC24215F
:107DA000A37A264A204601FB0323DB6903A91B684B
:107DB0001D68DDE90023A8470546606170BB2046C9
:107DC000FFF77AFF2C4624E06A8A531E6B8288F301
:107DD0001188BFF36F8F2C7D2B8A1B349B1A2A6A64
:107DE00024F0030403FB0424144B154AEB1A9B10E4
:107DF0005343A3722B7DE372C9E788F31188BFF365
:107E00006F8F52465B46284605F010F8044600285E
:107E1000BDD1204604B0BDE8F08D6361012300258B
:107E20002381039B65606382E27A294604F118008E
:107E30000CF0C9FC63692582E360EAE714070020BF
:107E4000398EE33870B524250C4C00B970BD037A27
:107E50004668002BFAD0013BDBB20372002BF5D150
:107E6000C3604360837A05FB03439B6913B1984762
:107E70003046EAE7FFF720FFFAE700BF14070020CB
:107E800008B5254A254B1A6002F0DEF94FF47A60F6
:107E9000234AD2F82416C1F30803C1F30941414330
:107EA00083F480731F48883300FB03134FF4FA20D8
:107EB0005B00B3FBF0F100FB1133B3F57A3F1346DF
:107EC0004FF47A60184A28BF0131C2F80419D3F878
:107ED0002016C1F30803C1F30941414342F21C508B
:107EE00083F4807303F2172300FB03134FF47A70BB
:107EF0001B0AB3FBF0F100FB11330020B3F5FA7F4E
:107F000028BF0131C2F81C171346C2F8000901222C
:107F1000C3F8002608BD00BF0020A107E40500202B
:107F200000C0FF00F82A00800000125048B1054B45
:107F30001A68054BB2FBF3F2044B504343F00103C4
:107F400018477047E405002040420F00F057010039
:107F5000BFF34F8F0549064BCA6802F4E062134332
:107F6000CB60BFF34F8F00BFFDE700BF00ED00E027
:107F70000400FA052DE9F04F0546087E91B030F077
:107F800080040E46904640F068846AB10846FFF7C8
:107F900059FF737ED80703D499070ED5337E63B992
:107FA000284607F054FA45E04B7E9A0709D5802809
:107FB00007D13046FFF746FF0024204611B0BDE848
:107FC000F08F9F0700F01684002840F01384D90733
:107FD00005F1280939D5338A082B0ED03046FFF732
:107FE00031FFEB8DA86923B195F82830DB0900F04B
:107FF0003884802108F0EBFED2E7F268314613683E
:10800000AB625368C9F8043007F006F8064600284A
:10801000E5D1484607F0D0FAEA8D68B1AAB13146F9
:10802000A86908F0BBFF0146002800F0128428462A
:1080300007F0BAFF0446C0E73AB11146284607F0F8
:10804000AEFF0646002800F0048406F0D0FF0024AE
:10805000046095F82870C7F3411333B1022B2FD871
:108060003146284607F0AFFA08E2484607F0A4FA7E
:1080700095F82930002800F05A81013B0A2B17D8C7
:10808000DFE813F0C1001600000116000B00160017
:1080900016001600670016009E00A8690369D3F851
:1080A00080206B8D7F2B03D8A98D09B9EC8D24B16D
:1080B00006F09DFF6FF0850377E117F01F0704D0EE
:1080C00006F095FF6FF0850358E095F8301002290F
:1080D00004D106F08CFF4FF0FF3366E1120727D57D
:1080E000D9B207F030FA044628B306F080FF0368DF
:1080F0001BB106F07CFF06F07AFF002C40F0C38332
:1081000006F075FF0368002B40F0B28306F06FFFA6
:108110000368002B7FF465AFEB8D002B40F03583B7
:10812000284607F07EF90446002C7FF45AAF37E763
:10813000012385F8393095F83030012B04D16C8D4E
:1081400014B985F83040D0E7012385F83030002499
:10815000CBE7284606F0BAFF6A8D0146FF2AA7D86A
:10816000EC8D002CA4D195F82830DF06A8D195F825
:1081700030402CB906F03BFF4FF0FF330360B4E70B
:1081800032B1D2B2284607F046FC04460028F1D0AE
:10819000698D95F838308B42D9D0C9B2284607F09E
:1081A00041FC04460028A0D16A8D0521002A14BF95
:1081B00002230123284685F8303007F096FF94E724
:1081C00007F01F04012C7FF473AFEF8D002F7FF4B5
:1081D0006FAF6A8DFF2A3FF66BAFA98DFF293FF67F
:1081E00067AF95F83030022B7FF473AFD2B2C9B2CB
:1081F000284607F055FE044602307FF476AF06F0BD
:10820000F6FE0460A3E7B5F82EA0BAF1000F7FF4E4
:108210004FAF95F83040002CACD0012CAB8D02D183
:10822000002B7FF456AF17F01F0418D0022C8ED10C
:108230006A8D002A8BD1DFB206F0D9FE394604469A
:10824000284607F022FF206006F0D1FE03680133C4
:1082500012D000223946284607F0D3F877E7002BE2
:1082600088D16A8D012A7FF472AF95F86C2063F390
:10827000C30285F86C206AE706F0B9FE0468002C9A
:10828000E7D032E7A98DB5F82EB05FFA81FABBF1DD
:10829000000F7FF40DAF6B8D022B12D107F01F077B
:1082A0005AEA07077FF404AF0122090AA86907F018
:1082B00063F9044600287FF4FBAE012385F83930CA
:1082C00013E795F83040002C3FF454AF012C02D155
:1082D00000297FF4FEAE17F01F0415D0022C7FF4A6
:1082E00036AF002B7FF433AF06F081FE51460446D3
:1082F000284607F0B6FE206006F079FE03680133D9
:108300000FD001225146A6E700297FF433AF012B9D
:108310007FF41DAF95F86C3043F0080385F86C309E
:1083200015E706F064FE0468002CEAD0DDE60A2BAF
:108330003FF6BEAE01A252F823F000BF69830000F1
:10834000B1800000B1800000B1800000B180000069
:10835000B1800000DB830000B1800000FF860000D8
:10836000B180000035870000EB8D022B7FF4A0AEBA
:1083700095F83040002C3FF4FDAE012CA98D02D1C0
:1083800000297FF4A6AE17F01F0410D0022C1AD0DB
:10839000002106F10C04204607F02BF8EB8D9842E3
:1083A00017D206F024FE6FF00B030360CFE600291E
:1083B0007FF4E0AE95F86C30990801F00201C3F348
:1083C00000131943E5E7C9B2284607F06DFE81B2F4
:1083D000DFE7204606F04DFEB9E66A8DF9064FEA62
:1083E0001223D2B27FF43CAE013B0E2B3FF660AEBF
:1083F00001A151F823F000BF358400007384000010
:1084000085840000B1800000B1800000AB850000D1
:1084100081840000B1800000B1800000B1800000C4
:10842000B1800000B1800000B1800000B180000088
:108430002586000006F10C07384606F0DAFF824672
:108440002846EC8D06F042FE20B101287FF430AEC4
:10845000696F00E0296F002900F09481544528BF1E
:1084600054460A783846A24228BF224606F0EFFD5D
:108470006DE600233146284606F0FCFF044634E64C
:108480000123F7E70321284606F002FF8246002871
:108490003FF40EAE06F0A7FFEF8D0446D8B9BAF848
:1084A00014309AF81410ADF82030DAF8103006F1D4
:1084B0000C0A1B885046ADF8223006F09AFF8F4216
:1084C0003A4628BF0A46824228BF0246504608A9BB
:1084D00006F0BDFD09E600249AF81530DAF8082008
:1084E000ADF80C408DF80D30BE4B1340BE4A9342A0
:1084F0004AD110210DEB010002F01CFA0028FFF612
:10850000DFAD08AB10289B4628BF1020B74904AA4E
:10851000A04203F1020327D8800002308DF80C003E
:1085200006F10C0A504606F064FF9DF80C4003A9C2
:10853000BC4228BF3C46844228BF0446022C274642
:1085400028BF02273A46E41B5F46504606F07FFDEF
:10855000630803EB0B0297421DD1E2077FF5F7ADED
:108560001BF803105046E2E012F801CB01344FEA49
:108570001C1E0CF00F0C11F80EE011F80CC003F8E3
:1085800002EC03F801CCC3E79AF81430DAF810B023
:108590008DF80C30C4E717F8011B5046CDE90032C6
:1085A00006F067FDDDE90032D5E7284606F08EFDCE
:1085B000D5E91C370024002818BF1F4640F20A6383
:1085C0002846CDF82240CDF82640ADF8203006F000
:1085D00082FD01287FF474AD002F00F0D3807B88EA
:1085E000ADF822303B798DF824307B798DF8253039
:1085F000BB798DF82630FB798DF827307B7C06F12E
:108600000C0738468DF8283006F0F3FEEA8D9DF809
:10861000203008A99A4228BF1A46824228BF024643
:10862000384655E7284606F051FD20B101287FF471
:108630003FAD6B6F00E02B6F002B00F0A3805B88D9
:10864000B3F5007F7FF634AD694B05F14C0B089311
:1086500000238DF82430EB6C9B4539D106F10C0AD0
:10866000504606F0C6FEBDF82240EB8D08A99C429C
:1086700028BF1C46844228BF0446052C274628BF35
:10868000052750463A4606F0E2FCE41B3FF45FAD96
:10869000EF6C5F453FF45BAD002F3FF458AD7B7D41
:1086A0000F2B0FD13A7D3969A24228BF224650468E
:1086B00006F0CDFC3B7DA34294BFE41A241B002CA2
:1086C0003FF445AD2B6D9F423FF441AD3F68E3E77A
:1086D000002BC3D0296D5A7D0F2A0AD11A7DBDF80F
:1086E00022000244ADF822209DF8242001328DF8AA
:1086F00024208B42B2D01B68002BECD1AEE795F85A
:108700003040002C3FF436ADEB8D012B7FF4D0AC24
:1087100006F10C07384606F06CFE044620B906F058
:1087200066FC6FF00B0329E5384695F8381006F023
:1087300098FC0CE507F01F04012C7FF4CAAC284616
:1087400007F057F9044600283FF414ADAF8DFF2F12
:108750003FF6AEAC43681B79BB42FFF4A9AC0F2FC8
:108760003FF6A6ACEB8D012B7FF4A2AC06F10C0A10
:10877000504606F03EFE04460028D0D02F4497F81D
:108780003A10EFE66FF01504AFE4484606F014FF28
:10879000044618B13046FFF755FBC1E43146284680
:1087A00007F002FC20B13046FFF74CFBA04618E46E
:1087B000A8690369D3F8801011F004017FF4F0ABCD
:1087C00008F000FC064608B980460AE4014628463F
:1087D00007F0EAFB044600283FF4E2AB3046FFF71F
:1087E00031FBA1E400FF0200000302000761010069
:1087F000050F05005B077FF5F4AB00283FF4D9AB0C
:1088000080287FF4EEAB3046FFF71CFB95F839303B
:10881000002B3FF4D2AB95F82930052B05D1698D9B
:10882000A869C9B206F08FFE804695F82930032B5F
:1088300009D16B8D022B06D1A98D0022090AA869E6
:1088400006F09AFE80460023444685F83930FFF74B
:10885000B4BB6FF00B08FFF7C4BB6FF00404FFF765
:10886000ACBB18F10C0F14BF80210021FFF7C2BB75
:10887000002E3FF44BAC3046FFF7E4FA002C3FF4F7
:1088800045ACFFF79ABB002EF5D1FFF796BB00BFB2
:108890000B7810B4062B14D10369D3F89C20EFF3A6
:1088A0001184202383F31288BFF36F8F00204B685D
:1088B0001860506A58B9C2E9083384F31188BFF3CD
:1088C0006F8F00220023034810BC0BF0E4BB036051
:1088D0005362F2E7E006002010B588B000220023C2
:1088E0000024CDE906236FF00703CDE90144CDE96B
:1088F00003340094164B4FF480621649164804F076
:108900003FFD164914480BF005FD154B15498B42E8
:1089100007D30020144B15498B420DD3002008B01B
:1089200010BD03F11402D2E8EF0FC2E8EC4FBCF126
:10893000000FF8D11833EAE703F11402D2E8EF4F41
:10894000C2E8EC0FBCF1000FF8D11833E4E700BF28
:1089500071890000F8190020080800201861010042
:10896000D8070020F0070020F007002008080020AA
:108970002DE9F0432027DFF8908185B04FF0FF33D9
:108980004FF0FF3201A9404604F020F9039B1B6918
:10899000D3F89C40236A93B1EFF3118287F31288D6
:1089A000BFF36F8F216A29B1606A0B68814223622D
:1089B00008BF636282F31188BFF36F8FC1B99DF85E
:1089C0000430062BDAD0072BD8D801A252F823F0B6
:1089D000238A0000178A00004B8A0000298A0000C1
:1089E0007F8A00006D8A00007D890000038B0000F3
:1089F0000B7ED1F81E205D06204609D1FFF7BAFA9A
:108A00000028C7D002460721204607F06EFBC1E7C9
:108A100007F01BF9F4E700220121204607F065FB6F
:108A2000ACE700221146F8E794F86C3043F00403F9
:108A300084F86C3094F83030022B03D101A9204621
:108A400006F029FE00220321E7E794F86C306FF36B
:108A5000820384F86C3094F83030022B03D101A9E2
:108A6000204606F018FE00220221D6E794F83030A6
:108A7000022B83D101A9204606F00DFE7EE794F873
:108A80006C30A6696FF3820384F86C30D6F80890D6
:108A90003369A033D3E8AF3F9A072FD5D9F83C30DC
:108AA00030469847D9F8243000213046984705468B
:108AB000D9F8403030469847ADB92946204606F0EF
:108AC000B1FF054678B9A06908F09BFA831E5842A9
:108AD000584194F86C3084F8305060F3461365F3D5
:108AE000C30384F86C3000220421204607F0FDFA0D
:108AF000002D3FF443AF2A4607218EE74FF0FF35A4
:108B0000F1E7029A062188E7E006002038B5024620
:108B100005460949806908F0D1FA044648B985F844
:108B20003800284606F01BFF044610B1A86908F07B
:108B3000F0FA204638BD00BF9188000070B50546A8
:108B400081B101290BD10E4C0E4E16E06368284608
:108B50001968FEF7D3F818B11834B442F6D30024DC
:108B6000204670BD084C094EF7E76368284619682F
:108B7000FEF7C4F80028F3D01834B442F5D3EEE77A
:108B8000F007002008080020D8070020F007002088
:108B900030B585B06C46054684E806000023002207
:108BA00003A9144803F078FF0246E8B994E80300EB
:108BB000039B5D60083383E80300EFF311802023FB
:108BC00083F31288BFF36F8F039B1A600A4A5168C0
:108BD00061B9C2E9003380F31188BFF36F8F0022BF
:108BE0000023064804F064FB05B030BD0B60536001
:108BF000F1E700BFB0060020AC0E0020000000200E
:108C000070B50646EFF31181202383F31288BFF37A
:108C10006F8F1B4C226881F31188BFF36F8F5268EE
:108C200092F86C20D20705D4BDE8704020220023C2
:108C300004F072BBEFF3118283F31288BFF36F8FDE
:108C400025682DB161682B688D42236008BF636081
:108C500082F31188BFF36F8F45B1686805F1080191
:108C6000C3699847294607480BF0C5F9236833B113
:108C70003046BDE870400022002304F019BB70BDEF
:108C8000AC0E0020B006002010B5002204460023E0
:108C9000024806F0B9F900B1047610BD14070020AF
:108CA00073B5202504698DF80710EFF3118685F35D
:108CB0001288BFF36F8F01220DF10701E06B06F000
:108CC000F4F886F31188BFF36F8F01280ED00BF0F4
:108CD0001BFB08B9A37E8BB901220B4BD3E8EF1F16
:108CE000002903D1C3E8E02F0028F7D12022002378
:108CF00004F1480004F0DCFA02B070BD002120202D
:108D00000BF0A3FBD1E700BFB40E002038B5002460
:108D100005690E49EB6B05F14800C3E90144DC60CD
:108D20006B6BC3E90144DC600BF0E3FA05F17800FA
:108D300007490BF0B3FA074905F124000BF0AEFA2E
:108D4000284607F0F7F9204638BD00BF2F0801007C
:108D5000BF060100CD02010007B501238DF8070011
:108D60000DF107020021034807F005FE03B05DF88E
:108D700004FB00BF9C4C0100F8B51446866805460C
:108D8000F36B0F4698472146002200230548FEF763
:108D9000DBFF044600B107762846336C984720462F
:108DA000F8BD00BF38070020436800201A69D2F8D8
:108DB000003E43F00203C2F8003E0122014B5A601C
:108DC000704700BF00A00550436800201A69D2F820
:108DD000003E23F00203C2F8003E0122014B1A605C
:108DE000704700BF00A00550024B5B6903B11847F4
:108DF000184670475C040020024B1B6903B11847FA
:108E0000184670475C040020014809F070BE00BF9E
:108E10002C4C0100F8B5064642F2117543681C69F6
:108E20002369002B14DA012342F21175114F2361DB
:108E3000013D12D0012008F0FCF9FB6983B92369D8
:108E4000DA0712D42369002023F00103236106E02E
:108E5000012008F0EEF9013DE2D16FF00400F8BD09
:108E6000304698470028EAD0F7E723699B00DFD512
:108E7000E8E700BF5C0400202DE9F04F436891F85B
:108E800019801B69B1F81AA085B083460F7E00696E
:108E900008F003080193B8F1010F4FEAEA23D0F874
:108EA000A49007F07F07029303F0030600F086808A
:108EB000A8F1030463426341B8F1010F148A06D19B
:108EC000CAF30A0006FB0000844228BF0446584645
:108ED000039308F050F9039BD8B10198CAF30A0C28
:108EE00000EB4710D0F818590CF10300ADB2AD00FB
:108EF00020F00300B5FBF0FE00FB1E500EFB0C0C37
:108F0000644503D9701C704500F2D280644528BFC7
:108F10006446002C57D0002F52D0D9E9A950AC425A
:108F2000CAF30A0A07D9029C04F0030404FB0AA44A
:108F3000B5FBF4F56C430AF1FF352544B5FBFAF5B2
:108F4000854205D9751CB0FBF5F045430AFB05F4D5
:108F500009EB8700C0F8AC42EFF3118A202080F3C0
:108F60001288BFF36F8F83B30136760706F0C046D1
:108F70005148C4F3120C00EAC54040EA0C00019BC2
:108F800030437E0103EB060CCCF81009584608F07C
:108F9000FCF800B3D368980707D1488B10F0030F93
:108FA00015D0C0F30A00844211D98AF31188BFF3A7
:108FB0006F8F6FF0850005B0BDE8F08F43467BE70B
:108FC00003207F25ABE70125C2E71E46D0E70198C5
:108FD0000644C6F81439019B03EB4716D6F800097E
:108FE000030406D48AF31188BFF36F8F6FF001007A
:108FF000E1E7B8F1010F08D1B9F860C31CF0010F27
:1090000014BF40F0805040F0005091F818C0BCF1FF
:10901000800F0CBF40F0004040F00440C6F800094B
:10902000584608F0A8F858B9012109F19400B94050
:1090300008F00DF98AF31188BFF36F8F0020BAE7AB
:10904000019BD2F80CE07A1C03EB0233002DEBD02D
:109050004A8BF446C2F30A02A24228BF22460026E7
:10906000964203D3013D9644A41AEFE706F10108A6
:1090700090459CF8000038BF9CF801800CF1040C6E
:1090800038BF40EA082006F1020890453CBF1CF8B2
:10909000028C40EA084006F10308904538BF1CF8EE
:1090A000018C06F1040638BF40EA08601860D7E773
:1090B0006FF00A007FE700BF0000F81F38B50C4DC5
:1090C0000246AB68DB6B83B10A49284698470446E1
:1090D00048B9284609F0DBFC044620B9022001F01B
:1090E000E9F9054B1860204638BD6FF05704FAE7E0
:1090F0002C4C010081910000E01600204FF000424E
:109100000C4B10B5C3F85C244FF04042C3F8582410
:109110000022C3F80024084B08491C68204605F0CB
:109120003DFE10F1780F02D1204605F013FE00EA53
:10913000E07010BD00A00550E0160020D016002001
:1091400013B50E4B04461B6823B963685C6934B9D8
:10915000204602E098470028F7D002B010BD01AACF
:109160000021204609F06BFC0028F6DB019B2268F9
:109170001979186801F096FDEFE700BF5C04002044
:1091800070B50E780C46154646B901210B4808F01B
:1091900052F832463146284607F0BDFC2478012CAF
:1091A0000BD10021224605480BF0ECFA2146284657
:1091B000BDE87040002207F0AEBC70BD080700207B
:1091C00030B5036989B00446D3F8A45000220023C7
:1091D000CDE906236FF007030122CDE90332002316
:1091E0000090CDE901334FF40072064B0649284642
:1091F00004F0C6F82168284609B0BDE830400BF0FD
:1092000089B800BFFD9D0000F81D0020F7B50022C1
:1092100000230121CDE900231D480BF0B9FA0246D5
:1092200068B1002601251B491B4B4E60CE608D6046
:10923000186805F047FD002810DA03B0F0BD4FF0C4
:10924000FF304FF0FF31CDE90001012110480BF054
:109250009FFA0028E5D16FF07300EEE74FF000476A
:109260004FF040430D4C2D20C4F80054C4F85C74FA
:10927000C4F858340323C4F8003407F0DAFF284652
:10928000256007F0D6FFC4F858743046D5E700BF14
:1092900008070020D0160020E016002000A005508E
:1092A00007B5002200230121CDE9002304480BF07B
:1092B0006FFAB0FA80F0400903B05DF804FB00BF1C
:1092C000080700202DE9F04F436887B002921C691F
:1092D000704A03698046D3F8A470536A89460392A2
:1092E00003B19847A36D012023F02003A36507F085
:1092F000A0FFA36D012023F01003A36507F099FFE1
:10930000A36D012043F00403A36507F092FFA36D52
:1093100023F00803A365B9F1000F07D097F8623373
:1093200059074CBF0120322007F083FFA36D0120B5
:1093300043F01003A36507F07CFFA36D029A23F0AE
:109340000103A365D8F804301D69D8F81030D3F8AC
:10935000A4B0DBF89C62DBF8C43026F47F566B6562
:1093600026F03F06DBF8C03016F0C05F08BF46F4B9
:1093700000362B63C5F8006EDBF8AC3043F0010318
:10938000AB604FF0FF336B614FF48033AB61DBF8C0
:10939000B030EB60DBF80831C5F800380AB1C5F829
:1093A0000038B9F1000F01D146F402760120C5F86A
:1093B000006E07F03EFF0DF1100A46F40053C5F8A9
:1093C000003E40F63542002350460BF027F9DDE918
:1093D0000423CDE900236B69DA030CD4039BDB691A
:1093E000002B4AD1DDE9002350460BF03BF9DDE9C3
:1093F00004231343EFD19BF862331B0704D5C5F850
:10940000006E012007F015FF029B13B94FF0FF33E8
:109410006B61A36D012023F00403A36507F009FF2E
:10942000B9F1000F05D1D4F8003E23F00803C4F8C9
:10943000003ED7F8B030E360D7F80831C4F8003800
:10944000D7F80C31C4F80438A36D23F00203A365E8
:10945000B9F1000F16D1052007F0EBFED4F804385F
:1094600043F40063C4F80438012007F0F2FE4FF023
:10947000FF33636107B0BDE8F08F4046984700288E
:10948000B0D0B8E7012007F0D4FED7F80C3143F094
:109490000103E7E75C0400202DE9F04704460021C2
:1094A000D0F8049007F0FEFA23698046D3F8A46050
:1094B0006368002120461F6907F04EFC20B16FF061
:1094C00004052846BDE8F0878021204607F044FCCB
:1094D00005460028F3D1D9F82430204698472021AA
:1094E00006F1880007F0B3FE96F86233DB060CD570
:1094F000012229462046FFF7E5FE96F86233A6F8DA
:109500003A5365F3041386F86233BB68204623F0B0
:109510000103BB60D7F8043843F00203C7F80438EE
:10952000FFF778FC404607F0E5FA38B9054BDB68F1
:10953000002BC6D02046BDE8F0471847FEF782FC56
:10954000F0E700BF5C0400202DE9F84F8846097E53
:10955000436811F07F0782461A6948B235D1002866
:10956000ACBF02F5306502F51065B8F81A002B683B
:10957000102823F003031DD004D8082817D06FF05B
:109580001500CBE0202818D04028F8D143F400443F
:10959000B1B9102313611369D906FCD42C600122E0
:1095A00098F81810504607F0A6FE0020B6E043F0E9
:1095B0000303EBE743F00203E8E743F00103E5E7C9
:1095C0000021504607F0E9FDE8E7DAF810300028FE
:1095D000D3F8A4601ADB07F1580902EB4919D9F84E
:1095E0000030784CB8F81A501C4098F81930C5F380
:1095F0000A0103F00303022B44EA01040FD0032BFA
:109600003ED0012BBBD144F480240CE096F86633A5
:1096100013B1013B9F42B2D807F14809DDE744F09E
:10962000805444F40024002880F2A280002900F035
:109630009F8003315046890807F0A7FDC5F3C12577
:1096400024F07074013510B1022D28BF022596F860
:1096500062334D43DB0740F1AA800122B6F838138C
:1096600002FA07F35B420B420FD1012F35D1B6F856
:109670004023B6F83E33202A94BF9B18203338E0AD
:1096800044F0805444F44024CDE796F866B30BF1DF
:10969000FF3B5FFA8BFB5FFA8BF1BBF1000FE4D06D
:1096A00041F08001504607F0FDF9037D012213F0DF
:1096B000010FB6F8383306D023FA0BF3D807D4D409
:1096C0000BF1FF3BE7E723FA0BF1C90742BF02FAB0
:1096D0000BF18B43A6F83833F2E7DAF804301A6955
:1096E00002EB8702D2F8FC10D2F8FC309BB203EBFD
:1096F0001143B6F83823FA40D20714D5DAF804201B
:10970000126902EB8702D2F80011D2F8002189B267
:1097100099424FEA124203D06FF00B00BDE8F88F78
:10972000AA42F9D3154607F5D07236F81220AA429C
:10973000F2D3B6F83C135A198A42EDD8DAF804206D
:109740009BB2126943EA054507F13F0302EB83032D
:109750005D60BB0503F070731C430123B6F838232A
:10976000BB401343A6F838333946504607F015FD81
:1097700044F40044012298F81810504607F0BBFD4D
:10978000C9F8004098F8193003F00303012B7FF467
:109790000CAF98F91820002AACBF10220022174401
:1097A000BB40D6F82C733B43C6F82C33FDE602EBE6
:1097B0008702D2F80031D2F80021B5EB134FC8D997
:1097C000AAE700BF00F8F3FF2DE9F74F0669074647
:1097D0004468D6F8A45006F184000AF063FC05F151
:1097E00088000AF0C3FF05F1A00007F09BFD05F11A
:1097F000A40007F097FD05F1940840460AF0B6FF73
:109800004FF0FF3140460AF0B9FF0023C5F834336A
:10981000C5F82C3396F8803023F06A0343F06A03CE
:1098200086F88030754B9B690BB1384698474FF0EE
:10983000000A96F8803040F2FF3B13F0010F18BF8A
:109840004FF4806B55464FF003094022236B019380
:10985000E36AC3F3832303F101084FEA450CA06ACE
:1098600009FA0CF1014021FA0CF131F0020340F049
:109870009780E0684FEA4A1100EB010C9CF8120057
:10988000002D6AD140F001008CF81200E068084415
:109890000282E068084490F812C04CF0400C80F856
:1098A00012C0E06808440576E0680144384607F0D5
:1098B0000BF900284ED161680AF1010A51454FF0B9
:1098C00040026DD80025019BAA46C3F3836940225C
:1098D000032309F101094FEA450CA06A03FA0CF1D0
:1098E000014021FA0CF1012900F28280A0684FEAC0
:1098F0004A1100EB010C9CF81200002D55D140F0EC
:1099000001008CF81200A06808440282A068084494
:1099100090F812C04CF0200C80F812C0A06865F0DE
:109920007F0C084480F818C0A0680144384607F04E
:10993000CBF878B921680AF1010A494528BF4946A0
:1099400051454FF003034FF0400251D83846E369C8
:109950009847002003B0BDE8F08F40F004008CF879
:109960001200E068084490F812C04CF0020C80F835
:1099700012C0E068084490F812C04CF0080C80F85F
:1099800012C0E06896F880C0084490F812E06CF3CA
:10999000041E80F812E0E0680844A0F810B078E7F0
:1099A0000135A8453FF659AF8CE740F004008CF82C
:1099B0001200A068084490F812C04CF0020C80F825
:1099C00012C0A068084490F812C04CF0080C80F84F
:1099D00012C0A06896F880C0084490F812E06CF3BA
:1099E000041E80F812E0A0680844A0F810B08DE7CB
:1099F0000135A8453FF66FAFA8E700BF5C04002023
:109A00002DE9F04FA64AD0F804A0536885B0064669
:109A1000DAF8109090466BB933693046D3F8A44019
:109A200073681D69FFF7F6F9074640B1384605B07F
:109A3000BDE8F08F984707460028F7D1ECE72B6C7C
:109A4000984A93428CBF0023012394F8622363F366
:109A5000C30284F862236B6CC4F8A032D5F848B016
:109A6000EA6C2F6D0392BB0140F117814FF08043E8
:109A70001920EB6007F0EDFBCBF3C103981E94F8BF
:109A800062134342434163F341011BF4002F84F806
:109A9000621318BFCBB24FF001011CBF43F00103AA
:109AA00084F86233C7F3801384F86433CBF38323E1
:109AB0000133039A84F86533C7F38363013384F871
:109AC0006633130CA4F83C33C2F30213043301FAD7
:109AD00003F3013BC4F8A83202F00F030B339940A3
:109AE0000139C4F8A412110548BF94F86233CBF3CE
:109AF000811144BF43F0040384F8623394F8622375
:109B0000AB6892074CBF43F0200323F02003AB6007
:109B1000D5F80038012923F4000323F0030368D0AB
:109B200000295DD00121604A17F4404F18BF42F070
:109B30000802EA600020C5F80038022303274FF02E
:109B4000006CC5F8043884F8670394F86523C3B241
:109B50009A4251D8AB6A94F866C31B0CA4F8403300
:109B6000002304F24237581CC2B2944565D894F8D9
:109B700062336A6ADB07A4F83E2324D51920EB6D13
:109B800092B29BB258436423B0FBF3F0002914BF98
:109B90004FF445738F23824228BF024694F867131F
:109BA00003EB4103934228BF1346A4F83E336B6294
:109BB000B4F84033202B28BF20231A46B4F83E3394
:109BC00043EA0243AB620022402300921146304632
:109BD00007F068F8024600283AD06FF0040725E73E
:109BE0001BF4407F314A43F0030308BF4FF080422B
:109BF0009AE74FF0804297E74FEA430ED4F8A0224D
:109C000007FA0EFB0BEA020222FA0EF232F002020F
:109C100011D1726803F07F03126910F0800F0CBF3E
:109C20005833483302EB4313C3F800C094F867334A
:109C3000013384F86733013087E772684033126973
:109C400002EB83035B681B0C27F8023B03468AE7A1
:109C5000009040238021304607F024F80746002872
:109C6000BBD1134B3046AB61D9F8083043F0010348
:109C7000C9F80830DAF820309847D9F8043823F0CA
:109C80000203C9F80438D8F80830002B3FF4CEAEF0
:109C9000304605B0BDE8F04F18476FF08507C5E6C0
:109CA0005C0400200950544F100000404000004068
:109CB00080380C802DE9F04F4368558BD3F810B0F5
:109CC000036992F81890D3F8A480EB1219F07F077B
:109CD00085B003F0030402940BEB47140394019343
:109CE00012BFD8E9A9EC4FF07F0E4FF0010CD4F869
:109CF000004BB9F1000F68D14E7E16F0060F64D10B
:109D000044F000440E8AB1F812A04B69AAEB060A8F
:109D1000CE68C5F30A05F61AAAEB060692F819A052
:109D20000AF0030ABAF1010F52D1019B03F00303B9
:109D300003FB055A029BB24503F1010359D8B8F859
:109D40006063F6074CBF44F0805444F00054634510
:109D500007D9029B0133BCFBF3FC03FB0CF305FBAF
:109D600003FA254DCAF3120C05EAC34343EA0C0378
:109D7000B9F1000F01D143F0C04308EB8705C5F8E6
:109D8000EC327D010BEB0506C6F8103B07F0FDF940
:109D900070B1088ACB68034498072AD1528B910787
:109DA00003D0C2F30A02924523D8AB44CBF8143B4C
:109DB0000121039B1037B94008F19400C3F8004B10
:109DC00005B0BDE8F04F07F042BA44F0044499E70B
:109DD000764508D9019B03F0030606FB0556BEFB3A
:109DE000F6FE06FB0EF66B1E3344B3FBF5F3B246EC
:109DF000ADE705B0BDE8F08F0000F81F2DE99F48E2
:109E00000446D4F804A04FF0FF38DAF810304FF0D1
:109E1000FF3903932369D3F8A4B00BF1880500221E
:109E2000CDE900894FF0FF3128460AF0B1FC074622
:109E30002069843042464B4602F02CFFB90700F1FE
:109E4000D4803A0711D50821284607F000FA9BF87C
:109E50006233D80600F1F9800BF1A40007F062FA32
:109E60008046B8F1000F40F0F3807E0724D504212E
:109E7000284607F0ECF9236980212046D3F8A46036
:109E800006F010FE96F8633301466FF3000386F880
:109E900063330022204607F0B5FB06F1A403D3E8A4
:109EA000EF2F22F00112C3E8E12F0029F7D106F5C8
:109EB0005A71204606F053FEF90616D53021284681
:109EC00007F0C5F99BF8626316F0100600F01A81DE
:109ED000DAF824302046984720460022012107F076
:109EE000BBFADAF8203020469847BA0640F176816E
:109EF000DAF82430204698472021284607F0A7F9B1
:109F0000830640F1678163681E692369D3F8A480E2
:109F1000336898F86603C8F8A830B36808F1CC0134
:109F2000C8F8AC30F368C8F8B030B369C8F8B430DA
:109F3000736AC8F8B830B36AC8F8BC30336BC8F875
:109F4000C030736DC8F8C430F36DC8F8C830002352
:109F50005A1C5FFA82FC8445C0F0F180D6F80038C4
:109F60004FF0030CC8F80831D6F80438D8F8A0929E
:109F7000C8F80C31D6F8103808F58E72C8F81031D0
:109F8000D6F81438C8F81431D6F81C38C8F8183187
:109F9000002358000CFA00F101EA0901C14001292F
:109FA00000F2D58003F148004001305810F4803FA2
:109FB00014BF40F0005040F08050106006EB43109A
:109FC000D0F810E9C2F840E0D0F81409C2F88000D7
:109FD000002940F0BF8003F1580149017158C803BE
:109FE00000F1208141F080511EE10221284607F056
:109FF0002EF99BF86233DB0625D40BF1A00007F0A5
:10A0000091F90646002E3FF41CAF96FAA6F3B3FA78
:10A0100083F301220F2BD9B288BF103902FA03F261
:10A020008CBFC9B241F08001204626EA020606F044
:10A0300039FD804606F03FFD0028E3D14146204629
:10A0400007F04AFCDEE70026DCE74FF0000808E7EF
:10A0500098FAA8F3B3FA83F301225FFA83F90F2B7E
:10A0600086BFA9F110095FFA89F949F080099A4081
:10A070004946204628EA020806F014FD19F0800F30
:10A08000064634D006F03AFD814680B96FF068028A
:10A090000721204606F03FFD304606F00CFD002863
:10A0A0007FF4DFAE3146204607F016FCD9E6038A7E
:10A0B0002BB14A4631462046FEF7DEFEECE7337E02
:10A0C000802B06D106F01EFD18B1484606F01EFD95
:10A0D000EFE7304606F00EFD81463046002106F0DF
:10A0E000EEFC00224946204606F021FDD4E706F0AA
:10A0F00001FD81460028CFD0204607F046F8002811
:10A10000EBD0EAE7039B039AD3F80438314643F0D7
:10A110000103C2F80438204606F0ADFC32460221A5
:10A12000204606F0F8FC022007F093F8039B039A00
:10A13000D3F8043823F00103C2F80438D5E64033DD
:10A1400006EB83035B6841F8043B134600E70229F2
:10A150003FF441AF0133102B02F104027FF419AF39
:10A16000D6F8003E0120C8F89C32B36D43F00203DC
:10A17000B36507F05EF8D6F8003E012043F0010316
:10A18000C6F8003E07F055F8B36D012043F0010317
:10A19000B36507F04EF8B36D012043F4822343F416
:10A1A000A063B36507F045F8B36D012043F00803E1
:10A1B000B36507F03EF8B36D43F02003B365214B60
:10A1C0001B6A0BB12046984798F8623343F010039E
:10A1D00088F86233DAF820302046984717F0C00F2D
:10A1E00015D0DAF8243020469847C021284607F0D9
:10A1F0002EF89BF86233DA0605D5C0F380120021F1
:10A20000204607F029F9DAF8203020469847FB0766
:10A2100003D50121284607F01AF82069843002F09E
:10A22000B1FDEEE541F00051C2F8C01006EB43115C
:10A23000D1F8100BC2F80001D1F8141BC2F840117C
:10A2400088E700BF5C0400200122024BC3F804240D
:10A25000704700BF002008E0084B70B5C31A0D46D8
:10A2600007499B10044659434022064807F011FF56
:10A270002B4601462046BDE870401847F4160020E2
:10A28000B76DDBB6DC4A010010B5EFF31184202373
:10A2900083F31288BFF36F8F074A136823F002011C
:10A2A000DB07116002D4012009F0D6FA84F311888B
:10A2B000BFF36F8F10BD00BF6C1700202DE9F8436E
:10A2C0000022012107464FF48770FDF7D9F91048A5
:10A2D00001F09EF80446C0B901F0C4F84FF01C0824
:10A2E0000C26DFF830903D69494608FB045004F025
:10A2F000D6FC002807DB012306FB04551C44032C75
:10A30000EB65F0D10020BDE8F8836FF00400FAE7B8
:10A31000DDA30000445901000C23104A014603FB51
:10A320000023002030B4D3E915525865EFF31180B3
:10A33000202484F31288BFF36F8FDC6D04F0C00417
:10A3400044F00204DC6580F31188BFF36F8F1DB108
:10A350002B4630BC0248184730BC7047F41600202A
:10A36000DC4A010010B4EFF31180202282F312883E
:10A37000BFF36F8F16490B6843F0020413F001031B
:10A380000C6017D0134BD3F80C3413F4803311D076
:10A39000EFF3118182F31288BFF36F8F0E4AD36DF2
:10A3A00003F0C00343F00203D36581F31188BFF3C8
:10A3B0006F8F012380F31188BFF36F8F1BB10020D3
:10A3C00010BCFFF7A9BF012010BC09F039BA00BFCB
:10A3D0006C17002000E01050F4160020042805D06F
:10A3E00007280AD002280AD1012004E0044BD86DC6
:10A3F00010F0070003D1FFF78FBF0220FBE7704783
:10A40000F41600201FB500220123CDE902236B467C
:10A41000084ACDF800D0CDF804D007F07BFE002824
:10A4200005DB43F609520023684602F067FD05B0DC
:10A430005DF804FB072101001A4AF0B4831A0D46A7
:10A440009910194B4B43DBB2EFF31186202181F3B6
:10A450001288BFF36F8F0C2404FB0324E16D01F01D
:10A460000707012F12D14021E165002186F31188F1
:10A47000BFF36F8F99B90C2101FB03220B49C2E98D
:10A4800015150B4AF0BC52F83330184701F0C001E3
:10A49000402914BF4FF0FF316FF07701E6E72B46FC
:10A4A000F0BC1847F4160020B76DDBB6E9200100B8
:10A4B0002C5901001C22024BC0B200FB0230704735
:10A4C000F41600202DE9F843012206463549D1E86B
:10A4D000EF3FC1E8E02F0028F9D133B932493348C2
:10A4E0004B60CB608A6004F0EDFB731E012B2BD810
:10A4F000012E06D12E4BD3F8503403F00303012B69
:10A5000022D009F001FF18B92A4B1B78002B42D149
:10A51000EFF31189202383F31288BFF36F8F012497
:10A52000234D254FA846D5F84C24D5F84C34D203FA
:10A530000CD503F00303012B01D0012E06D134B357
:10A5400089F31188BFF36F8FBDE8F883D4B1484613
:10A5500004F01AFDD5F8403413F0FF03E3D13A6854
:10A56000002AE0D03B603B684FF480410123134A4E
:10A57000C5F84034C2F8A01102F1E242A2F1F01293
:10A580001360D0E70021202009F05FFFE2E70423F9
:10A59000C8F80433D8E70422054B0446C3F808235F
:10A5A0008146BDE770170020E41600201017002038
:10A5B00000E01050F319002008E1105000E100E025
:10A5C00008B5074809F078FC38B10648FDF756FB96
:10A5D0000448FCF7DDFB002008BD6FF01200FBE72C
:10A5E0004C4B0100E9A500000A2838B50446074D88
:10A5F00004D1AB680D215B6828469847AB68E1B28F
:10A600005B6802489847204638BD00BF4C4B0100AC
:10A610004309022B70B503D0012B16D0BBB170BD1E
:10A620000C4C236959680029F9D0012600F01F005D
:10A630000D6886408A68324002D04B6820469847B1
:10A64000002DECD029462D68F4E7034CE9E7034CD4
:10A65000E7E700BF144B0100F84A0100304B01004E
:10A660002DE9F04340F20635D0F80480D00648BF0B
:10A67000032698F8103002EA050558BFC2F34016C9
:10A6800087B001F01F07B5F5807F144647EA4317EE
:10A690008DF8036048D007D8022D16D0062D45D07E
:10A6A0009DB16FF015063BE0B5F5007F40D004D8B2
:10A6B000B5F5837FF5D1092507E040F202229542E6
:10A6C00038D0B5F5407FECD105250123220303FAEC
:10A6D00001F131D5D8F804305960D8F8080088BBAA
:10A6E00007F01F027F09032F79D83F4B84F4803194
:10A6F00053F82730C1F3004103EB8202D2F88030D7
:10A70000C4F3404423F4706344EA410423F00F038C
:10A710001C4344EA860444EA0524C2F8804000262B
:10A72000304607B0BDE8F0830125CEE70825CCE729
:10A730000425CAE70625C8E7630344BFD8F80430F8
:10A740009960CAE70DF10202394609F065FA14F47E
:10A75000403F06460DD13946D8F8080009F075FA91
:10A76000002EDCD19DF80210D8F8080001F088F91D
:10A77000D6E74FF0000901ABCDE90199CDE90439E5
:10A78000CDF80C9003AA3946D8F8080009F08BF9E7
:10A790004845C4DB14F4003315D09DF8033084F42D
:10A7A0008034C4F300448DF80E308DF80C508DF8D1
:10A7B0000D404B4603AA3946D8F8080001F0A4F82A
:10A7C0000028CDDAABE7CDE904330DF103030393A1
:10A7D00003AA3946D8F8080009F065F9F0E72032F5
:10A7E00050F82230FFDE00BF5059010038B54568EF
:10A7F000A86810B90024204638BD09F020FA0146A7
:10A800000028F7D1A86801F0FDF8044680B9024697
:10A810000949A86809F0FDF922460121DB20FCF76F
:10A820002FFF2246012140F20D10FCF729FFE2E73D
:10A830006FF00404DFE700BF11A6000070B54568A3
:10A8400001F01F06287C86B046EA4016A86800285A
:10A8500068D0B2F5001F4FF0000404D1314609F072
:10A8600040FA00204FE001A8B2F5800F0194446047
:10A8700038D1B3F1007F0CBF042305238DF80430D9
:10A880000023CDE904030393EB680DF1030423FADD
:10A8900001F111F0010138D1B2F1A07F35D1720977
:10A8A00006F01F03032A03F120033ED8204951F884
:10A8B000222052F82330DB0727D422463146A868ED
:10A8C00009F0AAF9163018D0029403AA3146A868F4
:10A8D00009F0E9F8002816DB01223146A86809F0E2
:10A8E000B6F9BEE7B3F1C06F05D0B3F1007F0CBF7E
:10A8F00002230123C2E70323C0E72146A86801F031
:10A90000C9F80028E0DA06B070BD22463146A868D2
:10A9100009F082F90028D8D19DF80310A86801F049
:10A92000AFF8D2E76FF08500EDE751F82330FFDE96
:10A9300050590100082913B528BF08210C46084AC0
:10A94000D2F80433D2F808231BBA12BA00920A468E
:10A950006946019309F029FF204602B010BD00BFEF
:10A9600000C0FF0070B50D46036804461B684068D0
:10A970009847012D0DD108F026FF0646054D2368A6
:10A9800060685B68984720B908F01DFF801BA842EB
:10A99000F5D970BD9F86010070B5446805692068CF
:10A9A00009F08AFA10B96FF0120070BD4FF430212F
:10A9B000204607F08AFD10F1860F04D14FF42021C4
:10A9C000204607F082FD0028EFD1A06809F074FA54
:10A9D0000028E8D004F108064FF43021304607F093
:10A9E00074FD10F1860F04D14FF42021304607F09A
:10A9F0006CFD0028D9D118492246284607F05DFD94
:10AA00002169164B994221D014D8154B99421FD079
:10AA1000144B99420CBF0421002141F0100128463B
:10AA200007F08DFC0028C0D105F11400BDE870408E
:10AA300009F038BB0C4B99420CD003F5C31303F556
:10AA4000206399420CBF0A210021E6E70621E4E7D2
:10AA50000221E2E70821E0E7B059010040420F007F
:10AA6000A0860100801A060040E13300044B054A2D
:10AA700001219362044AC8201A600022FCF700BE3C
:10AA8000C01700203805002000800C50054B064AF6
:10AA900001219362054A4FF482701A600022FCF78C
:10AAA000EFBD00BF141800206805002000401050C2
:10AAB0002DE9F041446805460669206809F0FCF973
:10AAC00018B96FF01200BDE8F081304609F0EAFADB
:10AAD0007561A368BBB9637C04220B21284607F08B
:10AAE00068FF0028EFDBA37C06220B21284607F035
:10AAF00060FF0028E7DB01232846BDE8F0411A4645
:10AB00000B2107F056BF0523227C0621284607F0BB
:10AB100050FF0028D7DBA06809F0CEF90028D0D07C
:10AB2000B4F80EE0A068217B4EF480320123D0F807
:10AB300010C003FA01F7DCF800301EF0010F14BF5B
:10AB40003B43BB43D0F80880CCF80030D8F8003045
:10AB500098470028B7DB0127237B1A4A07FA03F33B
:10AB6000C6E90723A06806F118018368DB6913B9F9
:10AB70006FF05700A7E73A4698470028A3DB124B2F
:10AB8000B362A068217BE38982689669002EEFD0CA
:10AB900002698F40126803F0400317420CBF43F074
:10ABA000B86383F0707323F0794323F47F0323F4B5
:10ABB0007F4323F0BF034FF0A072B04700288ADA2A
:10ABC00081E700BF65290100CDAB000026230022EC
:10ABD0002DE9F04F044650F8100C91B0D0F80490D5
:10ABE0001146009306AB07F0C1FE002805DA2046A7
:10ABF00002F0EEFA11B0BDE8F08F0025214E96F874
:10AC0000008010AB434496F801A013F8273C1AEAE1
:10AC1000030F0CD0216911BB08F101025346D2B2D7
:10AC2000002154F8100C07F0C4FE0028DFDB0135CA
:10AC30000E2D06F10206E2D1D9F8080099F80C5061
:10AC40000669836805A95B6898470028CFD13368F7
:10AC5000059A5A400123AB401A42CBD0C7E754F8BB
:10AC6000103C0F680393012303FA05FB8A681BEA73
:10AC7000020202D04B6803989847002FCCD0394687
:10AC80003F68F3E78F610100036803F01F025B096F
:10AC9000032B02609ABF024A52F82300002070473B
:10ACA0000C5A01002DE9F04F1646824640F2FF187B
:10ACB000DFF8849185B000EB81018A4501D1002045
:10ACC00022E05AF8043BC3F3C322082AC3F3080462
:10ACD00000F2AC8057481B0E444508BF4FF0FF34CC
:10ACE0000B2B875C4AD012D8032B44D005D8012BFC
:10ACF00031D020D9C6F810461FE0052B36D02ED310
:10AD0000062B38D06FF0850005B0BDE8F08F182B0A
:10AD100078D007D8162B3BD071D80C2BF2D1C6F8BF
:10AD200004462DE0382B70D04E2BE3D0192BE9D1FF
:10AD3000C6F86C452EE0C6F80446631CBDD04FF043
:10AD4000010B03A80394FFF79FFF039B5D460BFADB
:10AD500003F3436031E0C6F80C46002514E04FF0E1
:10AD6000000BC6F80046621C1ED1A6E7C6F80446D2
:10AD70004FF0010BF7E7C6F80846EEE7C6F80046C5
:10AD8000002FEAD100250827631C96D0AB4614E0BB
:10AD9000C6F860453AF8023C601C03F001038CD011
:10ADA000002BCCD14FF0010B03A801250394FFF732
:10ADB0006BFF039B05FA03F383605AF8042C03A886
:10ADC00002F40043002B01921CBF4FF0010B002541
:10ADD0000394FFF759FF039B019A00EB8300D0F81F
:10ADE0008030C2F341223F0247EA8202154303EA60
:10ADF00009031D4345EA4B05C0F880505DE7C6F8DE
:10AE00006445C7E7C6F86845C4E703A80394FFF79D
:10AE10003BFF039B012500EB8300D0F8802022F04C
:10AE2000E04242F08042C0F88020ADE76FF01500AC
:10AE30006AE700BFB6610100F0F0FCFFF7B5284EED
:10AE40000C46737831780546194317460BD0737852
:10AE5000022F327803F00F030FD0032F2CD06FF0A6
:10AE6000850003B0F0BD0223009326223346806A9A
:10AE700007F07CFD0028EADAF3E795F82C100129A9
:10AE80000FD1012A01D80CD15BB10123A340DBB261
:10AE9000009308220221A86A07F0A2FD00280FDA19
:10AEA000DFE7012304F108020821A86AD2B203B047
:10AEB000BDE8F04007F07DBD95F82C10012903D0C6
:10AEC00004F108020023EFE7012A02D8F8D1002B91
:10AED000F6D00123A340DBB200930023D9E700BFE3
:10AEE000AD19002013B5144601F10C020DF1070352
:10AEF000D2B20821806A07F055FD00280EDB9DF8CC
:10AF00000720172A97BF00206FF01500044B53430A
:10AF10009EBF03F5742303F51073236002B010BDC8
:10AF2000A086010010B5134CA1421DDD124B9842C2
:10AF30001ADCA04204DC00236FF02100138010BD56
:10AF4000994201DD1723F7E76FF43A63A0F55B2020
:10AF500018440A4BB0FBF3F01080584300F57420FE
:10AF600000F51070884202D96FF01500E7E7002065
:10AF7000E5E700BF3F420F00A05A3200A086010063
:10AF8000436893F82D30032B0BD88BB2172B08D8BE
:10AF900005490020594301F5742101F51071116034
:10AFA00070476FF015007047A086010013B5144676
:10AFB00040680DF1070207F0B6FF00280EDB9DF890
:10AFC0000720172A97BF00206FF01500044B53434A
:10AFD0009EBF03F5742303F51073236002B010BD08
:10AFE000A08601002DE9F04104460F46466809F0AD
:10AFF0008BF988B12021EFF311831A4681F312886F
:10B00000BFF36F8F60680068D0F8300160BB83F3D6
:10B010001188BFF36F8FEEE71E4B1B78002BE9D032
:10B020004FF02008642563681B68D3F8303173B98A
:10B03000012008F0CFFB013DF5D10021202009F0CF
:10B0400004FAEFE783F31188BFF36F8FF5E7EFF3AF
:10B0500011831A4688F31288BFF36F8F61680968FD
:10B06000D1F830110029EDD0736A00201F70636899
:10B07000716A1B68C3F83C170121C3F84017C3F875
:10B080003001D3F83001196582F31188BFF36F8F57
:10B09000BDE8F081F3190020F0B4114CD4E9006749
:10B0A000901B63EB0701400940EAC1604101891927
:10B0B0004FEAD06547EB0505C4E9001500240025DB
:10B0C0000849C1E90023084BC3E90045EFF31181AA
:10B0D000202383F31288BFF36F8FF0BC02F0D8BD3A
:10B0E000180C0020080C0020200C002010B50022B5
:10B0F0000121E420FCF7C4FA174A0020D2F81837DF
:10B1000023F44033C2F8183700F036FE002821DB64
:10B11000124C012004F1080100F0BCFE002819DBEC
:10B1200000F002FE0E4B20F01F00C3E900010D4BA2
:10B130000022C3E900014FF0FF304FF0FF310A4B0E
:10B14000C3E90001207A094900F000FE67220020CF
:10B15000074B1A6010BD00BF00200E50D80500201C
:10B16000180C0020100C0020080C002099B00000E2
:10B170000819002008B500F0D7FD064AD2E90032D0
:10B18000C31A61EB0201044AC2E900315B0943EAD8
:10B19000C16008BD180C0020200C002010B500F084
:10B1A000CBFE0120FFF786F903F0D4FDBDE8104087
:10B1B000054B06481A68064BB2FBF0F24FF47A7062
:10B1C00043F0010350431847E405002040420F00BC
:10B1D000005801002DE9FF47DFF8ACC0274B0146BE
:10B1E000187ADCE90034CDE90234DDE90245244B6C
:10B1F000E646D3E900239D4208BF944210D1B1F145
:10B20000806F0DD2490108BF01210122641845F168
:10B210000005CCE9004504B0BDE8F04700F01ABFD6
:10B22000184ADFF868C0D2E9003ADCE9002C9E1821
:10B230004AEB0C07202334463D46C3FB01452B4611
:10B240002246DDE902459D4208BF9442CEE9002333
:10B2500012D20299B1EB0608039961EB0709B8F124
:10B26000C80F79F10001B4BF01210021009100F065
:10B27000B9FE04B0BDE8F0870021F7E7D80500204B
:10B28000080C0020180C0020000C0020200C0020CE
:10B2900003689A070CD50368DB070DD50922074B15
:10B2A000C3F80C250F22C3F8042501221A60FEE71B
:10B2B000034B0360EF3B0360704700BF00801050FA
:10B2C000F000FA5003689A070CD50368DB070DD528
:10B2D0000922074BC3F80C250F22C3F804250122CD
:10B2E0001A60FEE7034B0360EF3B0360704700BF4B
:10B2F00000801050F000FA5008B501232F4AC2F820
:10B300000038A2F55722D2F800242D4A1268292AC3
:10B3100001D0332A01D12B4A13602B48FFF7B8FF25
:10B320002A48FFF7B5FF2A48FFF7CCFF2948FFF767
:10B33000C9FF2948FFF7ACFF284AD2F88C3043F404
:10B340004063C2F88C300022D30003F57F0303F57D
:10B350004043D3F8001401310AD0D3F8001439B1B6
:10B36000D3F800140132D3F80434402A0B60EBD137
:10B370001B4BD3F80026D2071AD41A4B1749D3F81F
:10B38000182522F00302C3F81825D3F81825C3F8AE
:10B390001825D1F88C2042F44062C1F88C2000229C
:10B3A000C3F8A025104AD2F80034012BFBD008BD09
:10B3B0006FF00102C3F80026DFE700BF0000125063
:10B3C00040C3FF000C34055000F50E5008F50E5038
:10B3D00010F50E5018F50E5000F70E5000ED00E07D
:10B3E00000E0105000E0045000900450014B1B6836
:10B3F000184700BF0C190020014B1B68184700BFFD
:10B400000C190020014B07201B6818470C1900205D
:10B4100010B5104C2379D3B90123002820600E48C1
:10B4200008BF0020237100F00DF990B923680B4884
:10B43000002B08BF002000F043F850B923680848EB
:10B44000002B08BF0020BDE8104000F097B96FF056
:10B45000770010BD0C190020EDB30000F9B3000017
:10B4600005B4000008B5074B1B6853B14FF4877053
:10B47000FCF7F8F828B9BDE808404FF48770FCF7EE
:10B48000CDB808BD0C1900200422012138B50A4CA2
:10B4900042F21075C4F80823084A11600021F43202
:10B4A00011601268D4F84C34DB0304D5012008F095
:10B4B00091F9013DF6D138BD00E0105014E0105074
:10B4C000064A13793BB9012110601171044A1846EC
:10B4D000C2F8403470476FF07700704714190020AD
:10B4E00000E0105010B51C4A1C4CD2F84C14D2F895
:10B4F0004C3411F4803F17D003F00303012B03D029
:10B5000013B1FFF7C1FF002300210120124AC2F846
:10B510004034134B19601968124908602168B9B1A9
:10B520000423C2F8043310BDD2F8483413F00103E9
:10B53000EAD0D2F850349B07E3D42368002BEFD134
:10B54000074B1A68002AFCD000221A601B68EAE741
:10B550001A68002AFCD0F7E700E010501419002008
:10B5600008E1105010E01050F8B51B4C1B4DD4F8FA
:10B570000C331B4E03F00C0303B9F8BDB3FA83F38D
:10B5800001214FF0000CC3F11F039A0002F58072F5
:10B5900092B202F1A04202F58712C2F800C001FA8D
:10B5A00003F7022B1268D8B2C4F8087310D1D4F88C
:10B5B0004C34D4F84C349B070AD10423C4F840140B
:10B5C000C4F804333160D4F80C3303F00C03D3E730
:10B5D0002B689847F7E700BF00E0105014190020CF
:10B5E00010E01050712238B5114B0021C3F8082328
:10B5F0000123104A1360C2F8FC10FC3212680E4A94
:10B600001268292A01D0332A01D10C4A136042F270
:10B610001074074DD5F80C3413F4803305D0012095
:10B6200008F0D8F8013CF5D138BD054A5371FBE765
:10B6300000E0105004E0105040C3FF000CE0105038
:10B640001C190020054A137923B9012110601171DA
:10B65000184670476FF07700704700BF1C19002034
:10B660000023134A13601268124A13601268124AC8
:10B6700013601368114B1B68292B01D0332B02D1A7
:10B6800001220F4B1A60002201210E4B1A601A682A
:10B690000D4A11600D49096819B17123C2F80433CC
:10B6A00070471A68002AFCD000221A601B68704795
:10B6B00010E1105018E1105014E1105040C3FF0089
:10B6C00008E0105000E1105000E010501C1900205C
:10B6D00070B5194C194DD4F80C33194E03F07103A1
:10B6E00003B970BDB3FA83F301220021C3F11F0334
:10B6F0009A40D8B29B0003F580739BB203F1A0433C
:10B7000003F587131960102A1B68C4F8082308D0B2
:10B71000402A0ED02B689847D4F80C3303F07103FD
:10B72000DEE702236B71316033682023C4F80433F1
:10B73000F0E76971EEE700BF00E010501C1900202F
:10B7400014E110508022012138B50A4C42F21075E4
:10B75000C4F80823084A11600021F432116012680D
:10B76000D4F86C34DB0304D5012008F033F8013D34
:10B77000F6D138BD00E0105028E01050054A13798A
:10B7800023B9012110601171184670476FF07700DE
:10B79000704700BF2419002000220121094B1A60C4
:10B7A0001A68094A1160094A12681AB18022C3F85E
:10B7B000E82170471A68002AFCD000221A601B6832
:10B7C000704700BF1CE1105024E0105024190020E5
:10B7D000084AD2F804331B060BD5074B196841B150
:10B7E000002119601B688023C2F80833034B1B68D3
:10B7F0001847704700E010501CE110502419002039
:10B80000036803F01F025B09032B02609ABF024A20
:10B8100052F8230000207047845B0100034A43096B
:10B82000D35C00F01F001844C0B270470B620100E7
:10B83000F0B58446002487B0124F134E019102AD3B
:10B8400017F8013B06AA02EBD30212F8142C03F0FE
:10B85000070322FA03F3DB0705D40134042CEFD1EC
:10B86000002007B0F0BD96E80F0085E80F0055F8FE
:10B870002420136A4CF824301362002BEDD00120F1
:10B88000EFE700BF1B620100D057010073B505460A
:10B8900008460C46FFF7C2FF00B205EB4006B38A2C
:10B8A000DB072BD5284608F0DBF82146284608F0B0
:10B8B00045F858B1284608F04CF82B6800B203EB65
:10B8C00080000023C0F81035C0F810352146284606
:10B8D00008F068F8002101A8B1820194FFF790FFF9
:10B8E000019B00EB8300D0F88020064B134043F00F
:10B8F0000203C0F88030084602B070BD6FF015003A
:10B90000FAE700BFF0F0FCFF2DE9F043044685B0F4
:10B9100008460D4690461F46FFF780FF8146B8F166
:10B92000000F27D0204608F08EF820B1204608F0FE
:10B9300005F8002860D10FFA89F604EB4606B38AB1
:10B9400013F01C0F03D098F80130012B54D00123C1
:10B950008DF80F30002308F10102CDE900830DF1CD
:10B960000F0108F10203284607F091FFB38A43F064
:10B970000303B3821FB9002005B0BDE8F083294658
:10B98000204608F060F8002836D13E782368B100E0
:10B990000B440FFA89F2C3F8100504EB4202C3F816
:10B9A0001005938A23F4604323F0200393827B786D
:10B9B000002BE0D02468BF782144D1F810C5104C8A
:10B9C0001B040CEA0404C1F81045D1F8104503F437
:10B9D0004033234341F6F07404EA05153C052B433C
:10B9E00004F480142343C1F81035938A43EA4633A4
:10B9F00043F020039382BFE76FF01500BCE700BF60
:10BA00000FE0ECFFF8B590F8B040054690F8B16053
:10BA10007CBB21468422143008F0D5FE2146012447
:10BA20000F46154B2A6853F836608E4214D1002415
:10BA3000C2F84441D2F8443140F20D130F4882421B
:10BA400014BF1846DB20FBF7E9FD0123204685F8EB
:10BA5000B030C5F89C30F8BDCBB29B0003F58070C8
:10BA60009B0804FA03F39B0344BF875083580131BA
:10BA7000DBE76FF07700EEE7945B010000A00D506C
:10BA800090F8B100024B03EB800007F0C0BE00BF8E
:10BA9000E805002010B5064B90F8B1000C4603EB0A
:10BAA000800007F099FE0028A4BF2070002010BD80
:10BAB000E80500202DE9F04F074657F8049B90F861
:10BAC000B150D9F814136A4CC9B254F835208DB06E
:10BAD000824641F40031484607F08EFF8203064655
:10BAE00038D51022002108A808F06DFE04EBC5032C
:10BAF0005B6808A8194604EBC5040193FFF798FE9C
:10BB0000231D03934FF0000B5A4B0DF120080293B5
:10BB1000029A039912F8013B0292DA088A5C03F058
:10BB2000070322FA03F3DB076DD40BF1010BBBF122
:10BB3000040F08F10408EBD14FF40031002248460D
:10BB400007F05AFF019908A8FFF772FE0028D9D123
:10BB500026F400360124002E74D10DB0BDE8F08F1C
:10BB600093FAA3F3B3FA83F3434A05931BF8024015
:10BB700043EA44142046FFF751FE0AEB4000818A55
:10BB8000059B890801F00705EAB204920122D80852
:10BB900018F800C003F0070302FA03F32CEA0303CA
:10BBA00008F8003007A80794FFF72AFE079B11F05A
:10BBB000040F03F1200350F82330049AC3F3014328
:10BBC00026D021463846DDB207F0CDFE07A80794FF
:10BBD000FFF716FE079B203350F82330C3F30143D1
:10BBE0009D4207D10021204607F099FE29462046B4
:10BBF00007F095FE07A80794FFF702FE0122079BB6
:10BC000002FA03F30362D8F80030002BA8D18CE7C6
:10BC1000022B0CBF0321022120460592049307F05A
:10BC20007EFE032D059A04D0049B022B06D1012A27
:10BC3000E0D12146384607F096FEDBE7032BD9D149
:10BC4000022AF5E796FAA6F3B3FA83F304FA03F2AD
:10BC500026EA020603F5A27259F822200AEB4303F2
:10BC6000C2F30142B3F8A010384607F07CFE72E739
:10BC7000945B01001B6201001B6201000123034A67
:10BC800003FA00F09368034393607047D0000020EC
:10BC90000123044A03FA00F0936823EA0003936047
:10BCA000704700BFD000002073B506460191EFF346
:10BCB0001185202383F31288BFF36F8F0C4C019BF7
:10BCC000626801A81340019307F086FD002808DB95
:10BCD000012303FA00F2636823EA02036360307011
:10BCE000002085F31188BFF36F8F02B070BD00BFD5
:10BCF000D00000200022024B80001A50704700BF85
:10BD000000210E50074B027AD3F8101521F00101E3
:10BD10000A43C3F810250268C3F8A4264268C3F892
:10BD2000AC26704700200E5030B50024064D20464A
:10BD3000D5E9002303F0404150EA010CF7D1104649
:10BD4000C3F3130130BD00BF40270E5030B50C25A2
:10BD5000074C231893F8543005FB0343C3E903123F
:10BD600018750123034A8340C2F8243330BD00BF55
:10BD7000D000002000200E50F0B53E4D85B02C784C
:10BD8000002C70D13C4A01AB07CA83E807003B494D
:10BD90001846D1F8102522F00202C1F81025FFF74D
:10BDA000B1FF07232246672101F001000244013B55
:10BDB000D2B24FEA5101F7D1052A57D119464FF0B7
:10BDC000010C2C4ECFB20024672004E00CFA02F2E2
:10BDD00020EA0200013490FAA0F25FFA84FE77456F
:10BDE000B2FA82F2F2D80131327505292A4482F87A
:10BDF000547006F10C06E5D10121002420489A0870
:10BE000001FA02F212F0670F18BF1C500433302BF6
:10BE1000F5D1E420FBF702FC184B1A49D3F81025A2
:10BE200003F5C07322F00202C3F8902340F6FF72BC
:10BE3000C3F8A82100221A60A3F5807004338B4256
:10BE40000260F8D101240D4B0F481C660F4B1A6895
:10BE50000F4BB2FBF0F25D20234350439847002084
:10BE60002C7005B0F0BD6FF07700FAE76FF08B0033
:10BE7000F7E700BFD0000020E057010000200E507F
:10BE800000210E50B0210E5040420F00E40500206A
:10BE90001058010038B5254B0D46D3F810259407EE
:10BEA0003DD4D3F8102542F00202C3F81025C0B1EA
:10BEB000D3F8482712F0010202BFD3F8481741F027
:10BEC0000101C3F84817194BD3F84017D3F84417AA
:10BED0004900F9D42AB9D3F8482722F00102C3F85F
:10BEE0004827134B134A1B681049B3FBF2F303EBCB
:10BEF0004313BBB1D1F84027D1F8444714F0804434
:10BF00000BD14FF0FF312846FFF7CEFE002803DBB0
:10BF10002878FFF7B3FE204638BD013BE9E76FF014
:10BF20007700F9E76FF07300F6E700BF00200E50CE
:10BF3000E405002040420F002DE9F047264D67231D
:10BF40006C684FF0000AE4434FF00108234E04F000
:10BF50006704C6F8283305F104095FFA8AF1E4B9E9
:10BF6000E420FBF76BFB1D4BD3F8482722F00102BE
:10BF7000C3F84827D3F8102522F00102C3F8102592
:10BF8000D3F8102522F00202C3F810250123144A29
:10BF9000136053602C70BDE8F087AB6808FA01F7B6
:10BFA0003B4013F0670F02D00846FFF771FE6B6845
:10BFB00027EA030717F0670F09D0002206EB0113E9
:10BFC000C3F82C25E30702D5484607F020FC640897
:10BFD0000AF1010AC1E700BFD000002000200E5086
:10BFE00064200E5070B51D461446184B9DF8101075
:10BFF0001A1892F85420064603EBC203C3E9184509
:10C00000C5F3130203B2B9B1190101F1A04101F561
:10C010006221C1F82045C1F824250D4A9B00D35860
:10C020009BB1FFF781FEA94208BFA0420DD2304666
:10C03000BDE87040FFF75EBE1B0103F1A04303F5AE
:10C040006223C3F82045C3F8242570BDD00000202A
:10C0500000210E502DE930480D4B1C1894F8544027
:10C0600000010C3403EBC403D3E9004514EB010BCE
:10C0700045F1000CC3E900BC21F0004100F1A040F3
:10C0800041EAC27100F56220C0F82815BDE8308889
:10C09000D0000020F7B5284B284CD3F82C6304F1CE
:10C0A00088070EB903B0F0BD96FAA6F0B0FA80F09A
:10C0B00001232218224992F85450820011440C2284
:10C0C0008340DB4302FB0542D2681E407AB3D7E8C7
:10C0D000EF2F02EA030CC7E8EECFBEF1000FF6D156
:10C0E00022FA00F3DB0719D5020102F1A04202F5A2
:10C0F0006222D2F82435D2F82025D1F800C0BCF154
:10C10000000FCED04FF0000CC1F800C00C2101FB95
:10C11000054529690091E9688847C2E705F10C03E4
:10C1200004EBC30C54F83320DCF80430E5E70B686B
:10C13000002BB6D00A60B4E700200E50D0000020DB
:10C1400000210E50036870B503F01F025B09032B3A
:10C150001ED840F60C04134E134D56F8231001EB75
:10C160008201D1F880202A402243C1F88020426811
:10C1700002F01F015209032A0FD856F8222002EBC1
:10C180008101D1F880302B402343C1F8803070BD4D
:10C190000023203253F82230FFDE0023203153F8F1
:10C1A0002130F9E7A45B0100F0F0FCFF00210268F8
:10C1B000094BC160C2F80833D2F8003223F0FF53B4
:10C1C00023F4BC53C2F800320123C2F8001580F8F2
:10C1D000263080F8281070472264F81F00232DE9CC
:10C1E000F04780F827304B6805460F4690460468B4
:10C1F00033B1CB6803F06043B3F1005F40F0498195
:10C200003B78023B012B06D83B6903F06043B3F156
:10C21000005F40F03E81A04BC4F8083395F8282019
:10C2200002F0FF033AB16FF00F06EB68C4F8043375
:10C230003046BDE8F08718F0140F0CBF0122002231
:10C2400085F828203A7885F824207A7885F8252002
:10C25000FA682A617A686A613A69AA61BA68C5F8B7
:10C260002080EA61C8F3001285F829207A78C4F8A2
:10C270008825C4F83831D4F83821C4F82831D4F8E6
:10C280002821C4F81431D4F81421C4F80431D4F8A6
:10C29000043118F0010318BF0123C4F84C3718F01B
:10C2A000020318BF0123C4F814373B78032B7FD84F
:10C2B000DFE803F033751F024FF48073C4F80032D7
:10C2C000D5E90423C4F83C27C4F84037012323658B
:10C2D0004FF00061204607F04CFD0028F8D1D5E969
:10C2E0000623C4F83C27C4F840374FF48063EB6062
:10C2F0002BE0D5E90423C4F83C27C4F84037D5E93E
:10C300000623C4F80427C4F808374FF48453C4F84C
:10C310000032012323610223E9E718F0200FD5E959
:10C320000423C4F83C27C4F8403715BF4FF480738A
:10C330004FF40073C4F80032C4F8003214BF4FF455
:10C3400080630223EB6001232361002618F0080FAD
:10C350000ED13B78032B0BD0012B6A683FD1A3622F
:10C360004AB37B6823B96B68002B6BD001236360F1
:10C370006B68002B66D018F0040F1CBF0023EB6025
:10C3800018F0400F02BFEB6843F00203EB60EB686C
:10C3900043F02003EB60EB68C4F8043348E7D5E9C9
:10C3A0000423C4F80427C4F808374FF48053AEE7D9
:10C3B0006FF01506CAE76A6902B963604FF0010AB7
:10C3C00040F2024940F22241204607F0D2FC8106A9
:10C3D00048BFC4F804A010EA090FF3D0C1E7012355
:10C3E0002365002ABDD16A6902B963604FF0000974
:10C3F00040F2024A19EA0A0FB3D140F22241204624
:10C4000007F0B7FC10F0200F8146F3D04FF48041C5
:10C41000204607F0AEFCD4F8003208B19A0505D4E6
:10C4200001222261626058B14FF00009DB05E1D5BD
:10C430004FF48061204607F09CFC4FF00009D9E7DB
:10C440008146D7E70022D4F8C434C4F8C43485F850
:10C4500028208BB113F0010F14BF6FF08A066FF024
:10C460008B0613F0020F18BF6FF00D0613F0040FC8
:10C4700018BF6FF00A06DBE618F0400F7FF4D8AE65
:10C48000291D204607F044FC002808BF6FF08B06EA
:10C49000CEE66FF00C06CBE62264F81F70B5056897
:10C4A00086B002210446284607F063FC2021064698
:10C4B000284607F05EFCD0B1D6B9E3684FF480415E
:10C4C000C5F808330223E360E3682846C5F804335F
:10C4D00007F04FFC18B1D5F800329B0502D40123B8
:10C4E0002B616B60012384F8273006B070BDA6B3C2
:10C4F000236A5E060AD494F827303BB9211D2846EA
:10C5000007F006FC80F0010084F82700236A13F08E
:10C51000040339D1C5F83831D5F83821C5F834319C
:10C52000D5F8343194F8293013B194F8273003B397
:10C5300000230121C5F80032E3602F4BC5F8083312
:10C54000C5F30F33C3F3431203F01F0301FA03F3E0
:10C550002A49603241F822300BE04FF480612846CE
:10C5600007F007FC94F8243043BB94F82930002BE3
:10C57000DFD0A38CADF80430236904936369029380
:10C58000A3690593E3690393D5F8C4349807C5F804
:10C59000C43423D501238DF8003094F829300BB929
:10C5A00084F82830236A5B0703D594F82730002BE2
:10C5B0009BD0D4E901316846984796E74FF4007361
:10C5C000C5F800322223E3600B4BC5F80833E3685B
:10C5D000C5F8043301232B652B6186E7590701D584
:10C5E0000223D8E7DA0701D50323D4E794F82730EC
:10C5F000002BD0D00423CEE72264F81F00E100E036
:10C60000036803F01F025B09032B02609ABF024A12
:10C6100052F8230000207047B45B0100F7B50C46C8
:10C62000064607F020FC084607F01DFC01A801960D
:10C63000FFF7E6FF40F60D01019B2C4D00EB830058
:10C64000D0F8802001272A400A43C0F8802001A8A2
:10C650000194FFF7D5FF019A00EB8200D0F88030FB
:10C660002B400B43C0F88030042007F0B3F80925B5
:10C6700001A80194FFF7C4FF019AC368D340DB0708
:10C6800014D401A80196FFF7BBFF019B013D07FAF7
:10C6900003F38360042007F09DF8304607F0E3FBC6
:10C6A000042007F097F815F0FF05E1D101A80194E7
:10C6B000FFF7A6FF0123019A93408360042007F04F
