:020000040000FA
:10000000A8160020FD3D0000054A0000E93D000063
:10001000E93D0000E93D0000E93D0000E93D000048
:100020000000000000000000000000005D3E000035
:10003000E93D000000000000E93D0000E93D00004E
:1000400071080000710800007108000071080000CC
:1000500071080000710800007108000071080000BC
:1000600071080000710800007108000071080000AC
:10007000710800007108000071080000710800009C
:10008000710800007108000071080000710800008C
:10009000710800007108000071080000710800007C
:1000A000710800007108000071080000710800006C
:1000B000710800007108000071080000710800005C
:1000C000710800007108000071080000710800004C
:1000D000710800007108000071080000710800003C
:1000E000710800007108000071080000710800002C
:1000F000710800007108000071080000710800001C
:10010000710800007108000071080000710800000B
:1001100071080000710800007108000071080000FB
:1001200071080000710800007108000071080000EB
:1001300071080000710800007108000071080000DB
:1001400071080000710800007108000071080000CB
:1001500071080000710800007108000071080000BB
:1001600071080000710800007108000071080000AB
:10017000710800007108000071080000710800009B
:10018000710800007108000071080000710800008B
:10019000710800007108000071080000710800007B
:1001A00071080000B91C000071080000710800000F
:1001B000710800007108000071080000710800005B
:1001C000710800007108000071080000710800004B
:1001D000710800007108000071080000710800003B
:1001E000710800007108000071080000710800002B
:1004C000710800007108000053B94AB9002908BF3B
:1004D00000281CBF4FF0FF314FF0FF3000F00CB888
:1004E000ADF1080C6DE904CE00F008F8DDF804E089
:1004F000DDE9022304B07047704700BF2DE9F047E3
:1005000086468C460846089E154674461946002BBA
:1005100040F0C1808542B2FA82F245D94AB1C2F1B7
:10052000200300FA02FC954094402EFA03F343EABC
:100530000C0C4FEA154EA8B2230CBCFBFEF80EFBC8
:1005400018CC08FB00F943EA0C43994528D9EB186D
:1005500008F1FF3704D2994502D9A8F102072B44CC
:10056000A3EB0903A4B2B3FBFEFC0EFB1C330CFB94
:1005700000F044EA0344A04214D92C190CF1FF33D3
:1005800004D2A04202D9ACF102032C44241A43EA5B
:1005900007401EB1D440002334607360BDE8F0878B
:1005A0004746DDE76346F1E792BB431B01214FEA73
:1005B000154EAFB2200CB3FBFEFC0EFB1C330CFB44
:1005C00007F840EA0343984561D9EB180CF1FF3076
:1005D00004D2984502D9ACF102002B44A3EB0803E6
:1005E000A4B2B3FBFEFC0EFB1C330CFB07F744EA82
:1005F0000344A7424DD92C190CF1FF3304D2A74272
:1006000002D9ACF102032C44E41B43EA0040C0E7EA
:10061000C2F120039540944020FA03F12EFA03F32F
:100620004FEA154E9040AFB20343B1FBFEFC0EFB08
:100630001C10190C0CFB07F841EA0041884522D92F
:1006400069180CF1FF3004D2884502D9ACF10200E0
:100650002944A1EB08019BB2B1FBFEFC0EFB1C116F
:100660000CFB07F743EA01439F420ED9EB180CF14C
:10067000FF3104D29F4202D9ACF102012B44DB1BB3
:1006800041EA004193E76046E3E76146F7E76046E9
:10069000A4E76346B8E7834206D916B900210846A5
:1006A0007CE7C6E900E0F9E7B3FA83F78FB9834244
:1006B00001D3724508D8BEEB020460EB03030120AE
:1006C0009C461EB9002169E73846FAE7C6E9004CA6
:1006D000F8E7C7F1200CBB400EFA07F522FA0CF43C
:1006E0002EFA0CF1BA401C4320FA0CF3B8404FEA42
:1006F000144901431FFA84FEB3FBF9F809FB1830D3
:100700000B0C08FB0EFA43EA00439A4540D9E31864
:1007100008F1FF3004D29A4502D9A8F1020023441F
:10072000A3EB0A0389B2B3FBF9F809FB183308FB02
:100730000EFE41EA03418E452CD9611808F1FF33C2
:1007400004D28E4502D9A8F10203214443EA0040B5
:10075000A1EB0E01A0FB02984145CE46434602D3D1
:1007600006D14D4504D20138B9EB020E68EB040303
:10077000002EA7D0B5EB0E0261EB030101FA0CFCD1
:1007800022FA07F3F9404CEA0303C6E9003199E77E
:100790004046C5E74346D9E7036803F01F027F2BB5
:1007A00002604FEA53129ABF024B53F82200002016
:1007B000704700BFD04D000007B5019001A8FFF7BA
:1007C000EBFF019B00EB8300D0F88020044B13402B
:1007D00043F00203C0F8803003B05DF804FB00BFB3
:1007E000F0F0FCFF002318460649D1F89020C2F330
:1007F0000722934200DB7047C1F89830C1F8A0008F
:100800000133F6E700ED00E0002807DB0123410992
:10081000034A00F01F00834042F82130704700BFB8
:1008200000E100E000280CDB01220649430900F04A
:100830001F008240203341F82320BFF34F8FBFF3C6
:100840006F8F704700E100E00028ACBF00F160400E
:10085000064B4FEA4111C9B2ABBF00F5614000F051
:100860000F0080F800131954704700BF14ED00E02A
:10087000EFF30583034A103B02EBC301496852F8CA
:1008800033000847984F000030B5104CD4F8903032
:10089000C3F30723013B984215D80D7A0B6805F086
:1008A0001F0223F01F031A43CB686D0923F01F03B7
:1008B00043EA450343F00103C4F89800C4F89C20C0
:1008C000C4F8A03030BD6FF01500FBE700ED00E08C
:1008D000254B264A4FF47A611A600122244B2548A1
:1008E000C3F80424D0F82436C3F30802C3F3094341
:1008F0004B4382F480722049883201FB02334FF46B
:10090000FA215B00B3FBF1F201FB12331B49B3F593
:100910007A3F28BF0132C1F80429D0F820364FF4BD
:100920007A60C3F30802C3F30943434342F21C5005
:1009300082F4807202F2172200FB02334FF47A70C5
:100940001B0AB3FBF0F200FB12330020B3F5FA7F71
:100950004FF0010328BF0132C1F81C27C1F800097C
:10096000C1F80036704700BFC40200200020A10774
:10097000002008E000C0FF00102700800000125097
:100980000023024A0020C1E90023704700501E00E6
:1009900000487047BC4D0000024B0B600123136000
:1009A000704700BFB44D0000024B034A0020C3F85B
:1009B0000C25704700E00450800000804209022AA4
:1009C000034670B503D0012A18D0CAB170BD0E4ECF
:1009D000326951680029F9D0012503F01F030C6822
:1009E0009D400029F2D08A682A4002D030464B68E8
:1009F00098473CB1236821461C46F2E7034EE7E7DF
:100A0000034EE5E72346F6E7104B0000F44A0000EA
:100A10002C4B000003689A070CD50368DB070DD543
:100A20000922074BC3F80C250F22C3F80425012225
:100A30001A60FEE7034B0360EF3B0360704700BFA3
:100A400000801050F000FA50034A4309D35C00F0D4
:100A50001F001844C0B270477E4F0000F0B58446B6
:100A6000002587B0DFF848E0124F019102AE1EF872
:100A7000013B06AA02EBD30212F8144C03F0070361
:100A8000DC4014F0010406D10135042DEFD100241F
:100A9000204607B0F0BD97E80F0086E80F0056F833
:100AA0002520136A4CF825301362002BECD0EFE7B9
:100AB0008E4F0000F04B0000124B70B553F82050E1
:100AC000013053F82060AE4200D870BD6C68B4B1FC
:100AD000237EDB0711D4636953B12046984738B1B0
:100AE0000028B8BF4042FF28A8BFFF20E368187065
:100AF000E268537843F0010353700835E3E72B684D
:100B00009847FAE78C4D000030B5104B1B68D3B9FD
:100B10004FF0FF306FF040410D4CD4E9002390427C
:100B200071EB0305F9D310460A49C3F31303D1E966
:100B30000021801A084A63EB0103C2E9000340095F
:100B400040EAC36030BD0020FCE700BF740A00200B
:100B500040270E50600300205003002010B5EFF333
:100B60001184202383F31288BFF36F8FFFF7CCFF2C
:100B70000346054AD2E90001181841EBE37184F3FA
:100B80001188BFF36F8F10BD680300200B4B1A68EC
:100B90009A420FD072B1D2E904321B1A62EBE072B2
:100BA000B3F1004F72F1000104DA002AACBF18461D
:100BB000002070476FF00040704700BFB402002073
:100BC00001680E4A0346914215D1C169A2F1102273
:100BD000A2F1EF1291420ED18268012A0BD8C268AD
:100BE00012B101698A4206D0586928B19B691B1A63
:100BF0005842584170470120704700BF55AA00FF76
:100C000070B50D4B9E68A6B13046FFF7D9FF04467C
:100C100078B9F3686BB935690DB9204670BD2846BF
:100C2000FFF7CEFF28B9EB68B34202D12E462D69FB
:100C3000F2E70124F1E700BF600A002010B50A4680
:100C4000044620B119B1054B00211B689847044B9D
:100C50002046BDE810401B68184700BF9C020020DA
:100C6000A002002038B500F140431F2B0CD82C22E5
:100C7000144C02FB0344237F022B02D1636983429D
:100C800016D06FF08B0018E0002817DD0D4B002206
:100C90001C461D7F022D02D15D69854205D00132BF
:100CA000202A03F12C03F4D1EBE72C2303FB0244AD
:100CB000204603F05FFB00B90C6038BD6FF0870081
:100CC000FBE700BFD804002008B50F4A1368591C81
:100CD0001160BBB90D4A5920D2F8003443F0070324
:100CE000C2F80034FFF790FDBFF35F8F1522084B69
:100CF0005A62BFF35F8FBFF35F8F40F237129A6281
:100D0000BFF35F8F08BD00BF600400200090055056
:100D10000010015010B5124B1C68013C1C60ECB96E
:100D20005920FFF77FFD07220E4BC3F80823D3F8A5
:100D3000002422F00702C3F80024C3F80041D3F8CE
:100D40000021C3F80441D3F804214FF00072C3F826
:100D50000841D3F80831044BC3F8882110BD00BF07
:100D6000600400200090055000E100E00022074BE5
:100D7000C3F81021C3F80C21C3F80021C3F80421E3
:100D8000C3F80821C3F81821704700BF0090045031
:100D900008B5FFF7EBFF01230360104B0A6832B977
:100DA000D3F80C211AB9D3F80821002AF6D00B6821
:100DB0007BB90B4B99420ED0A3F58473D3F808315D
:100DC000002B0CBF4FF0FF306FF00200FFF7CEFF9B
:100DD00008BD0020FAE74FF0FF30F7E7009004501D
:100DE00008910450012310B50B4CC4F80035D4F819
:100DF0000034DA07FBD5094B0949C3F80005094857
:100E0000FFF7C6FF0023044AC4F80035D2F80034C7
:100E1000DB07FBD510BD00BF00E00450009004507C
:100E2000089104500890045038B5064D0C46C5F89A
:100E3000000505490548FFF7ABFF10B9D5F808359F
:100E4000236038BD00900450109104500C90045061
:100E500070B51C4E44680288B6EB142F43884FEAE5
:100E6000142513D14069184B98420BD003F5FF436A
:100E70007D330344012B02D8B2F5105F1AD06FF016
:100E8000860016E047F212139A42F7E70F488542B0
:100E9000F5D102F44F40B0F5824F0DD144F212105B
:100EA000073382424FEAD30301D15B0001330020B4
:100EB0000B6070BD0223FAE7B2F5885FFAD1073301
:100EC000DB08F4E7004E800001C0FF7F4B4E80003E
:100ED00038B52A4B1B7843B1294B1A68002A3FD0FA
:100EE0001A681968002119602AB9BFF35F8F254B72
:100EF0009A6ABFF35F8FBFF35F8F224CE36BBFF340
:100F00005F8F12F0240F03F023032BD0BFF35F8F0A
:100F1000E569BFF35F8FBFF35F8F10236363BFF398
:100F20005F8F194B1868194BB0FBF3F0184B43F067
:100F300001039847BFF35F8F00236363BFF35F8FA5
:100F4000BFF35F8FE36BBFF35F8F5B06F8D425B110
:100F5000BFF35F8FE561BFF35F8F6FF01F0038BD98
:100F600020BFBAE74FF0FF30002BF8D1BFF35F8FFF
:100F70002063BFF35F8F1846F1E700BF810A0020AE
:100F80007403002000000150C402002040420F0002
:100F9000004C0000C36870B57BB9C36900F128023A
:100FA0001A60C369454A9A604368C269DB6843F4C2
:100FB0008063D360C3691033C361836A9B052FD4F8
:100FC0000368C268DD6800F1EC04302D34BF0826E8
:100FD00010261D6901366B1E1340EB1AB34238BF51
:100FE0005B191C44D50004F8015C03F1EB045209C1
:100FF000044400F1ED05A5425CD1802280F8EC208C
:10100000426AC469C4322260C26993604468C2699A
:10101000E468D460C2691032C26102691A44026194
:101020000269C469D31C23F003039B1A54F8042CEF
:1010300042EA032244F8042CC26952F8084C2344C3
:1010400043F0005342F8083C026A0368DB68116011
:101050000168026AC96803339160026A23F00303DE
:1010600002F1100101620168C96899420BD00021A8
:1010700011610168026AC9685B1A43F0804393609A
:10108000036A10330362836A13F4806311D1026828
:101090005169D26891420CD0026A13600268016AF9
:1010A0005369D2689B1A43F080438B60036A103304
:1010B000036270BD04F8012D120A9CE704000020B1
:1010C000BFF35F8F094A1368BFF35F8F43F48071EA
:1010D000BFF35F8F1160BFF35F8F23F48073BFF3A3
:1010E0005F8F1360BFF35F8F704700BF0010015028
:1010F000BFF35F8F00220B4BDA61BFF35F8FBFF34B
:101100005F8F4FF0FF321A63BFF35F8FBFF35F8FC4
:101110003422DA61BFF35F8F012203F59223C3F813
:101120000423704700000150EF2938B5044624D944
:1011300003681D6815F0400522D1FFF7C5FD0121A8
:101140002176FFF7D5FF104B2846636023680F4ACE
:101150001B68C4E90355A36204F12C03236204F164
:1011600028036362E3671323C4E9212304F18C039A
:10117000E361074BA160636138BD6FF02200FBE7BC
:101180006FF00200F8E700BF544D0000040000209B
:10119000950F0000036803F580514A68C62A38D0CD
:1011A000DA68D203F9D4DB6825481840B0F5806FBF
:1011B00032D017D8402831D008D8102830D0202875
:1011C00030D0003818BF012040007047B0F5807F54
:1011D0002AD0B0F5007F29D0802808BF0B2018BF87
:1011E00002207047B0F5804F22D00AD8B0F5805F5A
:1011F00020D0B0F5005F1FD0B0F5006F08BF06200B
:10120000EDE7B0F5004F19D0B0F5803F08BF0320DF
:10121000E5E76FF001007047112070470A20704722
:101220000C2070470920704708207047072070473E
:101230001420704705207047042070470F20704726
:10124000F0FF010010B5154BD86C28BB1A684FF0A1
:10125000010C91690824C1F30B02482A1A6528BFC2
:10126000482211F4003F5A6508BF00229A65CA035C
:1012700058BFC3E9140001F47002B2F5700F08BF43
:10128000586D0029B8BF0022C3E918C4B8BFC3E92C
:10129000182201225865DA64014810BD6404002058
:1012A000B004002010B50D4B04461A6803610260BB
:1012B0005A6842609A688260094A9A660023836489
:1012C000FFF702FD236803F58051DA68D203FCD4EE
:1012D0004A6A12F4A02FF8D110BD00BF64040020A8
:1012E000644C000008B5044A03699A6603F0F1F8FB
:1012F000BDE80840FFF74EBF504C000010B5044653
:10130000FFF7F0FF0422054BC3F80823FFF702FDA7
:101310002369034A9A660023636410BD0090055058
:10132000644C00002DE9F041DFF81CC1474CDCE9BA
:101330000021D4E90054A14208BFAA42444B454CC5
:101340001B7A25D1B0F1806F22D24001012838BF2D
:101350000120121841F10001CCE90021E21892F8B5
:1013600054201B010C3254F8321004EBC20675688D
:10137000091803F1A04345F1000540F0004003F5D2
:10138000622344F832107560C3F82805BDE8F08187
:10139000314E324FD6E9005ED7E90067AD194EEB0A
:1013A000070E4FF020082E467746C0FB0867E0186E
:1013B000CCE90067B24290F854C071EB0708C7F35C
:1013C00013000CF10C0C1BB20ED304EBCC0244F84E
:1013D0003C6057601B0103F1A04303F56223C3F88F
:1013E0002065C3F82405D1E7521B61EB0E01C82A22
:1013F00004EBCC0871F1000144F83C60C8F80470BB
:10140000E8DA1A0102F1A04202F56222C2F8206570
:10141000C2F82405124A9B001A441368002BB5D069
:101420004FF0FF346FF040430E4DD5E90001844288
:1014300073EB010CF9D3C1F31303B042BB41A5D246
:1014400000231360A2E700BF080300205803002018
:10145000A8020020A000002060030020500300200C
:1014600000210E5040270E502DE9F84F3B4C00272D
:10147000D4E90065911B63EB0500490941EAC061AD
:10148000480180194FF0000645EBD165C4E900051D
:101490003348C0E90023334BC3E90067EFF3118CF5
:1014A000202383F31288BFF36F8FDFF8BCA0DFF82F
:1014B000BC80DAF800002E4D504508BF0020C8F867
:1014C0000010E146D5E90021D8F80030A0B3D0E9FA
:1014D000044C4FEAE37EA3427EEB0C0B05DAE41AE0
:1014E0006CEB0E06C0E9044626E0A21841EBE4715D
:1014F000C0E90467C5E90021D0E9003213605A60F1
:101500000023C0E9003389F31188BFF36F8F83682C
:101510009847EFF31189202383F31288BFF36F8F6D
:10152000D8F80030DAF800001B1B5045CC46C8F84C
:101530000030C6D1D5E9002100209A1841EBE373B1
:10154000C5E90023C8F80000FFF720FBFFF7EAFE1B
:1015500089F31188BFF36F8FBDE8F88F6003002017
:101560005803002050030020B4020020740A002019
:1015700068030020154B9A6A12F0007F9A6A14BF24
:101580001E201D2012F0807F9A6A18BF1F2012F4BF
:10159000801F9A6A18BF022012F4002F9A6A18BF9F
:1015A000212012F4802F9A6A18BF222012F4003FE3
:1015B0009A6A18BF232012F4803F9A6A18BF242029
:1015C0006FEA02426FEA12429A62704700ED00E051
:1015D00010B5184B0246986A9C6A10F4805F14BFDD
:1015E0001720162014F4006F9C6A18BF1820A40559
:1015F00008D5986A000404D51AB19A6A22F4004208
:101600009A6219200B4B9A6A12F4806F9A6A18BF7B
:101610001A20D2050CD49B6A13F4005F18BF1C205B
:10162000044A936A43F47F43936200230B7010BD16
:101630001B20F5E700ED00E010B51C4B0246986A50
:101640009C6A10F0100F14BF1120102014F0080F26
:101650009C6A18BF1220A40709D5586B986A000627
:1016600004D51AB19A6A22F080029A6213200F4BB5
:101670009A6A12F0010F9A6A18BF142012F0200F14
:101680009A6A18BF1520D40658BF9B6A074B9A6AFE
:10169000920642BF5A6A22F400525A629A6A42F093
:1016A000FF029A6200230B7010BD00BF00ED00E046
:1016B0002DE9F743044691460E4629B94FF0FF370E
:1016C000384603B0BDE8F083DFF87C803046D8F8B8
:1016D0000C30B8F808501D44042329460DEB0302D2
:1016E00002F042FC07460028E8D146F60812BDF891
:1016F0000410B8F80A30914223D1BDF8061099427F
:10170000DCD1042330460DEB0302294402F02CFC0B
:101710000028D3D146F60713BDF804209A42CDD154
:101720000023C4E90086A4F80890A372B8F80A3030
:10173000BDF806202B44E360043513446361256142
:10174000BEE7002BE6D0B9E7831200202DE9F04177
:101750001E465A4B0F460360F02104469046FFF7A1
:10176000E3FC054688B9237E57F8252058F8250064
:10177000002B00F09F8048B3A368062B08D904F122
:10178000180002F098FE6FF044052846BDE8F0818D
:10179000B0F1807F06D304F1180002F08CFE6FF0E8
:1017A0003F05F2E7E3691A60E36998606268E369FC
:1017B000D268DA60E3691033E3612369034423618B
:1017C000E3680344E360A3680133A3600135AE42DC
:1017D000C9D1237E002B6DD0D4E903239A4204D0D3
:1017E0002268A36A52685340A3626369069920463F
:1017F0009847E36904F17C02A3F11001914251D8AA
:10180000012243F80C2C53F8042C42F0200243F838
:10181000042C53F8082C42F0005243F8082C236A99
:1018200004F12C02A3F1100191423FD8012243F8A8
:101830000C2C53F8042C42F0200243F8042C53F8EB
:10184000082C42F0005243F8082C636A03F154025A
:10185000BFF35F8F1A4B1A60BFF35F8F626A043267
:10186000BFF35F8F1A61BFF35F8FBFF35F8F0322F8
:101870005A63BFF35F8FBFF35F8F9A63BFF35F8FCE
:101880004FF0FF3504F118066B1C7FF47EAF237E0A
:1018900083B1FFF71DFB421C0546F8D0304602F02D
:1018A0000AFEF1E7103242F80C2CA7E7103242F89A
:1018B0000C2CB9E76FF0200567E700BF344D00003E
:1018C000000001504FF4807313B504460193FFF7F5
:1018D000FBF9FFF70DFC214B01AA1A6011222049E8
:1018E0002048C3E9021240F6110103F110025A60C8
:1018F0001D4AC3E906011A6120321A62212203F14E
:1019000020015961012119485962C3E90A02184AA4
:10191000C2E9011020211460D160BFF35F8F154927
:101920000B60BFF35F8FBFF35F8F0A61BFF35F8F01
:10193000BFF35F8F03234B63BFF35F8FBFF35F8FF3
:101940008B63BFF35F8FFFF7C3FA431C0446FAD0E3
:10195000FFF7E0F9204602B010BD00BFAC03002045
:1019600004000020200000201003002010000020B0
:101970009C030020000001502DE9F043044600269E
:1019800093B00DF11F05DFF8788025F01F051022B8
:1019900001231C4911F8010D013A03440B704FEA71
:1019A0001323F7D1A819FFF78DFFA946074618BBE7
:1019B000D8E90C321036013342F10002302EC8E96A
:1019C0000C32E4D154B104F1300299F8003014F82B
:1019D000011B4B40A24209F8013BF6D12E46084CB0
:1019E0000FCE0FC496E80F00203584E80F0095E86D
:1019F0000F00103484E80F00384613B0BDE8F083C0
:101A00001003002040030020F8B54668B56885B390
:101A100095F8B0406CBB8422214605F1140095F87E
:101A2000B17003F011F82146184A2B6852F837704C
:101A30008F4220D1002740F20D14C3F84471D3F82F
:101A40004421134A934214BF2046DB20FEF7DCFEFC
:101A5000012385F8B030C5F89C30B3680D4A0221E7
:101A6000DB20C3E90327FEF7EFFE02212046FEF745
:101A7000EBFE0020F8BDCAB2920002F58070442A45
:101A800004BF1C501A580131D2E700BFA44D00001A
:101A900000A00D50BD0900000022144B10B51A60C3
:101AA000134B144A00211A60134B144A1A60144B4A
:101AB00013F003020FBF4FF4006402F2FC74C2F192
:101AC00004029B181846224602F0BEFF0D4A0E493A
:101AD000C2E900040160A1F11021203CA1F1EF1145
:101AE00090604460C161D060002010BD700A002089
:101AF000A4020020B5240000A0020020A1250000BF
:101B0000820A0020600A002055AA00FF2DE9F74F45
:101B10005C4C62782746022A237802D1072B00F01A
:101B20008E8013F0010574D1574EDFF86081326862
:101B300042456BD0FFF7C8F8554B01211D60554B4E
:101B400059201D60FEF780FE534D544B2D612B60D4
:101B500003F5C0436B60FFF775FB00284BD02B6D7E
:101B60002846B3F5007FCCBF4FF480634FF4007379
:101B7000AB60FFF797FB2846FFF7B4FB2846FFF75B
:101B8000BDFBF82001A9FFF74FF900285CD0FFF753
:101B9000C1F86FF0920523785A0770D443F001031F
:101BA0009907237019D53E4E4FF02008B1464FF0EB
:101BB000010B4FF0030A3046C6F820B086F81CA08F
:101BC00002F01EFDB8F1010806F12C06F3D12378CE
:101BD00089F8808523F0020323700021314B042211
:101BE0001B686170304898472378DA0744BF23F0B8
:101BF0000103237024E00E2002F0C9FB0546FFF725
:101C000089F8002DC7D12378C6F8008043F001037E
:101C1000237023789E0706D40121214A43F0020352
:101C200082F880152370627823781AB9DD0744BFE3
:101C30000222627058075CBF43F004032370002542
:101C4000284603B0BDE8F08FF92001A9FFF7ECF8B2
:101C500000289CD1F823154D15491648C5F80035C4
:101C6000FFF796F8002892D1F9231248C5F80035FD
:101C7000FFF78EF800288AD1FFF74CF8C3E723F06E
:101C800004038BE7D0040020980200201173650044
:101C90007403002070030020640400200020015021
:101CA000D80400209C020020D4040020009004509E
:101CB0000491045004900450684620F007018D46BA
:101CC00001B5184BD3F80021D2B1BFF35F8F16498D
:101CD0008A6ABFF35F8FBFF35F8F4FF0FF300863F7
:101CE000BFF35F8F0021C3F80011D3F800310F4B11
:101CF000196819680A431A60BDE8014085467047B3
:101D0000D3F808110029F7D0022009490968886032
:101D1000C3F80821D3F80831064B1A681A6842F054
:101D20000102E8E700900550000001507403002014
:101D300064040020700300202DE9F8430746302595
:101D4000514CDFF84891202D2E46A8BF2026DFF801
:101D50004081FEF7B9FFFFF7B3F9BFF35F8FE36888
:101D6000BFF35F8F9B08013BBFF35F8FA360BFF39F
:101D70005F8FBFF35F8F00232364BFF35F8FBFF3D9
:101D80005F8FF1226264BFF35F8FBFF35F8F4FF409
:101D900000726263BFF35F8FBFF35F8FC4F8008090
:101DA000BFF35F8F07E0FEF7B5FF6FF03F052846F2
:101DB000BDE8F8830123BFF35F8F226BBFF35F8F12
:101DC0005108C2F34202052A5BD011F0060FF2D08F
:101DD0001BBBBFF35F8F6268BFF35F8F032AEAD933
:101DE0002C4BBFF35F8FD4F88020BFF35F8FBFF31E
:101DF0005F8F43F8042BBFF35F8F4B45F1D1FFF7A3
:101E00005FF9BFF35F8F2368BFF35F8F43F0010378
:101E1000BFF35F8F2360BFF35F8F3246BFF35F8FE7
:101E2000A368BFF35F8F0133B6EB031FBBD8BFF3CB
:101E30005F8F6368BFF35F8FB6EB830FBAD8BFF3D2
:101E40005F8FD4F88030BFF35F8F3946081D01F8EB
:101E5000013B81424FEA132302F1FF3208D0002AEE
:101E6000F5D1FEF757FFAD1B37447FF46CAF9EE70B
:101E7000002AF6D0BFF35F8FD4F88030BFF35F8FB6
:101E8000E4E7FEF747FF64E700100150201001501F
:101E900001000400101001502DE9F0474B4E96B0A0
:101EA00035680DF14F07804627F01F07002D40F0E1
:101EB0008380474CD4E90C3213433DD0D4E90C3233
:101EC000083342F10002B3F5803F72F1000212D3F1
:101ED0006846FFF731FF002851D16846FFF74CFDF7
:101EE00000284CD10DF805000135302DFAD1002223
:101EF0000023C4E90C238025DFF8D8A0102DA946C3
:101F00004FF0100228BF4FF010090123324911F899
:101F1000010D013A03440B704FEA1323F7D1384601
:101F2000FFF7D0FC58BB85BBD4E90C32013342F13A
:101F30000002C4E90C32E1E7A26B284B9A42DAD0E6
:101F40002B462A46E2540133402BFBD16846FFF76B
:101F5000F3FE80B96846FFF70FFDA0B903460246BD
:101F60000DF803200133302BFAD100230122C4E9FC
:101F70000C231A4BA36302F00AFA00289ED0022019
:101F800016B0BDE8F0870E20F5E74A4650463946C0
:101F900002F062FDD4E90C32013342F10002B5EBEC
:101FA0000905C4E90C32CA44A8D12846FFF7E4FC6D
:101FB0000028E4D1202333603368064A013B52F8FD
:101FC00023200020C8F800203360D9E75C040020FB
:101FD00010030020DC03002040030020B4A5B4A5BA
:101FE000F0B51D46274BDDB0CDE90501CDE9033540
:101FF0002221202310AFCDE90713CDE9093206468F
:102000000323009708AA04A920A8FFF79FFB044612
:10201000002833D120A8FFF745F9249B1A4A20A8AD
:102020009A66F17FEB7FC9094907DB0918BF41F0C8
:1020300080410BAA02F028FB0446E0B92022394671
:102040000B9802F064FA20220C9818A902F05FFAAB
:1020500030460D9902F089FA20220E98A91802F054
:1020600056FA28460F9902F080FA20A802F031FAB9
:10207000FFF790F8044620A8FFF740F920465DB02E
:10208000F0BD00BFD8020020284C000070B5174DED
:102090001446A84226D8C0F5F21303F580539A429D
:1020A00020D8CAB142F20103114DC5F80035A9B1DB
:1020B00002F0D2FCBFF35F8FD5F81834DB0706D4EB
:1020C000C4F308041CB10123AB60BFF35F8F4FF46E
:1020D0000052074BC3F80025002070BDFF2102F01D
:1020E000B3FCE7E76FF01500F7E700BFFF4F1E00F6
:1020F00000E0045010461A46084B10B5994209D822
:10210000C1F5F21404F58054A24203D802F0A4FCF5
:10211000002010BD6FF01500FBE700BFFF4F1E0051
:1021200060292DE9F04104460E462FD80378033389
:1021300003F00303012B21D86FF0210002F027F9EF
:10214000054640B913493246204602F085FC60211D
:10215000104802F07AF92846BDE8F08163783846E5
:102160002B44C8F80035FEF713FE68B90135237813
:10217000C3F382039D42F1D30020DFE70025DFF89F
:1021800018800649064FF2E70220D7E76FF089056D
:10219000E1E700BF000000200090045004910450CB
:1021A0000490045020232DE9F04FD3B016AE06ADB5
:1021B000049003930F4601233046009503AA04A917
:1021C000FFF7C4FA044600BB2B780DF1570123F04A
:1021D00007032B70EB7F03F07F0343F04003EB77A3
:1021E0001F23CA1A013B1470FBD23046FFF75AF87E
:1021F0001A9B3A4A00219A66304604AA02F044FA31
:10220000044630B13046FFF779F8204653B0BDE8B8
:10221000F08F20222946049802F079F920220598AF
:102220000EA902F074F9304602F053F9FEF7B2FF3E
:1022300004460028E6D11A9B9A6EDDE917315468EE
:102240001268D20042BF199A8A1A9B180022ACBBAE
:102250004FF02009DDE91BBA0EAB0AF00301C1F112
:102260000408C84528BFC8462AF00302126804A81B
:10227000049201444246184602F0EEFB0346B9EBD5
:1022800008094344C244E8D19BF8002095F83F3048
:10229000304643EAC21385F83F30FFF72FF80EAB04
:1022A0001A4603CAB24238607960134607F108073C
:1022B000F6D14021284602F0C8F8A6E7E00709D584
:1022C0000B2A01D902F0B8FB52A800EB820040F8BB
:1022D000DC3C01320B446410B9E700BF3C4C000009
:1022E0002DE9F04F814659F8043B8DB0D3F8141313
:1022F00090F8B14000936C4BC9B241F40031804674
:1023000053F83420009801F050FF810305463BD577
:102310001022002108A802F097FB634B08A803EBEA
:10232000C4035B6819460193FEF798FB042303EB93
:10233000C40303934FF0000B5C4B0DF1200A029392
:10234000029A594912F8013B0292039A02EBD30216
:102350008A5C03F0070322FA03F3DA071AD40BF1BD
:10236000010BBBF1040F0AF1040AE9D14FF400316B
:102370000022009801F019FF019908A8FEF76EFBF2
:102380000028D7D125F400350124002D75D10DB0DA
:10239000BDE8F08F464B5B440493DAF80010002947
:1023A000DDD091FAA1F1B1FA81F1049B1C7841EAE8
:1023B00044142046FEF748FB08EB4000878AC80813
:1023C000BB08059301231AF8002001F0070103FA66
:1023D00001F122EA01020AF8002007A80794FEF79B
:1023E000DBF9079A059B203250F82220C7F38206BA
:1023F0005B073746C2F3014223D54846D6B2214691
:102400003A4601F085FF07A80794FEF7C5F9079B38
:10241000203350F82330C3F301439E4207D10021FB
:10242000204601F0E9FE3146204601F0E5FE07A80E
:102430000794FEF7B1F90122079B02FA03F3036246
:10244000ABE7022A0DD10321204601F0D5FE06F0AC
:102450000503012BEBD13A462146484601F058FFCF
:10246000E5E702212046059201F0C6FE032EF2D0D8
:10247000059A032ADBD1022EECE795FAA5F3B3FA0D
:1024800083F3009904FA03F225EA020503F5A27228
:1024900051F8222008EB43034846B3F8A010C2F3DA
:1024A000014201F035FF70E7A44D00008E4F00009F
:1024B0008E4F0000F8B5384D2B68EE68D3B1AB688D
:1024C000C3B1002860D000295ED001FB00F4B4FB4A
:1024D000F0F0884258D1211D56D8A2070CD024F024
:1024E00003020432334603E0586890424ED29B699F
:1024F000002BF9D11846F8BD2246F3E7801A2328AD
:1025000003F120061CD801229A60D3E90512A9B173
:102510008A619A690AB1596951610022C3E90522A9
:102520002B69DB0703D5FEF76BFB002831D1224670
:102530000021304602F088FA0346DBE7EA60E8E76C
:1025400002F1200C03EB0C012038C1E90107CB603C
:102550001869124F086143F80C70A7F11027A7F112
:10256000EF17CF6100B1C160586948619F698F6101
:1025700040B18161886900B1416101201961C3E9FD
:102580000120CAE7E960F5E70023B3E79F68002F61
:10259000B4D0012001F0A4FC600A002055AA00FF7D
:1025A00070B50546002840D03B4E3368002B3CD028
:1025B000B268002A39D0834203D872681344984223
:1025C00002D3012001F08CFCA0F120042046FEF78C
:1025D000F7FA0028F5D155F8183C012BF1D155F840
:1025E000143C45F8180C0BB39A68FAB955F81C2C32
:1025F00002F120015A680A445A6055E905321A610D
:1026000055F8145C2B6903B1DD60202200212046BF
:1026100002F01AFA286908B183684BB333699B0743
:1026200003D5FEF7EDFA0028CBD170BD55F8100C9C
:1026300000282AD0836843BB426863681344203370
:10264000636003692361D4E905239AB9CBB943696F
:1026500063618269A261B3B19C61A36903B15C61EA
:10266000236903B1DC602022002102F0EDF9D5E7F7
:102670002C46E1E79361A369002BE8D062695A61B7
:10268000E5E7F360F7E7F460E7E7F36845F8083C4F
:1026900003B15C61F460C1E7600A00202DE9F743F3
:1026A0000221E420FEF7D0F8854B864CD3F818279A
:1026B00022F44032C3F818272278002A73D1D3F8C5
:1026C000101521F00201C3F81015D3F8101541F0D0
:1026D0000101C3F810150521C3F8A4160421C3F89D
:1026E000AC160723672101F001000244013BD2B27E
:1026F0004FEA5101F7D1052A5AD119464FF0010C82
:10270000704E00256720CFB204E00CFA02F220EAF6
:102710000200013590FAA0F25FFA85FEBE45B2FADA
:1027200082F2F2D3013132750529224482F85470C5
:1027300006F10C06E5D10121002563489A0801FA4B
:1027400002F212F0670F18BF1D500433302BF5D181
:10275000E420FEF759F85A4B5C49D3F8102503F5ED
:10276000C07322F00202C3F8902340F6FF72C3F850
:10277000A82100221A60A3F5807004338B42026006
:10278000F8D101274E4D524E2F663068514BB0FBA9
:10279000F3F05D235843504B3B4398472770D5F8DF
:1027A00010359F0707D56FF0770003B0BDE8F083C1
:1027B0006FF08B00F9E7D5F8103543F00203C5F848
:1027C0001035D5F8482712F0010202BFD5F8483776
:1027D00043F00103C5F84837394BD3F84017D3F815
:1027E00044174800F9D42AB9D3F8482722F0010247
:1027F000C3F84827374A3368B3FBF2F3304A03EB98
:102800004313002B58D0D2F84017D2F84417490090
:1028100017D44FF0FF350195EFF31186202383F392
:102820001288BFF36F8F019B626801A81340019368
:1028300001F0F2FF002806DA86F31188BFF36F8FEC
:10284000B3E7013BDDE70122636802FA00F123EA06
:1028500001036360214B187286F31188BFF36F8FF9
:102860006FF040411F7AA36802FA07F633431C4811
:10287000A360D0E90089454571EB090CF9D31949EA
:1028800028F01F02C9F31303C1E900234FF0FF3002
:102890004FF0FF310C22144BC3E900010020E31973
:1028A00093F8543002FB0343104A1861DA601F7535
:1028B000034BC3F8246378E76FF0730075E700BF3C
:1028C00000200E50A000002000210E50B0210E501C
:1028D000C402002040420F00204C0000A80200204B
:1028E00040270E50600300205803002069140000A8
:1028F0002DE9F041456801F01F04287C88B044EAC6
:102900004014A868002800F0BB80B2F5001F06D173
:10291000214601F0C4FC002008B0BDE8F0816868E1
:102920006E7CB2F5800F46624FF0000603A8039656
:10293000466065D1B3F1007F14BF052304238DF8F1
:102940000C300023CDE906030593EB680DF1070673
:10295000CB4013F0010F5ED1B2F1A07F5BD102A892
:102960000294FDF719FF029B203350F82330DA0759
:1029700051D4AF6832462146384601F0B6FC1630D5
:102980000AD197F8B100404B03EB800001F044FFFF
:102990000028C1DB8DF8070004962146A86805AA27
:1029A00001F054FF0028B7DBAD682146284601F04E
:1029B00036FC80462046FEF747F82F6800F10806EF
:1029C000B8F1000F39D0284601F034FC002834D18A
:1029D00005EB4606B3885B0B990001F58072B85091
:1029E000BA582A680A44D2F8101541F00101C2F819
:1029F00010150122296802FA03F3C1F814338AE79B
:102A0000B3F1C06F05D0B3F1007F14BF01230223DF
:102A100095E7032393E7AF6832462146384601F035
:102A200064FC0028B9D197F8B100174B9DF8071046
:102A300003EB800001F0A0FBAFE7D7F8143305EB00
:102A400046059B035CBF4FF40033C7F81433AB88D3
:102A5000C3F38203042B0FD0052B0FD002A80294DE
:102A6000FDF79AFE029BC168D94001F001010231D5
:102A7000204601F0C1FB4EE70321F9E70221F7E709
:102A80006FF0850048E700BFBC0200202DE9F04F41
:102A9000D50640F2063548BF4FF00309D0F8048050
:102AA00002EA050598F8103058BFC2F3401989B002
:102AB00001F01F06B5F5837F144646EA43168DF8EC
:102AC0000A9044D00DD8062D43D005D8A5B1022DCB
:102AD00012D06FF0150037E0B5F5807FF9D10125F0
:102AE0000AE040F202239D4235D0B5F5407F34D054
:102AF000B5F5007FEDD104250123200303FA01F190
:102B00002DD5D8F804305960D8F808706FBB05A8E7
:102B10000596FDF741FE059B84F4803100EB8300B0
:102B2000D0F88020C1F30041C4F3404343EA41039D
:102B300022F4706243EA890322F00F0243EA05237C
:102B40001343C0F88030002009B0BDE8F08F09259C
:102B5000D2E70825D0E70625CEE70525CCE76203B6
:102B600044BFD8F804309960CEE7314638460DF1BD
:102B70000B0201F0BAFB14F44039019031D1304618
:102B8000FDF762FF04B207EB4404A38ADB0719D503
:102B9000384601F084FB3146384601F040FB40B135
:102BA000A28A3B68520B03EB8203C3F81095C3F86B
:102BB00010953846314601F048FB00233046A38289
:102BC000FDF7FAFD019B002BBDD1D8F808309DF828
:102BD0000B1093F8B100314B03EB800001F0CCFAFD
:102BE000B1E7002303AACDE90623384605AACDE9BB
:102BF0000333059301F02AFE0028A4DB14F400330C
:102C0000D8F808903CD014F4803430460CBF4FF014
:102C1000010A4FF0000AFDF717FF31460746484604
:102C20009DF80AB001F006FB20B9484601F0F7FA1A
:102C3000002888D13FB209EB4707BB8A13F01C0F6D
:102C400002D0002C3FF47FAF05A80596FDF7A4FD48
:102C5000059B00EB8300D0F8803023F4706323F0F1
:102C60000F0343EA8B0343EA4A0343EA052343F095
:102C70000103C0F88030BB8A43F00303BB82A1E7A5
:102C8000CDE9063331460DF10A03484605AA0593FE
:102C900001F0DCFD0028FFF656AF93E7BC020020F0
:102CA000F7B5284B284CD3F82C6304F188070EB9EC
:102CB00003B0F0BD96FAA6F00123B0FA80F083408D
:102CC000DA43224926EA0306231893F85450830076
:102CD00019440C2303FB0543DB6873B3D7E8EF3FCC
:102CE00003EA020CC7E8EECFBEF1000FF6D1C340F5
:102CF000DB0719D5020102F1A04202F56222D2F8E7
:102D00002435D2F82025D1F800C0BCF1000FCED078
:102D10004FF0000CC1F800C00C2101FB05452969EA
:102D20000091E9688847C2E705F10C0304EBC30C86
:102D300054F83320DCF80430E5E70A68002AB6D0FE
:102D40000B60B4E700200E50A000002000210E50C0
:102D50002DE9F04F87B089461D46DDE910738349A0
:102D6000019353681446B1EB132F06464FEA132222
:102D700003D07F4B9A4240F0F2807E4BF31869F10A
:102D80000002032B72F10002C0F0EC80304603A970
:102D900001F017FE80BBB6F1F80349F1FF31022BB9
:102DA00071F10001C0F0CC80BA2004A9FEF73CF814
:102DB00038B19DF80C9019F00F0123D06FF0880006
:102DC0001AE08146049B4FEA132B5FFA83FACA4547
:102DD00005D1BA20FEF706F80028EAD00AE00BEB8E
:102DE00009084046FDF7FEFF48B1404605A9FEF739
:102DF0001BF820B96FF0920007B0BDE8F08F09F121
:102E00000109E4E7BDF80E30C3F3C113013BDBB2A7
:102E1000022B00F29880584A09F03009D25C574BD7
:102E2000B9F1100F43EA020363603AD1544B2360B7
:102E3000204604A9FEF70CF80028DDD1049B9F4230
:102E4000C0F08A8044F2121221880398914204BF94
:102E5000042205F8012B019A214613609DF80C30DD
:102E60002A78C3F3011363F301022A7005AA08BF8D
:102E700007F1FF3701F0F4FA0028BDD12B78059A4D
:102E80006E7062F384032B70238803F44F42B2F513
:102E9000824F50D13946284607B0BDE8F04FFFF7C2
:102EA0003FB99DF80F200B46084636494FEA520CB1
:102EB000BCF1000F21D1059005A801F04EFA039B4B
:102EC000059AC3F38533282BA26093D112F4A05F37
:102ED00047F2421244F2421318BF134623802A4B92
:102EE000E3609DF80E30C3F30213013B052B30D88D
:102EF000DFE803F01F0F17192F1C1CF0010F04D07F
:102F0000062B23D851F8232010434FEA5C0C0133E1
:102F1000CEE7C0236380B9F1000F89D16FF096002E
:102F20006AE7FF23F6E74FF48073F3E74FF4C073CB
:102F3000F0E78023EEE7B3F5885F7FF45DAFA9E7A4
:102F40006FF0860058E76FF0910055E76FF083004F
:102F500052E76FF098004FE76FF089004CE76FF091
:102F60008B0049E76FF0850046E700BF004E800008
:102F70004B4E8000FF3F00807B4F0000004B4E8097
:102F800001108001644D0000000800062DE9F047A3
:102F90004FF0000A9A4DC1F800A0984695F8803588
:102FA00081460E4617468CB0002B00F02481FDF7B9
:102FB00059FE10F18C0F044640F0188195F88035C9
:102FC000002B46D02B4652465546197FF9B13DB9E4
:102FD000022905D1196A19B91979002918BF1D46A6
:102FE0000132202A03F12C03EFD115B96FF08C04C4
:102FF00007E0284601F0BEF9284601F001FB04462F
:1030000030B10023336020460CB0BDE8F0871D4688
:103010002C7F002C40F0E48001232B773560C5F82D
:10302000149032682146536035681C2205A801F0CF
:103030000BFD6869734A00F14043A3F58053934246
:10304000CDE9024408D9284601F0DAFA6FF0870486
:10305000D7E76FF08804D4E76B4B98423ED001333A
:1030600098423BD0023B984238D05FFA80F94846FC
:1030700004A901F0A6FC044618BBBDF81230C3F346
:10308000C113013BDBB2022B22D8604AD25C604BF9
:1030900013436A69069313F0FF030A9200D00A9B58
:1030A0000A93002348461946CDE9003305AAFFF7E5
:1030B0004FFE10F18A0F044615D03068002C00F046
:1030C0008D80306801F09CFA14F18C0F99D1BDE726
:1030D000306801F095FA6FF0860492E74D4B814617
:1030E0000A900693DBE7069B4B491A0AB1EB132FB4
:1030F00002D04A4B9A42EBD102A905A8FDF7A8FEDF
:1031000004460028DDD16C6ADDF808A0E4B9444B20
:1031100051461B680120984703466862D0B103AA54
:103120002146C5F828A04846CDE900A205AAFFF728
:103130000FFE044688B1686A10B1A96AFDF77EFDEA
:103140000023C5E90933BCE76FF08A04306801F059
:1031500057FA56E76FF08C04F8E7039B05ACAB62B7
:103160000FCC0FC594E8070085E8070030680830E9
:1031700001F0F3F833681A7F012A34D0306801F087
:10318000F9F8044600287FF43CAF3568AB68B5F821
:10319000009037EA030319D1B8F1000F2ED0B7F52C
:1031A000006F26D0A7F500535F425F413B46424681
:1031B0004846E96801F0CDF80446F8B93B46484670
:1031C000296901F0C6F800287FF41DAF00232846C6
:1031D000336001F044FA6FF0840414E701F010FA50
:1031E0006FF096040DE702221A77C7E70028CCD0CB
:1031F00009E70127DAE76FF0880404E7002402E713
:10320000D8040020FFDFFF3F02C0FF7F7B4F00009C
:10321000004B4E8003004E80004E80004B4E8000DD
:10322000A4020020F8B50C88054610461A4624F082
:10323000FF03B3F5824F00AF21D18E6835BB16F482
:10324000005F19D0E4B2422C4E8822D106F1080565
:10325000ED08073525F00705ADEB050D412C6D4652
:1032600031D02AD8222C1FD8112C05D92B4B123C37
:10327000E4B2E340DA0705D46FF0860004E0B3F56A
:10328000E24FDAD06FF08500BD46F8BD16F4006F4E
:10329000D7E7F51D412C4FEAD50502D06D00013569
:1032A000D7E7002DD5D1EDE7273CE4B2092CE3D8D0
:1032B0001B4B2341DB07DFD4E4E7422CDCD1FF2E9C
:1032C00003D1184C06E0FF2E03D0B6F5E07FD9D02D
:1032D000D2E7154C4E681549B1EB162FD2D0B3F595
:1032E000824F0FD10146284601F0B6FB6368202BC0
:1032F00010D1D7E907232846B969FEF771FE01F01E
:1033000046F8C1E72946FEF74DFF01F040F80028D6
:10331000ECD0B9E76FF09400B6E700BF21020100DE
:10332000EEFDFFFF144D0000244D0000004E800014
:103330002DE9F04F00230F467A4CA1B0227890423D
:1033400000F0D6800133042B04F11004F6D101F013
:1033500073FB2A68744B9A4240F0DE802B69DA06D0
:1033600000F1DA80E9682A89521880F0D580A168D6
:103370008A4280F0D18013F00C0F18BF23F00C03A9
:10338000D9F8006018BF2B610DF1400A25223146A3
:103390005046FEF78DF9034628BB504609AA0AA9F4
:1033A00000F0F8FDF8B9BDF82430012B1BD13046F0
:1033B0000A9908AA00F0D8FDA8B99DF82030012B81
:1033C00011D14FF6FF7231460AA8FEF771F950B9D4
:1033D0000F9CF0688368DB689847B3684F2BB6D9B9
:1033E000503B9C4200D997E04FF0FF340DF11E0393
:1033F00007AA08A90AA800F0CDFD0028F3DB6ED1CA
:103400000A9A0899BDF81E306AB10B9A5AB10D9A02
:10341000914208D34FF6FF7C444830F8022B6245B6
:10342000E1D09A42F9D1242BE0D1BDF81C30402BD9
:10343000D9D1304610AA00F097FD0028D3D1736887
:103440000493EB68B5F808800593B5F80AB0FEF769
:103450005DFB044600283FD14FF40062344B3548F1
:1034600009A9FFF793FD68BB0999DFF8CCE0D1F813
:1034700004C0D1E90923BEEB1C2F4FEA1C2004D065
:10348000DFF8B8C0604500D0F0B9088800F44F40BC
:10349000B0F5824F18D10598D84440440190049863
:1034A000CDF808A0009001200491FFF7BBFE10F1B9
:1034B000860F8046049907D0084601F0D0F8B8F18D
:1034C000000F05D0013C91E7084601F0C8F8F9E784
:1034D000002808BF0124F5E74FF0FF34F3E7002C84
:1034E00081D1D9F800303C715B683D60BB6015E06C
:1034F000E06800F019FD00283FF429AF104DDFF817
:10350000449020232A4600212046C9F8004000F0BC
:103510002BFD00283FF41DAF4FF0FF34204621B0B3
:10352000BDE8F08FD44C00003DB8F396E44D0000A8
:1035300000080006F230FF7F004E80004B4E8000F6
:1035400083120020780A002001222DE98048804B58
:103550008DB003201A70FDF7AFFA0420FDF7ACFA26
:103560007C4800F0E1FC044690B97B4800F0FCFD8B
:10357000002840F0BE80012002A9FFF7D9FE0028F4
:1035800066D0022002A9FFF7D3FE002860D0FEE734
:10359000724A092113686F4843F400731360704A3C
:1035A000FFF774FA09216B4800F0C9FC0028DCD051
:1035B000DFF8B0A1DFF8B091DAF800004CF2503338
:1035C000B0FBF9F0694E584346F00106B0474FF49E
:1035D0007A75FDF7C3FAA0FB050747F61222002310
:1035E00005FB0171FCF770FF8046DFF868B1092127
:1035F000584600F0A4FC4FF47A770546FDF7AEFA82
:10360000A0FB070C47F61222002307FB01C1FCF7C1
:103610005BFFA0EB0800632808D8002DA5D0DAF8DE
:103620000000B0FBF9F07843B047E0E7002D9CD0F4
:103630004F4BD3F80036002B52D1474800F094FD91
:10364000002857D1022002A9FFF772FE002892D16C
:10365000002348481A4601A9FFF798FC08BB019EC1
:1036600005AC35460FCD0FC495E8070084E8070088
:10367000304600F0F4FFA0B99DF8285001A9284673
:1036800001F09FF968B96A46019805A900F0E8FEC3
:10369000044630B9009E384F3849DFF8E480A6422E
:1036A00048D1344801A9FDF7DDFA40B90198037902
:1036B000002B49D0036A012B46D100F0A1FF314B0A
:1036C000D3F874250F2A42D10022C3F870252E4A60
:1036D000C3F874259DF80C40002C59D001F0ACF9CA
:1036E00003F001041C4800F03FFD18B9002CA9D1DB
:1036F00041E7002401230021174805AA01F076F8CC
:10370000B0B99DF81430012BF0D11022002105A88A
:1037100001F09AF900211D4B19700F4800F024FDAB
:1037200000288FD0012305AA0B4801F06AF889E729
:103730000128E9E72B194046C7F80035FDF728FBBB
:103740000028AED10134AAE700F089FFB7E7FEE711
:10375000810A00202C4B0000484B00009003002001
:1037600011000100C402002040420F00104C000074
:1037700000E01050F230FF7F009004501891045088
:103780001490045000E0045005301800800A002016
:103790005C4E029BB0461B89049A58F8045F5A4F4E
:1037A00013443B60ED4367234FF0010ADFF85C915F
:1037B00005F06705C9F82833002D40F084804FF0EC
:1037C000010AE420FDF72EF8504BA946D3F848270C
:1037D000A84622F00102C3F84827D3F81025DFF8E5
:1037E00030B122F00102C3F81025D3F8102522F0E1
:1037F0000202C3F81025C3F864A0C3F868A03570AE
:103800004FF0FF365BF8044BC4F80863C4F308308C
:10381000FDF708F80021C4F82CA0C4F85081D4F8B2
:103820005031C4F84C81D4F84C31C4F82481D4F818
:103830002431C4F80085D4F804360593D4F80C3646
:103840000693D4F810360793D4F808360893C4F8D2
:103850000466C4F80C66C4F81066C4F8086605ACC3
:1038600054F8040B431C01D0FCF7A6FF01310429D6
:10387000F6D109F10109B9F1030FC3D1BFF36F8F7D
:1038800072B600234FF0FF30224A03F120010133CA
:10389000102B42F82100F8D14FF0FF3105F1600301
:1038A0000135102D42F82310F8D100241A4BC3F82B
:1038B0000444FCF797FF84F30B8884F30A88174BC2
:1038C00038689847FEE7B368E1B20AFA01F202EA03
:1038D000030010F0670F1CBF9343B3607368DB43B2
:1038E00003F06703134209D0002209EB0113C3F868
:1038F0002C25EA0702D5404600F03EFC6D08013455
:103900005AE700BFA00000205C0A002000200E50F3
:10391000804D000000E100E0002008E06100002090
:1039200030B5394B0C465B6800218BB0C3F30803FC
:1039300081F31188BFF36F8F02F07F45B5F17F4FA0
:1039400008D102F00C05082D04D012F0080F0CBFAE
:10395000014621460022033B8DF80720032B03D8A4
:10396000DFE803F00A474B4400209DF80730002BA6
:1039700047D102A900F058FB234BDA6A9007F3D431
:10398000DA6A002AF0DBDA6A5200EDD55A698869F2
:1039900042F480725A61BFF34F8FBFF36F8F5A6941
:1039A00030F8020C22F480725A61BFF34F8FBFF3DC
:1039B0006F8F4DF60272904208D09A6AD2B23AB135
:1039C00001200DF10701FDF737FECEE70868CCE7CF
:1039D0009A6A12F47F4F05D001200DF10701FDF71F
:1039E000F7FDC2E79B6AB3F5803FBDD3FDF7C2FD8B
:1039F000BBE700200DF10701E5E700200DF107010D
:103A0000EDE70BB030BD00BF00ED00E010B572B6C1
:103A1000002484F31388FCF7E5FE23464FF0FF30C3
:103A20000C4A03F120010133102B42F82100F8D198
:103A300000234FF0FF30074A03F160010133102BE0
:103A400042F82100F8D162B6BFF34F8FBFF36F8FFA
:103A500010BD00BF00E100E08FB5974A974B22F000
:103A60007F029A60BFF34F8FBFF36F8FD3F8882028
:103A7000934822F47002C3F88820924A0021121A57
:103A800000F0E2FF9048914A9149121A00F0E4FFD9
:103A90009048914A9149121A00F0DEFF002210B2BC
:103AA00001210132FCF7D0FEB2F5917FF7D1002061
:103AB000FDF702F88A4B03F5006282F3088883F36E
:103AC0000A88E0227D4B874F83F822200022DA7794
:103AD0001A765A769A7683F82020596A41F4E021C2
:103AE000596283F82320596941F0100159615969DD
:103AF00041F480615961596921F00801596110212F
:103B000019614FF0FF319962D962D3F89010090A18
:103B100011F0FE0F29D0BFF35F8F7349C3F89420D3
:103B2000C3F8C01002217148C3F89820C3F89C1054
:103B3000C3F8A0000120C3F8980000F10050C3F8BA
:103B40009C0000F5FF2000F2E230C3F8A0003970BD
:103B5000D3F89000C0F30720814211DB0522C3F89F
:103B60009420BFF34F8FBFF36F8F61493C784D684E
:103B7000002D00F081801F2D1ED86FF015047BE012
:103B8000C3F89810C3F8A0200131E1E72046C3F83C
:103B90009880D3F89C2025F01F0502F01F021543E2
:103BA000C3F89C5000F060FA62E04E45EED15FFA37
:103BB00088F000F059FA5FE0EA06DED10A68D30621
:103BC000DBD1104600F047FA154405F1FF39804675
:103BD000484600F040FA8045CFD118F1160FCCD0FE
:103BE000A045CADA354BC3F89880D3F89C00C3F8D7
:103BF0009880D3F8A06020F01F00824246F01F0694
:103C0000D3D0013AC3F8988022F01F00D3F8A02047
:103C10004E4502F01F0242EA0002C3F8A0202046EF
:103C2000C0D000F021FA10F1160FA6D0234B013EB0
:103C3000C3F89880D3F89C109DF80820013061F3F8
:103C400004028DF80820D3F8A030009525F01F0558
:103C50002E445B08D2B2A6EB090663F3471226F0A6
:103C60001F066946C0B28DF808200396FCF70CFECB
:103C700010F1160F81D0441C01203C70FCF71CFF92
:103C80000220FCF719FF002383F30B88194C1A4D0F
:103C9000A4F5806686F30B8884F309880020044924
:103CA0008847184619461A46A84702488047FEE743
:103CB000094A0000174A00000000000000ED00E083
:103CC00008030020A4120020A00000200803002008
:103CD000E858000060000020A0000020A858000064
:103CE000A816002082120020AAFF4400E14F1E0007
:103CF000C44D0000A81600204935000008B5012376
:103D00002F4AC2F80038A2F55722D2F800242D4AD3
:103D1000D2F84023292A01D0332A02D12A4AC2F8F4
:103D20000C342A48FCF776FE0830FCF773FE0830A6
:103D3000FCF770FE0830FCF76DFE00F5F470FCF740
:103D400069FE234AD2F88C3043F44063C2F88C30C9
:103D50000022D30003F57F0303F54043D3F800149A
:103D600001310AD0D3F8001439B1D3F8001401326C
:103D7000D3F80434402A0B60EBD1164BD3F800265D
:103D8000D20717D4144BD3F8182522F00302C3F836
:103D90001825D3F81825C3F818250D4AD2F88C3009
:103DA00043F44063C2F88C300C4AD2F80034012B43
:103DB000FBD008BD6FF00102C3F80026E2E700BFA8
:103DC0000000125000C0FF000030055000F50E50FA
:103DD00000ED00E000E0105000E0045000900450BE
:103DE00030BFFFF7FDBF00BFEFF30880EFF309819D
:103DF00001B57246FFF794FD01BD00BF002080F3BE
:103E00001488BFF36F8F002080F30A8880F30B883B
:103E10000F4880F30888FFF771FF00200D49086004
:103E2000BFF34F8FFFF7F2FD202080F311880A487F
:103E30004FF40061401880F30988EFF314800221E9
:103E4000084380F31488BFF36F8FFFF705FE00006F
:103E5000A816002094ED00E0A81600201EF0040F24
:103E60000CBFEFF30880EFF30980816911F8021CA1
:103E70000229FFD001B5724600F0BFFD01BD00BFB1
:103E800008B5024800F00CF8FEE700BF924F0000B2
:103E900008B5024B1B689847002008BD7C0A00202B
:103EA000F8B50E4B06461D68AB789B0712D56F68B8
:103EB00016F8014B29462CB90A20B847002805DB23
:103EC000204609E02046B8470028F1DAAB7843F0F5
:103ED0000403AB704FF0FF30F8BD00BFE04D0000B1
:103EE00008B5054B044613B10021AFF3008000F084
:103EF00005F82046FFF7C4FF0000000038B5074D65
:103F0000074C641BA41024B9064B0BB1AFF300801F
:103F100038BD013C55F824309847F4E70000000014
:103F2000000000000000000040B1C368587810F0A5
:103F300001001EBF1878B0FA80F04009704737B50D
:103F40000C460569836801A95B68984748B9019BDD
:103F50002A685A40012303FA04F10A4214BF1846A2
:103F6000002003B030BD7047002930B404460DDB9B
:103F7000806888420AD9401A834207D8E06864689A
:103F8000214484682468A44630BC60476FF0150063
:103F900030BC70472DE9F3411D46036804460E46C8
:103FA000174623B94FF0FF3002B0BDE8F0814368F7
:103FB000002BF7D04FF6FF78D4E904239A4216D2AB
:103FC00023685B8923B1E368934204BF0433236110
:103FD0000423216960680DEB0302FFF7C5FF002889
:103FE000E0D1A37A2BB1D4E903329A4201D3012064
:103FF000DAE72389BDF80610434501F1040203D036
:10400000BDF804C09C450BD115B1BDF804302B8020
:104010002369043333603980236913442361C3E780
:10402000236913442361C7E7012801D1EFF3058316
:10403000EFF31183202383F31288BFF36F8FEFF325
:10404000118283F31288BFF36F8FFEE700210120F6
:1040500008B5FFF7E9FF40E800F313F4803FD8B25A
:1040600008BF6FF01500704730B50C684B6885B01D
:104070000A894D890094013B24F01F04234402F077
:104080001F0242EA451223F01F0369468DF80820FB
:104090000393FCF7F9FB05B030BD10B54468206808
:1040A000FFF742FF70B1206883681B6898470028BB
:1040B00007DBD4E90132134483428CBF6FF0150053
:1040C000002010BD6FF01200FBE7436800205B6822
:1040D000DB680B607047436802EA01005B6821EA15
:1040E00002015860002099607047436800205B68B7
:1040F00059607047436800205B6899607047436867
:104100005A68136821EA03000B4050600020936056
:10411000704710B503695868F8B1884219D19C6896
:104120000868A142586000D19860002008602AB158
:104130005A680A609A68596002B99960002010E0D4
:10414000814206D10868206098688142EDD19C6068
:10415000EBE7044600680028F2D1002AE8D16FF0AE
:10416000150010BD00207047436858687047002054
:10417000704703460020184710B50368CB40DB07A3
:1041800010D401238B40026843EA0201D0E8EF4FCC
:10419000944204D1C0E8EC1FBCF1000FF6D1F2D17B
:1041A000002010BD6FF01500FBE7F0B504460020BD
:1041B00001270546844695420AD1D4F8443133B1EB
:1041C0000023C4F84431D4F8443140F40030F0BD49
:1041D000EBB29B0003F580769B0807FA03F31942C4
:1041E00008D054F806E0BEF1000F03D044F806C032
:1041F000A65918430135DEE707B5019001A8FCF781
:10420000CBFA019B00EB8300D0F8803023F44033DD
:1042100043EA0141C0F8801003B05DF804FB10B51B
:1042200004460846FCF710FC04EB4004A08AC0F3E7
:10423000401010BD10B504460846FCF705FC04EB21
:104240004004A08AC0F3400010BD10B504460846E3
:10425000FCF7FAFB00B204EB4000838ADA051DD5B7
:10426000C3F3432123F4F853838204F1120204F1CF
:10427000960032F8023F13F4807F03D0C3F3432348
:1042800099420BD08242F4D1002204EBC1035A6060
:1042900004F19C00BDE81040FFF76EBF10BD38B5BB
:1042A00004460D46FFF7BBFFC8B12046FFF7C2FF2B
:1042B000A8B90846FCF7C8FB012304EB4000828A3A
:1042C0002168520B9340C1F81833236803EB820333
:1042D000D3F8102522F00302C3F8102538BD284674
:1042E000BDE838400021FFF787BF70B5044615468A
:1042F000FFF795FF48B10846FCF7A6FB04EB400426
:104300000020A38A5B0B2B7070BD6FF01500FBE7DC
:1043100070B5044608461646FCF796FB083034F89C
:1043200010300D46DA0509D5C3F3432304EBC3026D
:104330003146284654F8333052689847A3682BB169
:1043400031462846E268BDE87040184770BD00203D
:104350007047531A5842584170470368D90444BF04
:1043600043F48063036003689A0444BF43F400632A
:1043700003607047037F022B06D1036A5A1C03D0E7
:1043800001330362002070476FF0960070470A28DF
:1043900040DCC31C22DA10F1400F47D010F13F0F70
:1043A0002BDA10F1410F44D010F1550F44D010F129
:1043B000490F08BF6FF0840018BF6FF08600704788
:1043C00009282AD8DFE800F0052929081629382904
:1043D000292F6FF09800704700207047C31C0D2BE9
:1043E0001BD8DFE803F0072F1A1C1A1A1A1A1A1A18
:1043F0001D1A1A1D6FF08500704710F1210F1ED095
:104400000BDB10F1200F1DD010F1100F08BF6FF063
:104410009400D1E764380928D2D96FF0860070473C
:104420006FF0940070476FF08C0070476FF084005D
:1044300070476FF0890070476FF0930070476FF01E
:10444000880070476FF092007047002382B001909F
:104450001846019AD05401339942FAD102B07047FC
:10446000C0F30253013B10B5052B21D8DFE803F060
:10447000030E0E0E1E16012300F0300020284FF010
:104480000000136004BF0233136010BD0B8844F2B8
:1044900012118B420CBF04230223EDE70B8844F278
:1044A00012118B4214BF03230623E5E70323E3E73E
:1044B0006FF09800E9E710B5044618B9BDE8104060
:1044C000FCF728BC03781BB1FCF724FC0023237005
:1044D00010BD03699B6EDB682BB1026843F4202397
:1044E00043F400631360BFF35F8F032203689A6095
:1044F000704713B504461046226801921A4601AB74
:10450000184400F0A9FA019B236002B010BD2DE908
:10451000F04110F0030705460E4614460BD0C7F1D4
:10452000040843463A4620F00300FFF7E2FF043C4C
:10453000454446443C44324624F00303291F334497
:104540009A420BD114F003030DD024F00304311967
:1045500028190022BDE8F041FFF7CBBF52F8040B49
:1045600041F8040FECE7BDE8F08137B50C4605468D
:10457000014620222046FFF7CAFF1F3424F0030221
:104580001168EB7F04F00304019104F1080103F0CA
:104590007F030DEB010404F8043C019B136003B09E
:1045A00030BD0023F7B510F0030605460C46019315
:1045B0000BD0C6F104073B46324601A920F00300A8
:1045C000FFF797FF043C3D4434440021284624F083
:1045D000030200F039FA14F0030306D024F00304B8
:1045E000002201A92819FFF784FF03B0F0BD08B528
:1045F000436800215A68186800F026FA002008BDB8
:1046000038B50446406A10B1A16AFCF717FB237F56
:10461000012B0FD0023B012B0FD8236A012B0CBFBB
:1046200000256FF096052C220021204600F00CFAA0
:10463000284638BD236A002BF1E76FF09605F2E7B4
:1046400008B5FDF763FA48B1002383F31188BFF37F
:104650006F8F0423184602DF6FF0040008BD034685
:1046600068B1017F8A1E012A0BD80329026A03D18F
:10467000012A01D1FFF7C4BF1AB1013A1A62002022
:1046800070476FF0960070472DE9F04F0369D0F83E
:104690004890D3F868800446D0E9017B0E469246E4
:1046A000D8F8085085B0B9F1000F06D0FCF726FE07
:1046B0001025284605B0BDE8F08FFCF7C3FD436820
:1046C0001F2B04DC2046FCF719FE0D25F1E7202303
:1046D000E360D8F8103046EA030123699B6E1B683B
:1046E000194341F4C001236841F4F8515960D8F8E6
:1046F0000030DB0003D5E368ABEB03031F44D5B9FF
:10470000D8F81030002BD4D0FCF79CFD4369EBB1F6
:104710006846FDF7C1FB064640B9DDE900321343A8
:10472000F6D001A8FDF7B8FB064690B12046FCF78D
:10473000E5FD3546BDE7EE0748BF4AF829704FEA68
:10474000650548BF09F101095F44D8E76FF002062B
:10475000ECE7E068D4E901672469DDE90023A46E91
:10476000CDE90223246806EB0716E400D2B2A0F1DB
:1047700008014FEA136319D502F03F0242F020020C
:1047800043F001038DF808208DF80F3011B1301A75
:10479000FFF707FF083E082230460DEB0201FFF746
:1047A000B6FE08216846FFF750FE82E703F03F039C
:1047B00042F0010243F0200308288DF808208DF80C
:1047C0000F30A6EB0706E6D006F10800FFF7E9FE7A
:1047D000E1E7084611461A4609B1FDF757BC6FF0EC
:1047E0001500704708460021FDF750BC10B504467F
:1047F0001046626814681A46214400F02DF9002022
:1048000010BD10B50C461146426810681A46204487
:1048100000F022F9002010BD024610B5116891B1D8
:10482000B1FA81F3C3F11F000123834021EA03039E
:10483000D2E8EF4F8C4204D1C2E8EC3FBCF1000F4C
:10484000F6D1EBD110BD6FF00B00FBE72DE9F7437C
:10485000174604460846FCF7F7F8D7F800800E46DE
:104860000546B8F1000F26D02046FFF7E3FC40B123
:104870002046FFF7D4FC20B16FF0150003B0BDE86F
:10488000F08301A80196FBF787FF019B98F80020B1
:1048900000EB8300D0F8803023F00F0343EA82035B
:1048A0002AB2C0F8803004EB4202938A23F002035C
:1048B00043F0010393827B68A3B13146204693F80D
:1048C0000080D3F80490FFF7B5FC80B1B9F1000F78
:1048D000D2D12AB204EB4202938A23F01C0343EAAA
:1048E00088039382BB68002B46D10020C6E728B21C
:1048F00004EB4000838A23F4604323F02003838287
:10490000B9F1000FE5D0B8F1030FB5D87B68216885
:104910005B6893F800C001EB8C01B8F1000F04D183
:10492000C1F81085C1F81085D3E7D1F8102522F021
:104930000302C1F81025226802EB8C03D3F810257E
:1049400022F4473222F47C72C3F8102541F6F0724B
:10495000D3F8101502EA061242EA08420A43C3F8E5
:10496000102504EB4C03A3F8A060838A43EA4C3380
:1049700043F020038382ACE73146D3E90078204638
:10498000FFF763FC002FB0D063689F4206D004F1AC
:104990009C00FFF741FF002804DA6FE7A368984501
:1049A000F5D1002004EBC003C3E901782DB204EB7C
:1049B0004505AB8AC0B243EA402343F48073AB821F
:1049C00093E713B50C46FCF72FFAC31C0FD0013048
:1049D00009D004224FF0FF3321460DEB0200019372
:1049E00000F047F830B96FF08B0002B010BD6FF0E7
:1049F0008400FAE70020F8E7704708B50146006830
:104A0000FFF712FBFFF7ECB961B662B680F31188CD
:104A1000BFF36F8F7047EFF31180202383F3128869
:104A2000BFF36F8F7047002383F31188BFF36F8F3D
:104A30000423184602DF704708B5FFF7F4FF08B5F6
:104A4000FFF726FA002008BD02440346934200D136
:104A5000704703F8011BF9E70A44431E914200D155
:104A6000704710B511F8014B914203F8014FF9D18D
:104A700010BD0139024410B5904201D1002005E07B
:104A8000037811F8014FA34201D0181B10BD01306B
:104A9000F2E7000068BAFF7F01000000D1080000C3
:104AA000000000009D260000000000000000000043
:104AB000F44A0000000000002C4B00000000000041
:104AC000104B00006F4100000000000000000000DB
:104AD000484B000000000000644B0000414600000D
:104AE00000000000991A0000000000000000000013
:104AF000804B0000594F0000784C0000B44B000080
:104B0000FC02002078030020091A000000000000C9
:104B1000644F00008C4C0000B44B0000FE020020EB
:104B200084030020091A0000000000006F4F0000FD
:104B3000A04C0000B44B00000003002090030020B4
:104B4000091A000000000000264F0000B44C0000CD
:104B5000D84B000002030020000000006541000067
:104B600000000000404F0000000000009C4B0000CF
:104B70000603002000000000A9090000000000005A
:104B8000344F0000BC4C0000000000000403002073
:104B9000800A00209B40000000000000F52000007B
:104BA000D3470000E547000091090000810900009B
:104BB000990900008D2A0000CB400000D74000007A
:104BC000EB400000F5400000FF400000F12800002D
:104BD000134100000000000069410000ED470000A3
:084BE00003480000EF4500004E
:104BF00000A0105000820D500004055000860D509A
:104C00000338FDD8704700000000000000000000DD
:104C10000338FDD8704700000000000000000000CD
:104C20000338FDD8704700003D0000000000000080
:104C3000C00E000000000000000000003B0000006B
:104C4000000C000000030000000000000000000352
:104C50000F0000000000000000000000060000003F
:104C60000000000000000000000000000000000044
:104C70000000000000000000FFFFFFFF00820D5059
:104C8000300100200000000001000000FF070000CC
:104C900000040550000000000000000002000000B9
:104CA000FF03000000A01050E401002000000000FD
:104CB0000000000000E5105001000000484B00001B
:104CC00000000000010000000000000000000000E3
:104CD0000000000000000000000000000060000074
:104CE000644B0000010000000060000000E01B00B9
:104CF000644B00000200000000401C0000D00100D6
:104D0000644B00000300000000101E000040000083
:104D1000644B00000000600020000000044E000012
:104D2000C10000000000500020000000C54E00003F
:104D300061000000200600000002000000040000E6
:104D400040000000800000004000000090000000D3
:104D5000291100001300000063000000A300000000
:104D60000300000000010100000202000014000026
:104D700000280000004000000100000002000000C8
:104D800000D0045000600C50004010509C4A0000BD
:104D9000AC4A0000C44A0000CC4A0000F44A0000BB
:104DA000F44A0000080000000A00000004000000AF
:104DB00001000000E50100000010000010000000EC
:104DC00001FF00006000002040000000060001001C
:104DD00000A0105000820D500004055000860D50B8
:104DE000C802002001000200100011001200200083
:104DF0002100220023002400250030003100320071
:104E00003300FFFFEDFFFFFFFFFFFFFFFFFFFFFF8F
:104E1000FFFFFFFFFFFFFFFFFFFFFFFFFFFFFFFFA2
:104E2000FFFFFF7FEDD3F55C1A631258D69CF7A203
:104E3000DEF9DE14000000000000000000000000A9
:104E4000000000101AD5258F602D56C9B2A72595F0
:104E500060C72C695CDCD6FD31E2A4C0FE536ECD88
:104E6000D3366921586666666666666666666666F5
:104E700066666666666666666666666666666666D2
:104E800066666666A3785913CA4DEB75ABD8414187
:104E90004D0A700098E879777940C78C73FE6F2BC4
:104EA000EE6C0352B0A00E4A271BEEC478E42FAD7F
:104EB0000618432FA7D7FB3D99004D2B0BDFC14FA1
:104EC0008024832B00EDFFFFFFFFFFFFFFFFFFFFAD
:104ED000FFFFFFFFFFFFFFFFFFFFFFFFFFFFFFFFE2
:104EE000FFFFFFFF7F066D070000000000000000CD
:104EF00000000000000000000000000000000000B2
:104F00000000000000EDD3F55C1A631258D69CF740
:104F1000A2DEF9DE14000000000000000000000026
:104F200000000000100067707265677265743140A0
:104F300035303000626F6F745F6D6F6465403000B4
:104F40007272616D2D636F6E74726F6C6C657240FE
:104F50003530303465303030006770696F40643808
:104F6000323030006770696F403530343030006760
:104F700070696F4031306130303000010302000A47
:104F80002A354242424242424242424242420001A9
:104F90000203657869740000000000004D400000C5
:104FA000000000004D400000000000004D400000E7
:104FB000000000004D400000000000004D400000D7
:104FC000000000004D400000000000004D400000C7
:104FD000000000004D400000000000004D400000B7
:104FE000000000004D400000000000004D400000A7
:104FF000000000004D400000000000004D40000097
:10500000000000004D400000000000004D40000086
:10501000000000004D400000000000004D40000076
:10502000000000004D400000000000004D40000066
:10503000000000004D400000000000004D40000056
:10504000000000004D400000000000004D40000046
:10505000000000004D400000000000004D40000036
:10506000000000004D400000000000004D40000026
:10507000000000004D400000000000004D40000016
:10508000000000004D400000000000004D40000006
:10509000000000004D400000000000004D400000F6
:1050A000000000004D400000000000004D400000E6
:1050B000000000004D400000000000004D400000D6
:1050C000000000004D400000000000004D400000C6
:1050D000000000004D400000000000004D400000B6
:1050E000000000004D400000000000004D400000A6
:1050F000000000004D400000000000004D40000096
:10510000000000004D400000000000004D40000085
:10511000000000004D400000000000004D40000075
:10512000000000004D400000000000004D40000065
:10513000000000004D400000000000004D40000055
:10514000000000004D400000000000004D40000045
:10515000000000004D400000000000004D40000035
:10516000000000004D400000000000004D40000025
:10517000000000004D400000000000004D40000015
:10518000000000004D400000000000004D40000005
:10519000000000004D400000000000004D400000F5
:1051A000000000004D400000000000004D400000E5
:1051B000000000004D400000000000004D400000D5
:1051C000000000004D400000000000004D400000C5
:1051D000000000004D400000000000004D400000B5
:1051E000000000004D400000000000004D400000A5
:1051F000000000004D400000000000004D40000095
:10520000000000004D400000000000004D40000084
:10521000000000004D400000000000004D40000074
:10522000000000004D400000000000004D40000064
:10523000000000004D400000000000004D40000054
:10524000000000004D400000000000004D40000044
:10525000000000004D400000000000004D40000034
:10526000000000004D400000000000004D40000024
:10527000000000004D400000000000004D40000014
:10528000000000004D400000000000004D40000004
:10529000000000004D400000000000004D400000F4
:1052A000000000004D400000000000004D400000E4
:1052B000000000004D400000000000004D400000D4
:1052C000000000004D400000000000004D400000C4
:1052D000000000004D400000000000004D400000B4
:1052E000000000004D400000000000004D400000A4
:1052F000000000004D400000000000004D40000094
:10530000000000004D400000000000004D40000083
:10531000000000004D400000000000004D40000073
:10532000000000004D400000000000004D40000063
:10533000000000004D400000000000004D40000053
:10534000000000004D400000000000004D40000043
:10535000000000004D400000000000004D40000033
:10536000000000004D400000000000004D40000023
:10537000000000004D400000000000004D40000013
:10538000000000004D400000000000004D40000003
:10539000000000004D400000000000004D400000F3
:1053A000000000004D400000000000004D400000E3
:1053B000000000004D400000000000004D400000D3
:1053C000000000004D400000000000004D400000C3
:1053D000000000004D400000000000004D400000B3
:1053E000000000004D400000000000004D400000A3
:1053F000000000004D400000000000004D40000093
:10540000000000004D400000000000004D40000082
:10541000000000004D400000000000004D40000072
:10542000000000004D400000000000004D40000062
:10543000000000004D400000000000004D40000052
:10544000000000004D400000000000004D40000042
:10545000000000004D400000000000004D40000032
:10546000000000004D400000000000004D40000022
:10547000000000004D400000000000004D40000012
:10548000000000004D400000000000004D40000002
:10549000000000004D400000000000004D400000F2
:1054A000000000004D400000000000004D400000E2
:1054B000000000004D400000000000004D400000D2
:1054C000000000004D400000000000004D400000C2
:1054D000000000004D400000000000004D400000B2
:1054E000000000004D400000000000004D400000A2
:1054F000000000004D400000000000004D40000092
:10550000000000004D400000000000004D40000081
:10551000000000004D400000000000004D40000071
:10552000000000004D400000000000004D40000061
:10553000000000004D400000000000004D40000051
:10554000000000004D400000000000004D40000041
:10555000000000004D400000000000004D40000031
:10556000000000004D400000000000004D40000021
:10557000000000004D400000000000004D40000011
:10558000000000004D400000000000004D40000001
:10559000000000004D400000000000004D400000F1
:1055A000000000004D400000000000004D400000E1
:1055B000000000004D400000000000004D400000D1
:1055C000000000004D400000000000004D400000C1
:1055D000000000004D400000000000004D400000B1
:1055E000000000004D400000000000004D400000A1
:1055F000000000004D400000000000004D40000091
:10560000000000004D400000000000004D40000080
:10561000000000004D400000000000004D40000070
:10562000000000004D400000000000004D40000060
:10563000000000004D400000000000004D40000050
:10564000000000004D400000000000004D40000040
:10565000000000004D400000000000004D40000030
:10566000000000004D400000000000004D40000020
:1056700030010020E1220000000000004D40000049
:10568000000000004D400000000000004D40000000
:10569000000000004D400000000000004D400000F0
:1056A000000000004D400000000000004D400000E0
:1056B000000000004D400000A12C000073410000DC
:1056C000000000004D400000000000004D400000C0
:1056D000000000004D400000000000004D400000B0
:1056E000000000004D400000000000004D400000A0
:1056F000000000004D400000000000004D40000090
:10570000000000004D400000000000004D4000007F
:10571000000000004D400000000000004D4000006F
:10572000000000004D400000000000004D4000005F
:10573000000000004D400000000000004D4000004F
:10574000000000004D400000000000004D4000003F
:10575000000000004D400000000000004D4000002F
:10576000000000004D400000000000004D4000001F
:10577000000000004D400000000000004D4000000F
:10578000000000004D400000000000004D400000FF
:10579000000000004D400000000000004D400000EF
:1057A000000000004D400000000000004D400000DF
:1057B000000000004D400000000000004D400000CF
:1057C000000000004D400000000000004D400000BF
:1057D000000000004D400000000000004D400000AF
:1057E000000000004D400000000000004D4000009F
:1057F000000000004D400000000000004D4000008F
:10580000E4010020E1220000000000004D40000003
:10581000000000004D400000000000004D4000006E
:10582000000000004D400000000000004D4000005E
:10583000000000004D400000000000004D4000004E
:10584000000000004D400000000000004D4000003E
:10585000000000004D400000000000004D4000002E
:10586000000000004D400000000000004D4000001E
:10587000000000004D400000000000004D4000000E
:10588000000000004D400000000000004D400000FE
:10589000000000004D400000000000004D400000EE
:1058A000000000004D4000002DE9F041036883F343
:1058B0000888002383F31488BFF36F8FBFF36F8FC3
:1058C000DFF818C0064F4FF00058D0F804E0A7EBFF
:1058D0000C0770460047BDE8F08100BF6000002063
:1058E000A000002000000000000000006700000091
:1058F00000000000000000000000000000000000A8
:105900000000000000000000000000000000000097
:105910000000000000000000000000000000000087
:105920000000000000000000000000000000000077
:105930000000000000000000000000000000000067
:105940000000000000000000000000000000000057
:105950000000000000000000000000000000000047
:105960000000000000000000000000000000000037
:10597000000000000000000000A00D50000000002A
:105980000000000000000000000000000000000017
:105990000000000000000000000000000000000007
:1059A00000000000000000000000000000000000F7
:1059B00000000000000000000000000000000000E7
:1059C00000000000000000000000000000000000D7
:1059D00000000000000000000000000000000000C7
:1059E00000000000000000000000000000000000B7
:1059F00000000000000000000000000000000000A7
:105A00000000000000000000000000000000000096
:105A10000000000000000000000000000000000086
:105A200000000000000000000000000000C0105056
:105A30000000000000000000000000000000000066
:105A40000000000000000000000000000000000056
:105A50000000000000000000000000000000000046
:105A60000000000000000000000000000000000036
:105A70000000000000000000000000000000000026
:105A80000000000000000000000000000000000016
:105A90000000000000000000000000000000000006
:105AA00000000000000000000000000000000000F6
:105AB00000000000000000000000000000000000E6
:105AC00000000000000000000000000000000000D6
:105AD00000000000000000000000000000010000C5
:105AE00067742000494A0000673F00004F430000F0
:105AF0006914000000000000FF000000B402002054
:105B0000B4020020FF0000000F0000000090D0034E
:105B1000000000003F4A00000000000000000000FC
:105B200053696745643235353139206E6F204564DD
:105B3000323535313920636F6C6C6973696F6E7300
:105B40000100000000000000000000000000000054
:045B500015E015E067
:106000003DB8F39600000000000800005879000039
:106010000000000000000000000000000000000080
:106020000000000000000000000000000000000070
:106030000000000000000000000000000000000060
:106040000000000000000000000000000000000050
:10680000581A0020957700005FBC000081770000D7
:106810008177000081770000817700008177000098
:10682000000000000000000000000000F9780000F7
:10683000817700000000000091780000817700005F
:106840008D7A00008D7A00008D7A00008D7A00002C
:106850008D7A00008D7A00008D7A00008D7A00001C
:106860008D7A00008D7A00008D7A00008D7A00000C
:106870008D7A00008D7A00008D7A00008D7A0000FC
:106CC0008D7A00008D7A000053B94AB9002908BFB7
:106CD00000281CBF4FF0FF314FF0FF3000F00CB820
:106CE000ADF1080C6DE904CE00F008F8DDF804E021
:106CF000DDE9022304B07047704700BF2DE9F0477B
:106D000086468C460846089E154674461946002B52
:106D100040F0C1808542B2FA82F245D94AB1C2F14F
:106D2000200300FA02FC954094402EFA03F343EA54
:106D30000C0C4FEA154EA8B2230CBCFBFEF80EFB60
:106D400018CC08FB00F943EA0C43994528D9EB1805
:106D500008F1FF3704D2994502D9A8F102072B4464
:106D6000A3EB0903A4B2B3FBFEFC0EFB1C330CFB2C
:106D700000F044EA0344A04214D92C190CF1FF336B
:106D800004D2A04202D9ACF102032C44241A43EAF3
:106D900007401EB1D440002334607360BDE8F08723
:106DA0004746DDE76346F1E792BB431B01214FEA0B
:106DB000154EAFB2200CB3FBFEFC0EFB1C330CFBDC
:106DC00007F840EA0343984561D9EB180CF1FF300E
:106DD00004D2984502D9ACF102002B44A3EB08037E
:106DE000A4B2B3FBFEFC0EFB1C330CFB07F744EA1A
:106DF0000344A7424DD92C190CF1FF3304D2A7420A
:106E000002D9ACF102032C44E41B43EA0040C0E782
:106E1000C2F120039540944020FA03F12EFA03F3C7
:106E20004FEA154E9040AFB20343B1FBFEFC0EFBA0
:106E30001C10190C0CFB07F841EA0041884522D9C7
:106E400069180CF1FF3004D2884502D9ACF1020078
