:1000000018090020250C0000F7400000110C00002A
:10001000110C0000110C0000110C0000110C00006C
:100020000000000000000000000000005D0C000067
:10003000110C000000000000090E0000110C00006F
:100040007D0E00007D0E00007D0E00007D0E000084
:100050007D0E00007D0E00007D0E00007D0E000074
:100060007D0E00007D0E00007D0E00007D0E000064
:100070007D0E00007D0E00007D0E00007D0E000054
:1004C80053B94AB9002908BF00281CBF4FF0FF31B3
:1004D8004FF0FF3000F00CB8ADF1080C6DE904CE18
:1004E80003F0CEFADDF804E0DDE9022304B070473A
:1004F800704700BFF8B51A4C204604F0CBF9054602
:1005080050B32669A2683368172123F400033360C7
:10051800136820464FF42022984700281EDB274600
:1005280033681B0252BF2B4685F00103DBB283B14F
:10053800A368DB684FF400013846984700280DDBB4
:1005480085F00105EDB2002147F6122004F03BFAD0
:10055800E6E7A3681B69EDE74FF0FF30F8BD00BF81
:10056800A04D0000014B1B68184700BF90000020F9
:1005780030B5044685B00D4610220021684604F0C7
:10058800C7FA02238DF80230044B2A4621466846F2
:10059800019303F01DF805B030BD00BF6D050000E4
:1005A8002DE9F84FB0F81890044619F008080DD056
:1005B80001290CBF49F0100949F02009A0F818904A
:1005C80082F31188BFF36F8FBDE8F88F09F0070930
:1005D800022907D1204603F0BAFC0028F0D00128F0
:1005E800238B4AD16769238B002F15DA2568C4E964
:1005F800008823F0070343F0010323830026238B9D
:1006080003F0070ACA4502D0A168002956D10DB9DE
:10061800002E6CD0002152E003F00701481F01288A
:100628001CD823F00703062925689BB2C4E9008873
:1006380002D15DB943F002032383204603F087FC0F
:100648000028DBD0238B43F02003D6E72946608BB4
:100658000130608309680029F9D1EBE704290AD140
:1006680023F0070399B22183204603F070FC10B1F0
:1006780041F0200121830025C0E7032809D1216921
:1006880023F007030E6843F00603002523832F4653
:10069800B5E7042806D1216923F007034E6843F023
:1006A8000403F2E7052806D1216923F007038E68C1
:1006B80043F00503E9E700252E46E8E7012143F06A
:1006C8000803238382F31188BFF36F8FF1B97DBBD1
:1006D80016B120492046B047EFF31182202383F357
:1006E8001288BFF36F8F238B23F008032383238B98
:1006F800D90627D5012123F010032383B4F81890D5
:1007080009F0070900297FF463AF59E7A1680029B8
:10071800DDD0D1F80090D1F804B03B4652462046CF
:10072800D847B9F1000FD2D04946D9F80090F2E77E
:10073800D5F8009029463B465246204603F023FC54
:100748004D46C4E713F020011EBF23F02003238386
:100758000221D3E7BB3F0000014B03600020704734
:100768008857000008B50348034A0021121A03F00D
:10077800B6FC08BD2802002018050020074808B567
:10078800074A0849121A03F0ACFCBDE808400648BD
:10079800064A0749121A03F0A4BC00BF0000002053
:1007A80028020020345D0000000000200000002026
:1007B800345D000038B505460C4699B1D1E90123EE
:1007C8000F48096803F0ACFBD4E90423E1680D483D
:1007D80003F0A6FBE1690C4803F0A2FBA1690B48F2
:1007E80003F09EFB012D05D1EFF305810848103970
:1007F80003F096FB21462846BDE8384002F0EAB8E7
:100808006458000094580000C4580000D4580000F0
:100818000359000030BFFFF7FDBF00BF70B5274C7C
:10082800064627480D4603F07BFBA26AD00639D559
:10083800244803F075FB1120A36A190703D5224841
:1008480003F06EFB12201D4CA36A9A0707D51F48B8
:1008580003F066FB616BA36A1B0625D41320174CB3
:10086800A26AD60703D51A4803F05AFB1420A36AD4
:100878009C0603D5174803F053FB15200F4B9A6AC3
:10088800D10658BF9A6A9A6A920642BF5A6A22F4F7
:1008980000525A62094A936A43F0FF0393620023A5
:1008A8002B7070BD1020C7E70B4803F039FB002EF2
:1008B800D4D0A36A23F08003A362CFE700ED00E061
:1008C800A5590000BC590000F0590000045A000066
:1008D800345A0000545A00001D5A000070B5254CC7
:1008E800064625480D4603F01BFBA26AD1042DD508
:1008F800224803F015FB1720A36A1A0503D52048E0
:1009080003F00EFB18201B4CA36A9B0507D51D4856
:1009180003F006FBA16BA36A180419D41920154C1F
:10092800A36A590503D5184803F0FAFA1A20A36AEE
:10093800DA0517D5154803F0F3FA1B200D4A936A18
:1009480043F47F43936200232B7070BD1620D3E7D6
:100958000F4803F0E5FA002EE0D0A36A23F4004321
:10096800A362DBE7A36A9B04E8D50A4803F0D8FA38
:100978001C20E3E700ED00E0175900002E590000A5
:10098800F059000040590000705900008C590000CF
:100998005A590000545A000010B5204C204803F062
:1009A800BFFAA26A910137D51E4803F0B9FA1E2092
:1009B800A36ADA0103D51C4803F0B2FA1F20174CCA
:1009C800A26AD30203D5194803F0AAFA0220A36A3F
:1009D8001C0303D5164803F0A3FA21200F4CA26A82
:1009E800510303D5134803F09BFA2220A36A9A0304
:1009F80003D5114803F094FA2320084CA36ADB03BB
:100A080003D50E4803F08CFA2420A36A6FEA034347
:100A18006FEA1343A36210BD1D20C9E700ED00E093
:100A2800845A00009D5A0000B15A0000CC5A0000B8
:100A3800F75A0000165B00003C5B0000575B0000A3
:100A48002DE9F0415D4B8AB0D3F804800026C8F345
:100A5800080786F31188BFF36F8F02F07F43B3F165
:100A68007F4F06D102F00C03082B04D1544803F041
:100A780057FA354604E012074EBF0D4605460126D3
:100A88000023F91E8DF807301C46092900F28580DD
:100A9800DFE801F005797D76838383838381494884
:100AA800464F03F03DFA8DF80740FC6A14F0020443
:100AB80003D0454803F034FA07E0FB6A002B01DA5B
:100AC8004248F7E7FB6A5B0001D4002329E040486D
:100AD80003F026FA7B69AA6943F480737B61BFF34C
:100AE8004F8FBFF36F8F7B6932F8022C23F480732A
:100AF8007B61BFF34F8FBFF36F8F4DF602739A423E
:100B08000AD0BB6A13F0FF0F2BD001200DF10701AB
:100B1800FFF784FE034604E029682E4803F000FA34
:100B28002B689DF80720CAB902AC05F120072246B8
:100B380028686968083503C2BD421446F7D1099A86
:100B4800002E36D0C2F3080121B96FEA52226FEAAB
:100B58004222099202A91846FFF72CFE0AB0BDE806
:100B6800F081BB6A13F47F4F05D001200DF1070116
:100B7800FFF7B4FECEE7BB6A1B0C1B04002BA4D006
:100B8800FFF70AFFC6E70DF107010020C0E70DF1E6
:100B980007010020ECE710488CE7104B18F4F87FA9
:100BA8000F49A7F1100218BF19460E4803F0B8F90B
:100BB8008BE722F4FF7222F00102CAE700ED00E0A1
:100BC800B15B0000DD5B0000F55B0000175C000016
:100BD800265C0000465C0000635C0000985B000037
:100BE800835B0000885C0000064B5A6942F01002E3
:100BF8005A615A6942F480625A615A6922F00802BD
:100C08005A61704700ED00E0EFF30880EFF30981C7
:100C180001B57246FFF714FF01BD00BF0B4880F312
:100C2800088801F019F8202080F3118808484FF44B
:100C38000061401880F30988EFF31480022108430B
:100C480080F31488BFF36F8F00F05AF8180900205A
:100C5800580A00201EF0040F0CBFEFF30880EFF3D2
:100C68000980816911F8021C0229FFD001B572467A
:100C780003F039FA01BD00BF03B2002B08DB0122E3
:100C880000F01F0002FA00F0024A5B0942F8230054
:100C9800704700BF00E100E0054B420953F82220ED
:100CA800012300F01F0003FA00F01040704700BF56
:100CB80000E100E003B2002B01F10101A8BF03F13C
:100CC80060434FEA4111B8BF054BC9B2ABBF03F54A
:100CD800614300F00F0083F800131954704700BFF8
:100CE80014ED00E0044B054A23F07F039360BFF343
:100CF8004F8FBFF36F8F70470000000000ED00E0DA
:100D080008B5FFF7EFFF0B4AD2F8883023F47003D9
:100D1800C2F88830EFF3148323F0040383F31488B4
:100D2800BFF36F8FFFF71EFDFFF728FD00F094F863
:100D380001F014FF00ED00E042F8203C009B0B4955
:100D480042F81C3C019B21F0010142F8183C029B2F
:100D580042F8081C42F8143C4FF0807342F8043CF7
:100D68000023203A02654367704700BF433F0000F5
:100D780070B50C4B0E4698601546436E83F30B888E
:100D88002C4686F309880020034B9847204600210B
:100D980000220023014C20471B410000433F000074
:100DA80070BD00BFE80400201022014B1A61704793
:100DB80000ED00E0054B5A699B689A421FBF044A40
:100DC800536843F080535360704700BFE804002025
:100DD80000ED00E0084B9B6883420BD1EFF30583DD
:100DE80043B1064B5A6842F080525A605A6A22F45C
:100DF80000425A6202F07EB9E804002000ED00E0EB
:100E080013498A684FF030001044EFF3098C80E8EA
:100E1800F01F202080F31288BFF36F8F0D4F4FF023
:100E280000664A698A603E60506F0023536780F30A
:100E3800118802F1300090E8F01F8CF3098802F164
:100E4800000004B503F05EF9BDE8044070470000F7
:100E5800E804002004ED00E0002320210448C21823
:100E68000133B3F5917F82F80013F8D1704700BFC2
:100E780000E100E008B5EFF30583064A103B02EBFA
:100E8800C30152F8330049688847BDE80840FFF7B6
:100E980091BF00BFF44D00001FB5094C094A234615
:100EA8000121094800F0ECF800230393074B0121C6
:100EB800E41A01A80193029400F0ECF804B010BD04
:100EC80000FC0720000000208857000028020020AE
:100ED80010B50C7A0B6823F01F0204F01F031A43A5
:100EE800CB68640923F01F03044943EA440343F031
:100EF80001038860CA600B6110BD00BF90ED00E07F
:100F080010B5064B1B68C3F30723013B984202D870
:100F1800FFF7DEFF10BD6FF01500FBE790ED00E076
:100F28002DE9F04F88461446064600274A4D85B0FD
:100F3800474509DAD6F80490B9F1000F38D0B9F16D
:100F48001F0F05D86FF01504204605B0BDE8F08FD7
:100F580019F01F0FF6D1D6F800A01AF01F0FF1D123
:100F6800504603F0F9F8834609EB0A00013803F00C
:100F7800F3F88345E6D11BF1160FE3D05C45E1DDBC
:100F8800C5F808B0E968C5F808B02B6921F01F0159
:100F980043F01F0AD6E900321A44994202F1FF3998
:100FA8001BD1CA4507D131465FFA8BF003F0DDF853
:100FB80001370C36BCE73146C5F808B0EB6822F0BB
:100FC8001F0203F01F031A43EA60E0B203F0CDF8F2
:100FD80010F1160FB6D0441CEAE7013BCA45E0B24F
:100FE80023F01F03C5F808B006D12A69314602F07C
:100FF8001F0213432B61E9E7296901F01F010B4325
:101008002B61314603F0B1F810F1160F9AD0C5F8EC
:1010180008B0EA689DF808300AF1FF3A62F3040361
:101028008DF808302B699DF808205B0863F3471298
:101038008DF80820D6E900321344009323F01F03EB
:101048005344A3EB0903013023F01F036946C0B2E0
:101058000393FFF755FFBBE790ED00E00522034B34
:101068005A60BFF34F8FBFF36F8F704790ED00E06A
:10107800BFF35F8F0022014B5A60704790ED00E08C
:1010880010B5034C2278FFF74BFF207010BD00BF4E
:10109800140500202DE9F74F254C8A468046002785
:1010A800A1464FF0140B234D57451ADAD8F80430EF
:1010B8000193002B36D0D8F800100846009103F0B1
:1010C8004BF8DDE9001306465818013803F044F8D8
:1010D8008642194A08D014235F436FF0150349F874
:1010E800073003B0BDE8F08F16F1160F2660F8D070
:1010F8001378B342F5DD0BFB0793AE60AE60E8688A
:10110800197B60F3040119732969187B490861F395
:1011180047101873EB6823F01F0363602B6923F0F3
:101128001F0323610137143408F10C08BCE700BF22
:10113800F003002090ED00E0140500202DE9F043B5
:10114800564C574E22683768C2F30722974287B039
:1011580000F2A1800025FFF78BFF524B2363AF42BB
:1011680018D1514D01A82F70FFF7F6FA002607464F
:101178004FF00609DFF83481B74213D100212B78EC
:101188002268C2F307229342C0F28180FFF766FF0C
:10119800002067E07168284601EB0511FFF798FE0B
:1011A8000135DCE7DDF804C031010CEB0103DA6836
:1011B80002EA0802B2F5800F3DD007D8B2F5801FC9
:1011C8001BD0B2F5001F28D00136D5E7B2F1006F69
:1011D80005D0B2F1805F48D0B2F1807FF4D1586871
:1011E8009B685CF80120013B20F01F010B44CDE90E
:1011F800020223F01F0361220CE058685CF801200A
:101208009B68CDE902022122013B20F01F010B441B
:1012180023F01F038DF810201BE058689B685CF8CA
:101228000120013B20F01F010B44CDE9020223F00D
:101238001F034122EEE758685CF801209B6820F004
:101248001F01013BCDE902020B4423F01F038DF877
:10125800109002A928780593FFF752FE002812DAA9
:101268006FF0150007B0BDE8F08358689B685CF81C
:101278000120013B20F01F010B44CDE9020223F0BD
:101288001F030122C6E72B7801332B709CE7A3606C
:101298002161013374E74FF0FF30E3E790ED00E0A0
:1012A80094570000AAFF4400140500200000F0FF36
:1012B80008B50549054A21F00701521A044802F009
:1012C800DAFD002008BD00BF5F12002000FC0720E7
:1012D8000404002008B5254A254B1A6000F062F87E
:1012E8004FF47A60234AD2F82416C1F30803C1F3F5
:1012F8000941414383F480731F48883300FB03137B
:101308004FF4FA205B00B3FBF0F100FB1133B3F5A7
:101318007A3F13464FF47A60184A28BF0131C2F861
:101328000419D3F82016C1F30803C1F30941414356
:1013380042F21C5083F4807303F2172300FB03135B
:101348004FF47A701B0AB3FBF0F100FB1133002055
:10135800B3F5FA7F28BF0131C2F81C171346C2F84B
:1013680000090122C3F8002608BD00BF0020A1071C
:101378000802002000C0FF00F82A00800000125078
:1013880048B1054B1A68054BB2FBF3F2044B5043C6
:1013980043F00103184770470802002040420F003D
:1013A800705700000122024BC3F80424704700BFA5
:1013B800002008E0084B70B5C31A0D4607499B107A
:1013C800044659434022064802F0F3FE2B460146E4
:1013D8002046BDE87040184720040020B76DDBB6F2
:1013E800844D000010B5EFF31184202383F3128895
:1013F800BFF36F8F074A136823F00201DB07116000
:1014080002D4012002F0E2FF84F31188BFF36F8F4A
:1014180010BD00BF980400202DE9F84300220121E7
:1014280007464FF48770FFF745FC104800F09EFC14
:101438000446C0B900F0C4FC4FF01C080C26DFF8C5
:1014480030903D69494608FB045002F0CEFD002863
:1014580007DB012306FB04551C44032CEB65F0D184
:101468000020BDE8F8836FF00400FAE7411500009A
:10147800D45700000C23104A014603FB0023002028
:1014880030B4D3E915525865EFF31180202484F362
:101498001288BFF36F8FDC6D04F0C00444F00204BF
:1014A800DC6580F31188BFF36F8F1DB12B4630BC0C
:1014B8000248184730BC704720040020844D0000C3
:1014C80010B4EFF31180202282F31288BFF36F8FDC
:1014D80016490B6843F0020413F001030C6017D09F
:1014E800134BD3F80C3413F4803311D0EFF311817C
:1014F80082F31288BFF36F8F0E4AD36D03F0C003D7
:1015080043F00203D36581F31188BFF36F8F012382
:1015180080F31188BFF36F8F1BB1002010BCFFF759
:10152800A9BF012010BC02F045BF00BF98040020ED
:1015380000E0105020040020042805D007280AD015
:1015480002280AD1012004E0044BD86D10F00700EE
:1015580003D1FFF78FBF0220FBE77047200400206C
:101568001FB500220123CDE902236B46084ACDF8B6
:1015780000D0CDF804D002F05DFE002805DB43F66C
:1015880009520023684601F083FB05B05DF804FBAF
:101598002F4200001A4AF0B4831A0D469910194BCD
:1015A8004B43DBB2EFF31186202181F31288BFF39E
:1015B8006F8F0C2404FB0324E16D01F00707012F52
:1015C80012D14021E165002186F31188BFF36F8FA6
:1015D80099B90C2101FB03220B49C2E915150B4AE5
:1015E800F0BC52F83330184701F0C001402914BF4D
:1015F8004FF0FF316FF07701E6E72B46F0BC184754
:1016080020040020B76DDBB611420000BC57000073
:101618002DE9F843012206463549D1E8EF3FC1E8F4
:10162800E02F0028F9D133B9324933484B60CB60F9
:101638008A6002F0EDFC731E012B2BD8012E06D117
:101648002E4BD3F8503403F00303012B22D003F0C0
:1016580042F918B92A4B1B78002B42D1EFF31189B4
:10166800202383F31288BFF36F8F0124234D254F66
:10167800A846D5F84C24D5F84C34D2030CD503F041
:101688000303012B01D0012E06D134B389F311884D
:10169800BFF36F8FBDE8F883D4B1484602F04DFD23
:1016A800D5F8403413F0FF03E3D13A68002AE0D0BC
:1016B8003B603B684FF480410123134AC5F840342E
:1016C800C2F8A01102F1E242A2F1F0121360D0E7D1
:1016D8000021202003F077F9E2E70423C8F8043357
:1016E800D8E70422054B0446C3F808238146BDE722
:1016F8009C040020100400203C04002000E010504E
:101708001505002008E1105000E100E04309022B14
:1017180070B503D0012B16D0BBB170BD0C4C23693A
:1017280059680029F9D0012600F01F000D6886408D
:101738008A68324002D04B6820469847002DECD08A
:1017480029462D68F4E7034CE9E7034CE7E700BFB7
:10175800BC4D0000A04D0000D84D00002DE9F0431D
:1017680040F20635D0F80480D00648BF032698F822
:10177800103002EA050558BFC2F3401687B001F0E1
:101788001F07B5F5807F144647EA43178DF80360B5
:1017980048D007D8022D16D0062D45D09DB16FF040
:1017A80015063BE0B5F5007F40D004D8B5F5837F3A
:1017B800F5D1092507E040F20222954238D0B5F567
:1017C800407FECD105250123220303FA01F131D52D
:1017D800D8F804305960D8F8080088BB07F01F0211
:1017E8007F09032F79D83F4B84F4803153F8273091
:1017F800C1F3004103EB8202D2F88030C4F34044C5
:1018080023F4706344EA410423F00F031C4344EAC1
:10181800860444EA0524C2F880400026304607B012
:10182800BDE8F0830125CEE70825CCE70425CAE703
:101838000625C8E7630344BFD8F804309960CAE7AF
:101848000DF10202394602F0A1FF14F4403F0646AA
:101858000DD13946D8F8080002F0B1FF002EDCD1CE
:101868009DF80210D8F8080000F0B4FDD6E74FF054
:10187800000901ABCDE90199CDE90439CDF80C9007
:1018880003AA3946D8F8080002F0C7FE4845C4DB69
:1018980014F4003315D09DF8033084F48034C4F375
:1018A80000448DF80E308DF80C508DF80D404B46E5
:1018B80003AA3946D8F8080000F0D0FC0028CDDA91
:1018C800ABE7CDE904330DF10303039303AA3946CB
:1018D800D8F8080002F0A1FEF0E7203250F82230D4
:1018E800FFDE00BFE057000038B54568A86810B9AA
:1018F8000024204638BD02F05CFF01460028F7D1DD
:10190800A86800F029FD044680B902460949A8687C
:1019180002F039FF22460121DB20FFF7CBF92246EE
:10192800012140F20D10FFF7C5F9E2E76FF004045A
:10193800DFE700BF1517000070B5456801F01F0606
:10194800287C86B046EA4016A868002868D0B2F518
:10195800001F4FF0000404D1314602F07CFF002044
:101968004FE001A8B2F5800F0194446038D1B3F17B
:10197800007F0CBF042305238DF804300023CDE934
:1019880004030393EB680DF1030423FA01F111F04A
:10199800010138D1B2F1A07F35D1720906F01F03D9
:1019A800032A03F120033ED8204951F8222052F897
:1019B8002330DB0727D422463146A86802F0E6FE2A
:1019C800163018D0029403AA3146A86802F025FE02
:1019D800002816DB01223146A86802F0F2FEBEE7B5
:1019E800B3F1C06F05D0B3F1007F0CBF0223012310
:1019F800C2E70323C0E72146A86800F0F5FC0028E9
:101A0800E0DA06B070BD22463146A86802F0BEFE94
:101A18000028D8D19DF80310A86800F0DBFCD2E7B5
:101A28006FF08500EDE751F82330FFDEE057000046
:101A3800F0B4114CD4E90067901B63EB070140092F
:101A480040EAC160410189194FEAD06547EB0505B5
:101A5800C4E90015002400250849C1E90023084B02
:101A6800C3E90045EFF31181202383F31288BFF304
:101A78006F8FF0BC01F022BD400200203002002030
:101A88004802002010B500220121E420FFF712F9D6
:101A9800174A0020D2F8183723F44033C2F8183711
:101AA80000F008FE002821DB124C012004F1080197
:101AB80000F08EFE002819DB00F0D4FD0E4B20F05C
:101AC8001F00C3E900010D4B0022C3E900014FF0DC
:101AD800FF304FF0FF310A4BC3E90001207A094972
:101AE80000F0D2FD67220020074B1A6010BD00BF2E
:101AF80000200E50FC010020400200203802002087
:101B080030020020391A0000C404002008B500F093
:101B1800A9FD064AD2E90032C31A61EB0201044A60
:101B2800C2E900315B0943EAC16008BD40020020F8
:101B3800480200202DE9FF47DFF8ACC0274B0146DB
:101B4800187ADCE90034CDE90234DDE90245244B9A
:101B5800E646D3E900239D4208BF944210D1B1F173
:101B6800806F0DD2490108BF01210122641845F197
:101B78000005CCE9004504B0BDE8F04700F0B2BE6E
:101B8800184ADFF868C0D2E9003ADCE9002C9E1850
:101B98004AEB0C07202334463D46C3FB01452B4640
:101BA8002246DDE902459D4208BF9442CEE9002362
:101BB80012D20299B1EB0608039961EB0709B8F153
:101BC800C80F79F10001B4BF01210021009100F094
:101BD80051FE04B0BDE8F0870021F7E7FC010020C2
:101BE8003002002040020020280200204802002085
:101BF80003689A070CD50368DB070DD50922074B44
:101C0800C3F80C250F22C3F8042501221A60FEE749
:101C1800034B0360EF3B0360704700BF0080105028
:101C2800F000FA5003689A070CD50368DB070DD556
:101C38000922074BC3F80C250F22C3F804250122FB
:101C48001A60FEE7034B0360EF3B0360704700BF79
:101C580000801050F000FA5008B501232E4A2F4892
:101C6800C2F80038A2F55722D2F800242C4A12688C
:101C7800292A04BF2B4A1360FFF7BAFF2A48FFF747
:101C8800B7FF2A48FFF7CEFF2948FFF7CBFF2948BF
:101C9800FFF7AEFF284AD2F88C3043F44063C2F80D
:101CA8008C300022D30003F57F0303F54043D3F8BB
:101CB800001401310AD0D3F8001439B1D3F8001454
:101CC8000132D3F80434402A0B60EBD11B4BD3F814
:101CD8000026D2071AD41A4B1749D3F8182522F030
:101CE8000302C3F81825D3F81825C3F81825D1F826
:101CF8008C2042F44062C1F88C200022C3F8A02551
:101D0800104AD2F80034012BFBD008BD6FF0010255
:101D1800C3F80026DFE700BF0000125000F50E50A0
:101D280040C3FF000C34055008F50E5010F50E5056
:101D380018F50E5000F70E5000ED00E000E01050CE
:101D480000E0045000900450014B1B68184700BF86
:101D5800C8040020014B1B68184700BFC8040020B6
:101D6800014B07201B681847C804002010B5104C09
:101D78002379D3B90123002820600E4808BF00202A
:101D8800237100F00BF990B923680B48002B08BFAA
:101D9800002000F043F850B923680848002B08BF1A
:101DA8000020BDE8104000F093B96FF0770010BD37
:101DB800C8040020511D00005D1D0000691D0000C1
:101DC80008B5074B1B6853B14FF48770FEF764FFE3
:101DD80028B9BDE808404FF48770FEF74DBF08BD2D
:101DE800C80400200422012138B50A4C42F21075BB
:101DF800C4F80823084A11600021F43211601268FF
:101E0800D4F84C34DB0304D5012002F09DFA013DDF
:101E1800F6D138BD00E0105014E01050064A13798E
:101E28003BB9012110601171044A1846C2F84034C8
:101E380070476FF077007047D004002000E0105022
:101E480010B51C4A1C4CD2F84C14D2F84C3411F47E
:101E5800803F17D003F00303012B03D013B1FFF722
:101E6800C1FF002300210120124AC2F84034134B5D
:101E780019601968124908602168B9B10423C2F8C9
:101E8800043310BDD2F8483413F00103EAD0D2F875
:101E980050349B07E3D42368002BEFD1074B1A6813
:101EA800002AFCD000221A601B68EAE71A68002A98
:101EB800FCD0F7E700E01050D004002008E11050F3
:101EC80010E01050F8B51B4C1B4DD4F80C331B4ECA
:101ED80003F00C0303B9F8BDB3FA83F301214FF003
:101EE800000CC3F11F039A0002F5807292B202F14E
:101EF800A04202F58712C2F800C001FA03F7022BCC
:101F08001268D8B2C4F8087310D1D4F84C34D4F895
:101F18004C349B070AD10423C4F84014C4F8043392
:101F28003160D4F80C3303F00C03D3E72B689847DF
:101F3800F7E700BF00E01050D004002010E0105078
:101F4800712238B5104B0021C3F80823012342F24F
:101F580010740E4A0C4D1360C2F8FC10FC32126863
:101F68000B4A1268292A04BF0A4A1360D5F80C34B0
:101F780013F4803305D0012002F0E6F9013CF5D1D5
:101F880038BD054A5371FBE700E0105004E01050DB
:101F980040C3FF000CE01050D8040020054A137914
:101FA80023B9012110601171184670476FF077004E
:101FB800704700BFD80400200023124A0121136093
:101FC8001268114A13601268104A13601368104BA4
:101FD8001B68292B02BF01220E4B1A6000220E4BF0
:101FE8001A601A680D4A11600D49096819B1712300
:101FF800C2F8043370471A68002AFCD000221A601D
:102008001B68704710E1105018E1105014E110508F
:1020180040C3FF0008E0105000E1105000E01050ED
:10202800D804002070B5194C194DD4F80C33194E4A
:1020380003F0710303B970BDB3FA83F301220021E1
:10204800C3F11F039A40D8B29B0003F580739BB27B
:1020580003F1A04303F587131960102A1B68C4F81D
:10206800082308D0402A0ED02B689847D4F80C33A0
:1020780003F07103DEE702236B71316033682023BC
:10208800C4F80433F0E76971EEE700BF00E01050D0
:10209800D804002014E110508022012138B50A4CE0
:1020A80042F21075C4F80823084A11600021F4327E
:1020B80011601268D4F86C34DB0304D5012002F0F7
:1020C80043F9013DF6D138BD00E0105028E010502A
:1020D800054A137923B90121106011711846704718
:1020E8006FF07700704700BFE00400200022012154
:1020F800094B1A601A68094A1160094A12681AB12C
:102108008022C3F8E82170471A68002AFCD0002210
:102118001A601B68704700BF1CE1105024E0105083
:10212800E0040020084AD2F804331B060BD5074BFD
:10213800196841B1002119601B688023C2F808336F
:10214800034B1B681847704700E010501CE1105003
:10215800E0040020036803F01F025B09032B026000
:102168009ABF024A52F82300002070472C580000FA
:10217800034A4309D35C00F01F001844C0B27047FB
:10218800DA5C0000F0B58446002487B0124F134E85
:10219800019102AD17F8013B06AA02EBD30212F82F
:1021A800142C03F0070322FA03F3DB0705D40134E8
:1021B800042CEFD1002007B0F0BD96E80F0085E8A9
:1021C8000F0055F82420136A4CF824301362002BB2
:1021D800EDD00120EFE700BFEA5C00005057000097
:1021E80073B5054608460C46FFF7C2FF00B205EB7B
:1021F8004006B38ADB072BD5284602F0EBF92146C7
:10220800284602F055F958B1284602F05CF92B68C7
:1022180000B203EB80000023C0F81035C0F8103579
:102228002146284602F078F9002101A8B1820194DC
:10223800FFF790FF019B00EB8300D0F88020064B4E
:10224800134043F00203C0F88030084602B070BD66
:102258006FF01500FAE700BFF0F0FCFF2DE9F0433E
:10226800044685B008460D4690461F46FFF780FF96
:102278008146B8F1000F27D0204602F09EF920B120
:10228800204602F015F9002860D10FFA89F604EB10
:102298004606B38A13F01C0F03D098F80130012BBF
:1022A80054D001238DF80F30002308F10102CDE945
:1022B80000830DF10F0108F10203284602F0A1F88E
:1022C800B38A43F00303B3821FB9002005B0BDE809
:1022D800F0832946204602F070F9002836D13E786E
:1022E8002368B1000B440FFA89F2C3F8100504EB18
:1022F8004202C3F81005938A23F4604323F02003B5
:1023080093827B78002BE0D02468BF782144D1F8F1
:1023180010C5104C1B040CEA0404C1F81045D1F890
:10232800104503F44033234341F6F07404EA0515DD
:102338003C052B4304F480142343C1F81035938AD9
:1023480043EA463343F020039382BFE76FF015005A
:10235800BCE700BF0FE0ECFFF8B590F8B0400546C9
:1023680090F8B1607CBB21468422143002F0D0FB87
:10237800214601240F46154B2A6853F836608E42D1
:1023880014D10024C2F84441D2F8443140F20D136C
:102398000F48824214BF1846DB20FEF76DFC01236C
:1023A800204685F8B030C5F89C30F8BDCBB29B000C
:1023B80003F580709B0804FA03F39B0344BF87501E
:1023C80083580131DBE76FF07700EEE73C580000F7
:1023D80000A00D5090F8B100024B03EB800001F013
:1023E800D0BF00BF0C02002010B5064B90F8B1001A
:1023F8000C4603EB800001F0A9FF0028A4BF207061
:10240800002010BD0C0200202DE9F04F074657F8B8
:10241800049B90F8B150D9F814136A4CC9B254F817
:1024280035208DB0824641F40031484602F09EF8CE
:102438008203064638D51022002108A802F068FB5E
:1024480004EBC5035B6808A8194604EBC5040193AF
:10245800FFF798FE231D03934FF0000B5A4B0DF125
:1024680020080293029A039912F8013B0292DA08B3
:102478008A5C03F0070322FA03F3DB076DD40BF140
:10248800010BBBF1040F08F10408EBD14FF4003144
:102498000022484602F06AF8019908A8FFF772FE80
:1024A8000028D9D126F400360124002E74D10DB0AD
:1024B800BDE8F08F93FAA3F3B3FA83F3434A059385
:1024C8001BF8024043EA44142046FFF751FE0AEB8A
:1024D8004000818A059B890801F00705EAB2049249
:1024E8000122D80818F800C003F0070302FA03F322
:1024F8002CEA030308F8003007A80794FFF72AFE20
:10250800079B11F0040F03F1200350F82330049ABD
:10251800C3F3014326D021463846DDB201F0DDFF82
:1025280007A80794FFF716FE079B203350F82330BF
:10253800C3F301439D4207D10021204601F0A9FFC2
:102548002946204601F0A5FF07A80794FFF702FED9
:102558000122079B02FA03F30362D8F80030002B2C
:10256800A8D18CE7022B0CBF03210221204605923B
:10257800049301F08EFF032D059A04D0049B022BCF
:1025880006D1012AE0D12146384601F0A6FFDBE753
:10259800032BD9D1022AF5E796FAA6F3B3FA83F307
:1025A80004FA03F226EA020603F5A27259F8222079
:1025B8000AEB4303C2F30142B3F8A010384601F016
:1025C8008CFF72E73C580000EA5C0000EA5C0000FF
:1025D8000123034A03FA00F09368034393607047AA
:1025E8000000002073B506460191EFF31185202302
:1025F80083F31288BFF36F8F0C4C019B626801A8AC
:102608001340019301F0A2FE002808DB012303FA1E
:1026180000F2636823EA020363603070002085F3E8
:102628001188BFF36F8F02B070BD00BF000000209B
:102638000022024B80001A50704700BF00210E5044
:10264800074B027AD3F8101521F001010A43C3F8A9
:1026580010250268C3F8A4264268C3F8AC26704760
:1026680000200E5030B50024064D2046D5E9002341
:1026780003F0404150EA010CF7D11046C3F31301AF
:1026880030BD00BF40270E5030B50C25074C23182D
:1026980093F8543005FB0343C3E90312187501236B
:1026A800034A8340C2F8243330BD00BF0000002035
:1026B80000200E50F0B53E4D85B02C78002C70D11E
:1026C8003C4A01AB07CA83E807003B491846D1F8E2
:1026D800102522F00202C1F81025FFF7B1FF0723E9
:1026E8002246672101F001000244013BD2B24FEAC1
:1026F8005101F7D1052A57D119464FF0010C2C4E3C
:10270800CFB20024672004E00CFA02F220EA0200AB
:10271800013490FAA0F25FFA84FE7745B2FA82F2A9
:10272800F2D80131327505292A4482F8547006F12D
:102738000C06E5D10121002420489A0801FA02F28A
:1027480012F0670F18BF1C500433302BF5D1E4206A
:10275800FEF792FA184B1A49D3F8102503F5C073FF
:1027680022F00202C3F8902340F6FF72C3F8A821B2
:1027780000221A60A3F5807004338B420260F8D1FE
:1027880001240D4B0F481C660F4B1A680F4BB2FB08
:10279800F0F25D2023435043984700202C7005B089
:1027A800F0BD6FF07700FAE76FF08B00F7E700BF36
:1027B800000000206057000000200E5000210E503D
:1027C800B0210E5040420F00080200208057000040
:1027D80038B5254B0D46D3F8102594073DD4D3F8CA
:1027E800102542F00202C3F81025C0B1D3F84827DB
:1027F80012F0010202BFD3F8481741F00101C3F8F3
:102808004817194BD3F84017D3F844174900F9D49F
:102818002AB9D3F8482722F00102C3F84827134BF6
:10282800134A1B681049B3FBF2F303EB4313BBB124
:10283800D1F84027D1F8444714F080440BD14FF029
:10284800FF312846FFF7CEFE002803DB2878FFF784
:10285800BFFE204638BD013BE9E76FF07700F9E796
:102868006FF07300F6E700BF00200E50080200204A
:1028780040420F0070B51D461446184B9DF81010C5
:102888001A1892F85420064603EBC203C3E9184508
:10289800C5F3130203B2B9B1190101F1A04101F561
:1028A8006221C1F82045C1F824250D4A9B00D35860
:1028B8009BB1FFF7D7FEA94208BFA0420DD2304610
:1028C800BDE87040FFF7B4BE1B0103F1A04303F558
:1028D8006223C3F82045C3F8242570BD00000020FA
:1028E80000210E502DE930480D4B1C1894F8544027
:1028F80000010C3403EBC403D3E9004514EB010BCE
:1029080045F1000CC3E900BC21F0004100F1A040F2
:1029180041EAC27100F56220C0F82815BDE8308888
:1029280000000020F7B5284B284CD3F82C6304F19D
:1029380088070EB903B0F0BD96FAA6F0B0FA80F099
:1029480001232218224992F85450820011440C2283
:102958008340DB4302FB0542D2681E407AB3D7E8C6
:10296800EF2F02EA030CC7E8EECFBEF1000FF6D155
:1029780022FA00F3DB0719D5020102F1A04202F5A1
:102988006222D2F82435D2F82025D1F800C0BCF153
:10299800000FCED04FF0000CC1F800C00C2101FB95
:1029A800054529690091E9688847C2E705F10C03E4
:1029B80004EBC30C54F83320DCF80430E5E70B686B
:1029C800002BB6D00A60B4E700200E5000000020AB
:1029D80000210E5038B5EFF31185202383F31288B8
:1029E800BFF36F8F064B9C6801F067FF85F3118872
:1029F800BFF36F8F2046BDE83840FEF7EBB900BF44
:102A0800E804002038B50A4B53F82040013053F849
:102A18002050A54200D838BD606830B1037EDB077E
:102A280001D401F01FFF0834F3E723689847FAE759
:102A38004C5800000122F0B5294B87B00320294EDD
:102A48001A70FFF7DFFF00F0BDFD0420FFF7DAFF83
:102A58003746254DB54205F1300410D300F07AFA17
:102A6800214C224DBC4227D300F088FAFDF742FDE5
:102A78001F4A938923F00103938107B0F0BD54F8EE
:102A88000C3C059354F8103C049354F8143C0393FD
:102A980054F8183C029354F81C3C019354F8203C19
:102AA800009354E90A2354E90C0100F019F954F889
:102AB800303C5D652546CDE7D4E90A23591C08BF9B
:102AC800B2F1FF3F05D052EA0301206803D101F0BB
:102AD8009DFF3034C6E72946183000F059FCF8E766
:102AE800150500200457000004570000A9490000FC
:102AF800D00200200023012270B586B0CDE904235E
:102B08000F221425CDE902324FF4A07201930E4B27
:102B18000E4E05FB00350E4906EBC016044602FBB7
:102B2800001100950B4B304600F0DAF8337C2C741A
:102B380023F004033374084B013403EBC424EE6020
:102B48006C6006B070BD00BFE80400205002002091
:102B580018090020C9480000580A0020BFB5002005
:102B6800FFF750FF284B03F5006282F3088883F3D0
:102B78000A880024E023254D254E85F82230EC777D
:102B88002C766C76AC7685F820406B6A43F4E023AB
:102B98006B6285F82340FEF727F8FEF705F94FF03A
:102BA800FF33AB62EB62FEF7C9FAFEF775F9194815
:102BB80000F0C4F80120FFF725FF0220164DFFF7AB
:102BC80021FF00F007FA154B4FF480625D61144B4A
:102BD800144905930123CDE90144CDE90343009449
:102BE8003346284600F07CF807462B7C284623F01D
:102BF80004032B7401F0B1FE2046FFF77BFF324639
:102C080039462846FEF7B4F8580A002000ED00E0DF
:102C18003D2A000050030020D0020020E8040020D4
:102C2800EE5C00001805002070B5EFF31186202334
:102C380083F31288BFF36F8F0468A0421AD0CCB117
:102C4800D4E90032002513605A60237CC4E900559A
:102C580023F002032374A56004F1180001F012FFA9
:102C68002046A56701F079FE3146BDE87040074867
:102C780001F0A6BED0E902329A4218BF0133836040
:102C880086F31188BFF36F8F70BD00BF1605002053
:102C980037B514461D46EFF31181202383F31288BC
:102CA800BFF36F8F836843B1013B836081F3118861
:102CB800BFF36F8F002003B030BD54EA050306D17F
:102CC80081F31188BFF36F8F6FF00F00F3E70246AF
:102CD800CDE90045014800F01BF9ECE71605002096
:102CE800F0B585B00E9E00F1580586810426C0E92E
:102CF800165500250446067407320D9E22F0070279
:102D08008673C0E919128E180C9A8560C573C0E9DC
:102D18000655C56602920B9A01920A9A00923246AB
:102D2800FEF70AF8044B65659B6803B11B6F3046D4
:102D3800236705B0F0BD00BFE80400200123037439
:102D480083810023C0E919330367014B98607047FA
:102D5800E80400206FF00A01084A93689967084957
:102D680058674B6843F080534B60002383F3118806
:102D7800BFF36F8F9368986F704700BFE804002017
:102D880000ED00E038B5037C01461C0604D503F0CD
:102D98007F03037401F0A5FD0D4C224652F8185F1D
:102DA800A368954200D005B9E5688B4209D01A7C22
:102DB800D20606D1DA897F2A03D9AA690AB96361DA
:102DC80038BDAB4202D0284600F062FA6561F7E7E9
:102DD800E8040020591C08BFB2F1FF3F03D00249A4
:102DE800183000F0D5BA7047A9490000024648B922
:102DF800EFF3058333B9064B59699B68994201D0B3
:102E0800FFF7A8BF82F31188BFF36F8F704700BF29
:102E1800E804002070B5037C1C0629D4D90627D104
:102E28001D4C63F07F032246037452F8183F934207
:102E380024D01BB3E66990F90E5093F90E108D4219
:102E480017D0491B002914DD5968C0E90031086012
:102E58005860A569954200D005B9E568A3681A7C51
:102E6800D20611D1DA897F2A0ED9AA6962B96361BB
:102E780070BDB34202D01B68002BDED1E369C0E904
:102E880000231860E061E4E7AB4202D0284600F076
:102E9800FFF96561ECE700BFE804002038B51A4C7B
:102EA800A168E3690A68994214BF13460023496878
:102EB8000A605160A268E0692BB9144BC2E900307E
:102EC8000260E2610DE092F90E5093F90E108D4206
:102ED80015D0491B002912DD5968C2E900310A6082
:102EE8005A60A569094B9D4200D005B9E568A368F9
:102EF8009D4202D0284600F0CBF9656138BD834277
:102F0800DBD01B68D8E700BFE804002000050020DC
:102F1800F8B5DDE906670D4B0D4698680C49086061
:102F2800EFF31181202181F31288BFF36F8F9C6822
:102F38001146204601F0E7FC204632463B46FFF7A3
:102F480049FF2846BDE8F840FFF704BFE804002021
:102F580008050020EFF31181202383F31288BFF3C3
:102F68006F8F054B9A68D37B013BD37381F311882C
:102F7800BFF36F8F704700BFE804002070B5EFF310
:102F88001186202383F31288BFF36F8F104CA36838
:102F9800DA7B0132DA73224652F8185F954200D084
:102FA80005B9E5681A7CD2060AD1DA897F2A07D9D9
:102FB800AA692AB963613046BDE87040FFF716BFB9
:102FC8009D4202D0284600F063F96561F3E700BF2F
:102FD800E8040020024B03F11802C3E906227047F7
:102FE800E804002070B5EFF31186202383F31288DC
:102FF800BFF36F8F1B4CA168E3690A68994214BF3D
:103008001346002349680A605160A268E0692BB939
:10301800154BC2E900300260E2610DE092F90E50F2
:1030280093F90E108D4219D0491B002916DD5968F5
:10303800C2E900310A605A60A5690B4B9D4200D075
:1030480005B9E568A3689D4202D0284600F020F93A
:1030580065613046BDE87040FFF77CBE8342D7D03B
:103068001B68D4E7E8040020000500202DE9F041A2
:1030780006460F4656EA070303D1FFF7B3FF0020C1
:1030880029E0EFF31188202383F31288BFF36F8FB1
:10309800124D134BA8681860FFF774FEA8683246F3
:1030A8003B461049183000F073F9AA680446137CAF
:1030B800404643F004031374FFF74CFEAB68D3E9B2
:1030C8000A23B3F1004F08BF002AD8D101F00EFD42
:1030D800201A20EAE070BDE8F08100BFE804002073
:1030E80008050020A9490000014B9868704700BFF7
:1030F800E80400202DE9F84304468789EFF3118599
:10310800202383F31288BFF36F8F037C1E0705D536
:1031180085F31188BFF36F8FBDE8F88343F0080289
:10312800110657D40274A36813B1204601F0E1FBDD
:1031380004F1180001F0A6FCA66D04F15808B0458A
:1031480011D04FF0000976B1304601F0D2FB06F1FC
:10315800180001F097FCC6F878903046FFF75AFE41
:10316800A66DB045EFD12F4EB3689C423AD04FF0D0
:103178000009D6F818802C4A904502D0B8F1000F03
:1031880001D1D6F80C80434502D0404600F080F8C3
:103198002046C6F8148000F0B9FFB9F1000F02D03C
:1031A8002248FFF7CBFDB3689C4236D1EFF3058385
:1031B8009BBBA289D2071DD42846FFF7CBFDFB078E
:1031C800AAD5002383F31188BFF36F8F0423184611
:1031D80002DFA1E703F07F0343F00803037401F063
:1031E80080FBA0E7EFF3058919F1000918BF4FF03C
:1031F8000109BEE785F31188BFF36F8F83F3118848
:10320800BFF36F8F0423184602DFEFF311802023EA
:1032180083F31288BFF36F8FCFE785F31188BFF36D
:103228006F8FCCE7E8040020000500205003002041
:10323800027C12F01F0211D10A4B98420ED00A4BA1
:103248001B684BB1C1897F290AD8084A90F90E102A
:1032580012689142B8BF0023184670470023FBE765
:103268001346F9E750020020140200200C05002044
:103278000122044BC01A044BC0105843034B1A5484
:10328800704700BFD0030020ABAAAAAA16050020E9
:1032980070B50D4B0D4C1E7CFFF7CAFF06EB4603BD
:1032A80004EBC3040546204601F0ECFB0022084B62
:1032B8009A553DB16A1E2046BDE87040D3170549AE
:1032C80000F066B870BD00BFE8040020D0030020FD
:1032D800160500207932000038B5EFF31185202358
:1032E80083F31288BFF36F8F0F4B104A9C681068E6
:1032F800A04206D1FFF7CCFF85F31188BFF36F8F8B
:1033080038BD00211B7C1160094AD35C002BF3D027
:103318002046FFF78DFF0028EED0237CDB0601D185
:10332800FFF7BCFD2046E5E7E8040020080500207B
:1033380016050020024B1868984208BF0020704705
:1033480018020020034B1B680BB9FEF7DFBB0020F7
:10335800704700BF1005002030B570B10B4B5B689B
:1033680098420AD0036843B1D3E90421D0E904455F
:10337800121945EB0101C3E90421D0E900321360B9
:103388005A600023C0E9003330BD00BF1802002096
:103398002DE9F74F1D46013308BFB2F1FF3F8246C2
:1033A800144600F082808160EFF31183019320239B
:1033B80083F31288BFF36F8F002A75F100033C4A2C
:1033C8001FDBFFF7BFFF8346661C394A45F100073C
:1033D800301847EBEB71D2E90032C418CAE904018E
:1033E80041EB02050121FFF7A5FF324B9C46D3F8BC
:1033F80004E000BBCAE900CECEF800A0CCF804A0D7
:103408002EE06FF00103D2E900125B1A4FF0FF3192
:1034180061EB0202B3EB040862EB0509B8F1010F96
:1034280079F10003BCBF4FF001084FF000090021FB
:10343800C0E90489D7E7D0E90489DAE90467464591
:1034480077EB090327DAB8EB060269EB0703C0E953
:1034580004234368CAE90003C3F800A0C0F804A025
:10346800FFF768FF82450CD1134B1B684BB911B9A4
:10347800FFF768FF8346584601F0E8FA0021FEF797
:1034880059FB019B83F31188BFF36F8F20462946B0
:1034980003B0BDE8F08FB6EB080267EB090370458F
:1034A800CAE90423A6D00068A3E700240025EDE7B5
:1034B800E80300201802002010050020314A2DE9F9
:1034C800F3470D461060FFF735FFDFF8BC90044660
:1034D8009046CA46D9E90001D8F80020CDE9000194
:1034E8001046D1175CB1D4E90467B24271EB070307
:1034F8001EDAB6EB020C67EB0106C4E904C6002429
:10350800009BC8F80040C218019B204641EB03030A
:10351800CAE9002301F09AFA2146FEF70BFB85F36E
:103528001188BFF36F8F02B0BDE8F047FFF7D4BE34
:103538000022DDE900010023801941EBE671C4E9AE
:103548000423C9E900012046FFF706FF01224FF0D6
:103558000043C4E9042385F31188BFF36F8FA36880
:103568009847EFF31185202383F31288BFF36F8FF9
:10357800D8F800309E1BC8F80060FFF7DBFE044651
:10358800A8E700BF10050020E80300202DE918482F
:10359800EFF31184202383F31288BFF36F8FFFF7B3
:1035A800D1FE074BD3E9002312EB000B43EBE07C81
:1035B8006146584684F31188BFF36F8FBDE81888B9
:1035C800E8030020014800F0ABBC00BFF35C00003A
:1035D8002DE9F04F837899B09C078146CDE9021216
:1035E800D0F804A016D50B46002607921D789DB189
:1035F800252D15D00133019349462846D047002888
:1036080006F1010680F28E8199F8023043F0040336
:1036180089F802304FF0FF36304619B0BDE8F08F18
:103628005D789A1C252D0192E6D04FF0000B0A23F5
:10363800D8465F465C461F2C22D8A5F12002102AE6
:1036480020D8DFE802F0141F1F1A1F1F1F0B1F1FAF
:103658001F121F171F1F090044F00104019A12F8D6
:10366800015B0192002DE6D16BE044F0020444F0C6
:103678000404F3E744F00804F0E744F01004EDE72D
:103688007F2C41D8A5F13002092A09D8600602D555
:1036980003FB0828E2E703FB072744F02004DDE7E3
:1036A8002A2D12D1BBF1000FD8D1079A650602F175
:1036B8000401079102D5D2F80080CFE71768002FE0
:1036C800EBDA7F4244F02804C8E72E2D04D16006C7
:1036D800A2D444F04004C1E7242D15D1BBF1000F5A
:1036E80060D0039B14F0400514BF42463A4607A930
:1036F8000298079301F090FA079A0A23111D07917F
:10370800002DD8D11768A9E76C2D06D1220648BF2D
:1037180044F4007444F08004A0E7682D06D1E50560
:1037280048BF44F4007444F4807497E74C2D02D1E8
:1037380044F4207492E76A2DFAD07A2D8ED0742D35
:103748008CD0BBF1000F06D0039B5A4607A90298FC
:10375800079301F061FAB8F1000F45F02003B8BFF4
:1037680024F04004A3F16502BCBFA4B24FF00008E6
:10377800022A01D9612B1AD14FF00708079BAE4DD9
:10378800073323F007030833079324073CD505EBD9
:103798000804A6EB050BA54205EB0B0636D1A7EBF3
:1037A800080711E1D846BB464446474656E7632D0D
:1037B80009D1079B4FF001081A1D07921B6808AD35
:1037C8008DF82030E1E7732D27D1079B1A1D07924A
:1037D8001D689A4B002D08BF1D4614F0400F14BFFA
:1037E80041464FF0FF31284601F09AF98046CCE770
:1037F80049462020D0470028FFF606AF013FB845CC
:10380800A4EB0706F4D3C2E7F419F8E7494615F81C
:10381800010BD0470028BEDAF6E6642D01D0692DE9
:1038280045D12006079B38D5A10531D5073323F0AC
:10383800070303F108020792D3E90001002871F198
:10384800000304DA404261EB410144F4806424F04F
:10385800100B50EA01031FFA8BFB04D1640602D552
:10386800B8F1000F7DD00A2308AC224601F064F9B4
:10387800021B1BF0400F76D02BF0010390459BB242
:1038880079DD1DB92BF0110B1FFA8BF344466CE060
:103898001A1D07921868C117D0E71A1D0792E2058A
:1038A8001868F8D5A3054CBF40B200B2F3E7752DF0
:1038B80019D10A2324F01004A4B22106079A3DD591
:1038C800A00536D5073222F0070202F10801079158
:1038D800D2E9000150EA01023AD024F006041FFAA6
:1038E80084FB08ACC1E76F2D1ED0702D04D144F0C5
:1038F800100410237825E0E7782B04D1C5F178036C
:1039080043F01003D9E7622B11D049462520D04750
:103918000028FFF679AE49462846D0470028FFF62A
:1039280073AE0236019B61E608230025C5E7022332
:10393800C3E7111D079110680021CBE7111D0791FE
:10394800E1051068F8D5A2054CBFC0B280B2F3E714
:1039580024F0160B64061FFA8BFBC2D5B8F1000FD2
:10396800BFD1424685E714465B4613F0100B2DD0B5
:103978001DB9013402E01446F7E70234190707D4E9
:10398800D90739D5A74239DDA7EB04083C4690444E
:10399800BBF1000F3DD0494630200492D0470028A3
:1039A800FFF632AE049A5DBB0136B044A8EB0603BD
:1039B8009A4245DB904695190DF1200BA5EB0806B8
:1039C800B8F1000F46D13F1B374454E040F206419E
:1039D8000B42D3D0CDE749462020CDE90432D04769
:1039E8000028FFF611AEDDE904320134A74206EBE8
:1039F8000401F0DC0E46CBE7361BF7E79046C7E735
:103A08004946284604920236D0470028049ACCDA60
:103A1800FAE540F206410B42C7D013F0020F14BF7B
:103A28002B20202013F4806F049206F101064946EA
:103A380018BF2D20E8E700BF295D0000225D0000C7
:103A4800494630200492D047002806F10106049A1E
:103A5800ACDAD9E508F1FF3849461BF80800D04729
:103A68000028ABDAD0E549462020D047002806F1E7
:103A78000106FFF6C9ADBB1B002BF4DC52E700BF03
:103A88002DE9F04F099E04468946002B40F08380BB
:103A98008A42154645D9B2FA82F24AB1C2F12007E4
:103AA80001FA02F39540944020FA07F747EA030920
:103AB8004FEA154E230C1FFA85F8B9FBFEFC0EFBE6
:103AC8001C990CFB08F143EA094399420AD9EB18FF
:103AD8002CBF01200020994202D9002800F01D8146
:103AE8000CF1FF3C591AA3B2B1FBFEF00EFB10110A
:103AF80000FB08F843EA0144A04505D92C1902D275
:103B0800A04500F20E810138A4EB080440EA0C40FD
:103B180000271EB1D4400023C6E900433946BDE85A
:103B2800F08F002A51D0B2FA82F2002A40F0AF801A
:103B3800491B4FEA154E1FFA85F80127230CB1FBE4
:103B4800FEFC0EFB1C1108FB0CF043EA01439842F3
:103B58000AD9EB182CBF01210021984202D900296B
:103B680000F0D7800CF1FF3C191AA3B2B1FBFEF0AC
:103B78000EFB101108FB00F843EA0144A04505D9E3
:103B88002C1902D2A04500F2C1800138A4EB080428
:103B980040EA0C40BDE78B4208D9002E74D00027BC
:103BA800C6E9000138463946BDE8F08FB3FA83F715
:103BB80067B98B42C0F0A480824240F2A1803846A7
:103BC800002EABD0C6E90049A8E7FFDEC7F1200503
:103BD800BB4002FA07FC01FA07F4EA4020FA05F8AC
:103BE800E94000FA07FE1A4348EA04044FEA12487B
:103BF800200C1FFA82F9B1FBF8FA08FB1A110AFB2C
:103C080009FB40EA01418B450AD951182CBF012311
:103C180000238B4502D9002B00F088800AF1FF3A77
:103C2800A1EB0B01A4B2B1FBF8F008FB101100FBEB
:103C380009F944EA0141894504D9511801D2894555
:103C48007BD8013840EA0A40A1EB0901A0FB0C89A6
:103C5800494544464B4602D306D1C64504D20138ED
:103C6800B8EB0C0469EB0203002E5DD0BEEB040236
:103C780061EB030101FA05F522FA07F3F940002781
:103C88001D43C6E9005149E73746304646E7C2F1C9
:103C98002000954001FA02F721FA00F34FEA154E89
:103CA80024FA00F11FFA85F894403943B3FBFEF07B
:103CB8000F0C0EFB103300FB08FC47EA03439C453E
:103CC80007D9EB182CBF012700279C4500D98FB3D3
:103CD8000138A3EB0C0389B2B3FBFEF70EFB1733D5
:103CE80007FB08FC41EA03418C4504D9691801D255
:103CF8008C4525D8013FA1EB0C0147EA00471DE799
:103D0800841A61EB03030120994659E702382C44D1
:103D18003CE7ACF1020C2B4426E7ACF1020C2B4437
:103D2800E0E602382C44EFE63746F7E6AAF1020A45
:103D3800114475E702382B44CBE70238114481E778
:103D4800023F2944D7E700BF836800EBC101B3F500
:103D5800004F2CBF51F8220031F81200704700EBD9
:103D6800C1018068B0F5004F2CBF41F8223021F81E
:103D78001230704708B50122FFF7E6FF400808BD7A
:103D8800836800EBC101B3F5004F08D34B681AB143
:103D980043F001034B60704723F00103FAE74B88B7
:103DA8001AB143F001034B80704723F00103FAE78F
:103DB80053000122FFF7D3BF08B58368B3F5004F5E
:103DC80006D3FFF7D7FF01288CBF0020012008BDCC
:103DD8000020FCE78368481CB3F5004F2CBF022382
:103DE8000123C01AB0FA80F0C0F11F0070472DE916
:103DF800F04104460D46FFF7DFFFD0BB29462046B9
:103E0800FFF7B8FF01462046FFF7E4FF04EB800206
:103E180016699EB9012303FA00F0E36829460343B3
:103E2800E360204615612B460222FFF798FF032224
:103E380029462046BDE8F041FFF791BF02223146EE
:103E48002046FFF781FF07460346022229462046FF
:103E5800FFF785FF3346032229462046FFF77FFFF9
:103E6800032239462B462046FFF779FF02223146C6
:103E7800DFE7BDE8F081B2F5802FF8B52CBF082543
:103E88000425551B0022CC1D0D4424F0070425F001
:103E980007052D1BED0804602946A560E260204651
:103EA800FFF798FF134686001B36F60804F1100149
:103EB80098422FDA324620460021FFF779FF002387
:103EC80020461A461946FFF74AFFAF1B2046012233
:103ED8000021FFF755FF3A463146FFF769FF3346A1
:103EE800314620460022FFF73AFF294620460022A5
:103EF800FFF75EFF3B46294620460022FFF72FFFCB
:103F0800294620460122FFF73BFF3146BDE8F8402D
:103F1800FFF76DBF41F8042B0133C9E70020704754
:103F28000FB407B504A951F8040B0191FCF720FB65
:103F380003B05DF804EB04B07047044608B50846C2
:103F480011461A46A047FFF7CFF8FCF743FF038B4B
:103F580013F0070305D10368002B0CBF00200320D2
:103F68007047022B05D1438B002B14BF002004207F
:103F78007047012B05D10368002B0CBF00200520DA
:103F88007047002070472DE9F0410D460746194655
:103F9800281D90461E4600F094F8044638B1334672
:103FA800424629463846A446BDE8F0416047BDE888
:103FB800F08110B4EFF31182202484F31288BFF348
:103FC8006F8F416110BC0121FCF7EABA10B50C46AD
:103FD80040B139B1081D00F063F828B9A36833F07F
:103FE800030301D06FF0150010BD38B50C46054627
:103FF80058B151B10B6843B14B6833B11C22002151
:1040080000F086FD00202C6138BD6FF01500FBE73D
:1040180070B504460D46FFF7D9FF061E30DBEFF3F7
:104028001181202383F31288BFF36F8F4FF6FF7639
:10403800638B208BB34200F007022ED0022A0ED1E8
:10404800013363831646012381F31188BFF36F8F11
:10405800B3B1002329462046FFF795FF10E08307F8
:1040680001D0062A0ED100232B60636893B9C4E9F6
:104078000055164662B90A4620460221FCF790FA16
:10408800304670BD052A0CBF6FF085066FF0040638
:104098000023D9E71D606560EBE76FF00A06F7E7D4
:1040A80060B1436803F00303012B03D0032B05D150
:1040B80003681BB100238360184670476FF0150032
:1040C80070474268034602F00302032A4FF00002D9
:1040D80081600CBF006810465A607047704700F056
:1040E80017BD00F007BD01460068FCF763BB08B5C3
:1040F800FCF790FBBDE80840FCF75CBE00210120FE
:10410800FCF758BB436E83F30B8870476FF085004C
:10411800704761B662B680F31188BFF36F8F70473E
:1041280072B6002383F31188BFF36F8FBFF34F8FED
:1041380030BF62B6BFF36F8F704772B6002383F348
:104148001188BFF36F8FBFF34F8F20BF80F31188A3
:10415800BFF36F8F62B6704740E800F313F4803FF7
:10416800D8B208BF6FF01500704730B585B00C683D
:104178004B689DF808200D890094498924F01F0494
:10418800013B65F30402234461F3471223F01F0344
:1041980069468DF808200393FCF7B2FE05B030BDE0
:1041A8000C230269C9B201FB0323D86D00F0070094
:1041B800704770B5C9B20569EFF31186202383F300
:1041C8001288BFF36F8F0C2303FB0154E46D14F0C6
:1041D800C00401D0A24211D1012203FB0153DA65C8
:1041E800002386F31188BFF36F8F2BB9436803EB65
:1041F800C1035B6898470023184670BD4FF0FF3332
:10420800EFE78022FFF7D5BF10B403691C20CCB2BA
:1042180004FB0030002110BC1047022000F0CAB88F
:10422800022000F0D3B81046FEF7FEBC00F0E3B859
:10423800FDF706BEF8B5C9B20769EFF3118420256A
:1042480085F31288BFF36F8F0C2606FB0176F56D98
:1042580005F0070CBCF1010F12D18025F56500258A
:1042680084F31188BFF36F8F45B90C2404FB0174E4
:10427800C4E91523436853F8313098472846F8BDF8
:1042880005F0C005802D14BF4FF0FF356FF077059E
:10429800E6E7436800205B68DB680B6070474368AB
:1042A80002EA01005B6821EA020258609A60002075
:1042B8007047436800205B68596070474368002076
:1042C8005B689960704743685A68136821EA03007D
:1042D8000B40506093600020704730B50369586800
:1042E80010B3002481421BD108685CB99C685860EF
:1042F800A14200D19860002008604AB9002030BD72
:104308002846EFE720609868814208BF9C60F2E782
:104318005A680A60986859600028EFD19960EEE7FA
:1043280005680446002DEBD1002AF1D16FF0150085
:10433800E5E7FEF769B808B50220FDF769F900203E
:1043480008BD03460020184700F088BA30B501249C
:1043580002689AB1B2FA82F3C3F11F0304FA03F1B7
:1043680022EA0101D0E8EF5F954204D1C0E8EC1FD2
:10437800BCF1000FF6D1EBD1184630BD6FF00B033E
:10438800FAE710B50268CA40D30710D401238B405E
:10439800026843EA0201D0E8EF4F944204D1C0E832
:1043A800EC1FBCF1000FF6D1F2D1002010BD6FF068
:1043B8001500FBE7012805D010B1022804D070478A
:1043C800FDF73EBDFDF7F8BDFDF790BE012803D00F
:1043D80020B1022804D0704700F00FB800F00BB8E5
:1043E80000F00DB808B5FDF71DFEFDF76BFDBDE843
:1043F8000840FDF797BEFDF7F5BCFDF7A1BDFDF739
:104408004BBEF7B51746DDE90846019001A81D46E1
:10441800FDF7A0FE019B002F00EB830014BF0223D1
:104428000023002918BF43F00103002D14BF4FF0EB
:104438000C0C4FF0000C002C43EA0C0314BF4FF493
:10444800706C4FF0000C002E43EA0C0314BF4FF4BD
:10445800403C4FF0000CD0F8802043EA0C0322EADD
:10446800030301B109780FB13F787F0019430DB1FB
:104478002D78AD0041EA07020CB121780C021543F2
:104488000EB1367836042C433443C0F8804003B06C
:10449800F0BD1FB50DF10F03019300238DF80F1028
:1044A80000931A461946FFF7ACFF05B05DF804FB08
:1044B80010B504460846FDF75BFE04EB4000808A11
:1044C800C0F3401010BD10B504460846FDF750FE75
:1044D80004EB4000808A400B10BD70B504460846C6
:1044E80016460D46FDF744FE083034F81030DA055C
:1044F80009D5C3F3432304EBC302526854F833309D
:10450800314628469847A3682BB1E26831462846C9
:10451800BDE87040184770BD10B504460846FDF761
:1045280027FE00B204EB4000838ADA051DD5C3F3E9
:10453800432123F4F853838204F1140204F1980010
:1045480032F8023B13F4807F03D0C3F3432399422C
:104558000BD09042F4D1002204EBC1035A6004F15D
:104568009C00BDE81040FFF70CBF10BDF0B5044635
:10457800002001270546844695420AD1D4F84431E3
:1045880033B10023C4F84431D4F8443140F4003046
:10459800F0BDEBB29B0003F580769B0807FA03F3A6
:1045A800194208D054F806E0BEF1000F03D044F8D1
:1045B80006C0A65918430135DEE710B5044608467B
:1045C800FDF7D6FD04EB4000808A80F00200C0F3BE
:1045D800400010BD38B504460D46FFF769FFB0B17D
:1045E8002046FFF7EAFF90B12046FFF76CFF012352
:1045F80022688340C2F8183303B2206800EB8300B6
:10460800D0F8103523F00303C0F8103538BD28461C
:10461800BDE838400021FFF73CBF2DE9F0431746BD
:1046280085B0044608460E46FDF7A2FDD7F800906F
:104638000546B9F1000F27D00FFA80F804EB4808B7
:10464800B8F814309B0708D52046FFF731FF20B192
:104658006FF0150005B0BDE8F08300224B468DF8D9
:104668000E208DF80F20CDE900220DF10E010DF17D
:104678000F023046FFF7C5FEB8F8143023F00203E6
:1046880043F00103A8F814307B6883B12AB204EB25
:10469800420218785968938A13F0020F0CD0002947
:1046A800D6D1938A23F01C0343EA80009082BB682A
:1046B800002B43D10020CDE723F4604323F02003EF
:1046C80093820029EDD00328C2D87B6821685B68F3
:1046D80093F800C00FFA8CF330B901EB8301C1F8ED
:1046E8001005C1F81005DCE74FEA830E7144D1F8D4
:1046F800103523F00303C1F8103523687344D3F849
:10470800101521F4473121F47C71C3F8101541F6D6
:10471800F071D3F810E501EA06114EEA004E41EABD
:104728000E01C3F8101504EB4C03A3F8A060938A9C
:1047380043EA4C3343F020039382B2E73146D3E98E
:1047480000782046FFF7E8FE002FB3D063689F4249
:1047580012D1A36898450FD1002004EBC003C3E928
:1047680001782DB204EB4504A38AC0B243EA402085
:1047780040F48070A0829DE704F19C00FFF7E6FDFD
:104788000028EADA66E7C0E90312704770B5044604
:104798001546FFF78DFE48B10846FDF7E9FC04EB26
:1047A8004000838A00205B0B2B7070BD6FF01500F2
:1047B800FBE790F8B000003018BF01207047FDF704
:1047C8000FBDF7B504460D461746FFF771FE26687C
:1047D800E8B12046FFF7F1FEC8B12046FFF773FEA7
:1047E800002103B29A0002F58073F150F358236850
:1047F8001344D3F8102542F00102C3F8102527B15D
:10480800012322688340C2F8143303B0F0BDD6F800
:10481800143328469A035CBF4FF40033C6F81433A8
:10482800FDF7A6FC04EB4000838AC3F38203042B44
:104838000FD0052B04D102212846FFF72AFEE4E712
:1048480001A80195FDF786FC019AC368D340DB07F0
:10485800F1D50321F0E7FFF7BDBE704708B1FCF7BB
:104868008FBD704710B5436904463BB90020E26824
:104878004042537843F00103537010BD9847002815
:10488800F4D00028B8BF4042FF28A8BFFF20E36843
:104898001870ECE740B1C368587810F001001EBFEB
:1048A8001878B0FA80F040097047EFF3118320239D
:1048B80083F31288BFF36F8FFEE708B5FFF7F5FFA4
:1048C800202408B5EFF3118384F31288BFF36F8FA8
:1048D800FFF726FCF6E7EFF30580003018BF01204C
:1048E8007047D0E9003213605A600023C0E90033F2
:1048F800704708B5FFF7F5FF037C23F00203037444
:104908000023836008BD38B504460D46FEF73AFA21
:10491800237C43F00203237495B1A5602B689D4264
:1049280015D0A3B194F90E1093F90E20914208D036
:10493800521A002A05DD5A68C4E9003214605C6026
:1049480038BD6A68934202D01B68002BECD16B68B3
:10495800C4E900531C606C60F2E710B5EFF31184F2
:10496800202383F31288BFF36F8FFEF753FA84F383
:104978001188BFF36F8F10BD08B5037C014613F093
:10498800280F0CD183680BB1FFF7B3FF0B7C0846E7
:1049980023F004030B74BDE80840FEF73BBA08BDDA
:1049A80010B5EFF31184202383F31288BFF36F8FC0
:1049B8001838FFF7E1FF84F31188BFF36F8F10BD3C
:1049C8000846FEF713BA38B50D460446FEF74EFB07
:1049D8006B1C08BFB4F1FF3F16D04FF47A7147F64D
:1049E80011240025C1FB004547F61222002320466A
:1049F8002946FBF765FD00236FF000428B4208BF94
:104A0800824200D2104638BD2046FCE738B504463D
:104A1800EFF31185202383F31288BFF36F8F037C94
:104A28005B070ED5183000F02DF8237C204623F0C4
:104A380004032374FEF7EEF92846BDE83840FEF774
:104A4800D5B985F31188BFF36F8F38BD2DE90048BC
:104A58000246FEF76FFC90B1D0E90401B0EB020BFF
:104A680061EBE27CBBF1004F7CF1000307DA5846AA
:104A780000287CF1000300DA0020BDE800886FF010
:104A88000040FAE770B50446EFF31185202383F35D
:104A98001288BFF36F8F0368CBB1FEF74BFC064655
:104AA8002046FEF759FC00224FF00043A642C4E915
:104AB800042306D1FEF746FCFFF7C8FF0021FDF7E7
:104AC80039F8002085F31188BFF36F8F70BDD0E9E6
:104AD8000423B3F1004F08BF012A04D100224FF08C
:104AE8000043C0E904236FF01500EBE708B5FEF7B3
:104AF8004DFD08BD0A44914200F1FF3300D17047D3
:104B080010B511F8014B914203F8014FF9D110BDCE
:104B180003460244934200D1704703F8011BF9E7AA
:104B2800024610B501448A42134603D01C7801326C
:104B3800002CF8D1181A10BDF0B5C3F13706F6B23B
:104B480003F01F03082BC5B213D0102B18D0022B6B
:104B580023D105F00104450845EAC1754F082846E8
:104B68003946303402F8014B50EA0104EAD11046C4
:104B7800F0BD05F00704C50845EA4175CF08EEE722
:104B880005F00F04050945EA01750F09284639465D
:104B9800092C84BFA419E4B2E3E744084FEA900C57
:104BA80044EAC1744CEA817C14EB0C044FEA5107C7
:104BB8004FEA910E47EB0E01200940EA01702418D4
:104BC8004FEA111747EB0101200A40EA0160241857
:104BD8004FEA112747EB0101200C40EA0140241855
:104BE8004FEA114747EB01010027641841EB07071B
:104BF800E00840EA4770C4B204EB8404A5EB44041F
:104C0800E4B2092C4FEAD701ABD90130A4F10A0468
:104C180041F10001E4B2BBE72DE9F04301240A2584
:104C28008446944202DBBDE8F0839C46634613F851
:104C3800016B002EF7D0252EF7D11F780CF1020C4E
:104C4800252FF3D000239E461E461F2E0FD8A7F10E
:104C58002008B8F1100F0CD8DFE808F0130B0B137D
:104C68000B0B0B130B0B0B130B130B0B13007F2EE0
:104C78001AD8A7F13008B8F1090F07D8202605FB84
:104C880003831CF8017B002FDFD12AE0242F06D1F3
:104C9800BEF1000F3CD09C423CD00023F1E727F046
:104CA8000408B8F12A0FF8D06C2F06D1370648BF90
:104CB80046F4007646F08006E3E7682F06D1F7054C
:104CC80048BF46F4007646F48076DAE74C2F02D1E6
:104CD80046F42076D5E76A2FFAD07A2FD1D0742FF0
:104CE800CFD0BEF1000F9ED074459AD147F0200C6A
:104CF800ACF1650EBEF1020F0B6802D9BCF1610F71
:104D08000AD1073323F0070308330B60013487E720
:104D18009E46C2E76327E9E7632F01D10433F4E72E
:104D2800732FFBD006F0800CBCF1000FF6D0B6054F
:044D3800F4D5E6E7E1
:084D3C004CEDFF7F01000000B7
:104D4400DD120000000000008D1A000000000000C9
:104D540000000000844D000000000000A04D000091
:104D640000000000D84D000000000000BC4D000011
:104D74003F43000000000000B912000000000000E2
:104D8400AB5C0000BC570000285700002002002044
:104D9400200400202114000000000000C45C000076
:104DA400045800000457000024020020AC04002032
:104DB400F118000000000000CF5C0000F057000074
:104DC4000457000026020020A0040020F11800006F
:104DD40000000000B85C00001858000004570000F0
:104DE40022020020B8040020F11800000000000096
:104DF4000000000005410000000000000541000023
:104E04000000000005410000000000000541000012
:104E14000000000005410000000000000541000002
:104E240000000000054100000000000005410000F2
:104E340000000000054100000000000005410000E2
:104E440000000000054100000000000005410000D2
:104E540000000000054100000000000005410000C2
:104E640000000000054100000000000005410000B2
:104E740000000000054100000000000005410000A2
:104E84000000000005410000000000000541000092
:104E94000000000005410000000000000541000082
:104EA4000000000005410000000000000541000072
:104EB4000000000005410000000000000541000062
:104EC4000000000005410000000000000541000052
:104ED4000000000005410000000000000541000042
:104EE4000000000005410000000000000541000032
:104EF4000000000005410000000000000541000022
:104F04000000000005410000000000000541000011
:104F14000000000005410000000000000541000001
:104F240000000000054100000000000005410000F1
:104F340000000000054100000000000005410000E1
:104F440000000000054100000000000005410000D1
:104F540000000000054100000000000005410000C1
:104F640000000000054100000000000005410000B1
:104F740000000000054100000000000005410000A1
:104F84000000000005410000000000000541000091
:104F94000000000005410000000000000541000081
:104FA4000000000005410000000000000541000071
:104FB4000000000005410000000000000541000061
:104FC4000000000005410000000000000541000051
:104FD4000000000005410000000000000541000041
:104FE4000000000005410000000000000541000031
:104FF4000000000005410000000000000541000021
:105004000000000005410000000000000541000010
:105014000000000005410000000000000541000000
:1050240000000000054100000000000005410000F0
:1050340000000000054100000000000005410000E0
:1050440000000000054100000000000005410000D0
:1050540000000000054100000000000005410000C0
:1050640000000000054100000000000005410000B0
:1050740000000000054100000000000005410000A0
:105084000000000005410000000000000541000090
:105094000000000005410000000000000541000080
:1050A4000000000005410000000000000541000070
:1050B4000000000005410000000000000541000060
:1050C4000000000005410000000000000541000050
:1050D4000000000005410000000000000541000040
:1050E4000000000005410000000000000541000030
:1050F4000000000005410000000000000541000020
:10510400000000000541000000000000054100000F
:1051140000000000054100000000000005410000FF
:1051240000000000054100000000000005410000EF
:1051340000000000054100000000000005410000DF
:1051440000000000054100000000000005410000CF
:1051540000000000054100000000000005410000BF
:1051640000000000054100000000000005410000AF
:10517400000000000541000000000000054100009F
:10518400000000000541000000000000054100008F
:10519400000000000541000000000000054100007F
:1051A400000000000541000000000000054100006F
:1051B400000000000541000000000000054100005F
:1051C400000000000541000000000000054100004F
:1051D400000000000541000000000000054100003F
:1051E400000000000541000000000000054100002F
:1051F400000000000541000000000000054100001F
:10520400000000000541000000000000054100000E
:1052140000000000054100000000000005410000FE
:1052240000000000054100000000000005410000EE
:1052340000000000054100000000000005410000DE
:1052440000000000054100000000000005410000CE
:1052540000000000054100000000000005410000BE
:1052640000000000054100000000000005410000AE
:10527400000000000541000000000000054100009E
:10528400000000000541000000000000054100008E
:10529400000000000541000000000000054100007E
:1052A400000000000541000000000000054100006E
:1052B400000000000541000000000000054100005E
:1052C400000000000541000000000000054100004E
:1052D400000000000541000000000000054100003E
:1052E400000000000541000000000000054100002E
:1052F400000000000541000000000000054100001E
:10530400000000000541000000000000054100000D
:1053140000000000054100000000000005410000FD
:1053240000000000054100000000000005410000ED
:1053340000000000054100000000000005410000DD
:1053440000000000054100000000000005410000CD
:1053540000000000054100000000000005410000BD
:1053640000000000054100000000000005410000AD
:10537400000000000541000000000000054100009D
:10538400000000000541000000000000054100008D
:10539400000000000541000000000000054100007D
:1053A400000000000541000000000000054100006D
:1053B400000000000541000000000000054100005D
:1053C400000000000541000000000000054100004D
:1053D400000000000541000000000000054100003D
:1053E400000000000541000000000000054100002D
:1053F400000000000541000000000000054100001D
:10540400000000000541000000000000054100000C
:1054140000000000054100000000000005410000FC
:1054240000000000054100000000000005410000EC
:1054340000000000054100000000000005410000DC
:1054440000000000054100000000000005410000CC
:1054540000000000054100000000000005410000BC
:1054640000000000054100000000000005410000AC
:10547400000000000541000000000000054100009C
:10548400000000000541000000000000054100008C
:10549400000000000541000000000000054100007C
:1054A400000000000541000000000000054100006C
:1054B400000000000541000000000000054100005C
:1054C4000000000005410000940000203B43000060
:1054D400000000000541000000000000054100003C
:1054E400000000000541000000000000054100002C
:1054F400000000000541000000000000054100001C
:10550400000000000541000000000000054100000B
:105514002D2900004B43000000000000054100005D
:1055240000000000054100000000000005410000EB
:1055340000000000054100000000000005410000DB
:1055440000000000054100000000000005410000CB
:1055540000000000054100000000000005410000BB
:1055640000000000054100000000000005410000AB
:10557400000000000541000000000000054100009B
:10558400000000000541000000000000054100008B
:10559400000000000541000000000000054100007B
:1055A400000000000541000000000000054100006B
:1055B400000000000541000000000000054100005B
:1055C400000000000541000000000000054100004B
:1055D400000000000541000000000000054100003B
:1055E400000000000541000000000000054100002B
:1055F400000000000541000000000000054100001B
:10560400000000000541000000000000054100000A
:1056140000000000054100000000000005410000FA
:1056240000000000054100000000000005410000EA
:1056340000000000054100000000000005410000DA
:1056440000000000054100000000000005410000CA
:105654000000000005410000480100203B43000019
:10566400ED4300004B430000000000000541000032
:10567400000000000541000000000000054100009A
:10568400000000000541000000000000054100008A
:10569400000000000541000000000000054100007A
:1056A400000000000541000000000000054100006A
:1056B400000000000541000000000000054100005A
:1056C400000000000541000000000000054100004A
:1056D400000000000541000000000000054100003A
:1056E400000000000541000000000000054100002A
:1056F400000000000541000000000000054100001A
:10570400651700009B420000A7420000BB42000056
:10571400C5420000CF42000041190000E3420000EE
:045724000000000081
:10572800691500000B4200003D4200000000000027
:0C573800A941000000000000000000007B
:1057500000A0105000820D500004055000860D502E
:10576000050000000400000001000000000000002F
:105770000338FDD870470000000000000000000062
:105780000338FDD870470000000000200000000032
:1057900006000100020000009C570000000000000D
:1057A0009C5C000006000000E0CF1F00000000200D
:1057B000A45C000021000000E0FB0720C9140000E9
:1057C000ED13000039420000354200002342000082
:1057D000294200009D150000BD13000000000000DC
:1057E00000A0105000820D500004055000860D509E
:1057F000FF0700000004055000000000000000004A
:1058000002000000FFFFFFFF00820D509400002007
:105810000000000001000000FF03000000A0105085
:1058200048010020000000000000000000A010500F
:1058300000820D500004055000860D500800000045
:105840000A0000000400000001000000444D0000B8
:10585000544D0000744D00007C4D0000844D00004C
:10586000844D000072302F61313A2020307825308D
:105870003878202072312F61323A2020307825305C
:105880003878202072322F61333A2020307825304A
:1058900038780A0072332F61343A2020307825306E
:1058A0003878207231322F69703A202030782530D4
:1058B0003878207231342F6C723A202030782530BD
:1058C00038780A0020787073723A202030782530BA
:1058D00038780A004661756C74696E6720696E736A
:1058E0007472756374696F6E20616464726573733A
:1058F00020287231352F7063293A203078253038CE
:10590000780A00556E68616E646C65642049525176
:105910006E3A2025640A002A2A2A2A2A2042555350
:10592000204641554C54202A2A2A2A2A0A0020209F
:10593000537461636B696E67206572726F720A00DF
:105940002020507265636973652064617461206210
:105950007573206572726F720A00202042464152B0
:1059600020416464726573733A20307825780A00A8
:105970002020496D7072656369736520646174618C
:1059800020627573206572726F720A002020496E62
:10599000737472756374696F6E20627573206572BB
:1059A000726F720A002A2A2A2A2A204D5055204650
:1059B00041554C54202A2A2A2A2A0A0020205374AE
:1059C00061636B696E67206572726F722028636F06
:1059D0006E746578742061726561206D69676874A2
:1059E000206265206E6F742076616C6964290A00FC
:1059F0002020556E737461636B696E6720657272E7
:105A00006F720A00202044617461204163636573F2
:105A1000732056696F6C6174696F6E0A0020204DA7
:105A20004D46415220416464726573733A20307868
:105A300025780A002020496E737472756374696F4B
:105A40006E204163636573732056696F6C6174697E
:105A50006F6E0A002020466C6F6174696E672D704E
:105A60006F696E74206C617A79207374617465203B
:105A7000707265736572766174696F6E206572729B
:105A80006F720A002A2A2A2A2A20555341474520A4
:105A90004641554C54202A2A2A2A2A0A002020440A
:105AA00069766973696F6E206279207A65726F0A10
:105AB000002020556E616C69676E6564206D656DB0
:105AC0006F7279206163636573730A0020205374D9
:105AD00061636B206F766572666C6F772028636FE9
:105AE0006E746578742061726561206E6F742076C3
:105AF000616C6964290A0020204E6F20636F707208
:105B00006F636573736F7220696E737472756374FB
:105B1000696F6E730A002020496C6C6567616C20A8
:105B20006C6F6164206F66204558435F5245545541
:105B3000524E20696E746F2050430A002020496C39
:105B40006C6567616C20757365206F66207468658D
:105B500020455053520A002020417474656D7074C2
:105B600020746F206578656375746520756E646553
:105B700066696E656420696E737472756374696FAB
:105B80006E0A0052657365727665642045786365B8
:105B90007074696F6E20280053707572696F757329
:105BA00020696E7465727275707420284952512094
:105BB00000535053454C20696E20746872656164CF
:105BC000206D6F646520646F6573206E6F7420694B
:105BD0006E646963617465205053500A002A2A2A52
:105BE0002A2A2048415244204641554C54202A2A12
:105BF0002A2A2A0A002020427573206661756C7477
:105C0000206F6E20766563746F72207461626C65BC
:105C100020726561640A0020204465627567206512
:105C200076656E740A0020204661756C7420657379
:105C300063616C6174696F6E2028736565206265AD
:105C40006C6F77290A00415243485F4558434550DD
:105C500054207769746820726561736F6E202578AF
:105C60000A0A002A2A2A2A2A204465627567206DBA
:105C70006F6E69746F7220657863657074696F6E9A
:105C8000202A2A2A2A2A0A002A2A2A2A2A2025738E
:105C900020256429202A2A2A2A2A0A00464C415310
:105CA000485F30005352414D5F3000636C6F636B4F
:105CB00040313065303030006770696F403130619D
:105CC000303030006770696F4064383230300067C0
:105CD00070696F40353034303000000A2A35424256
:105CE00042424242424242424242000102036D614C
:105CF000696E002A2A2A20426F6F74696E67205AE3
:105D00006570687972204F53206275696C64207ADF
:105D100065706879722D763430343030202A2A2A22
:105D20000A00286E756C6C29002A666C6F61742AF3
:045D3000000000006F
:105D340000000000670000000000000000000000F8
:105D4400000000000000000000000000000000004F
:105D5400000000000000000000000000000000003F
:105D6400000000000000000000000000000000002F
:105D7400000000000000000000000000000000001F
:105D8400000000000000000000000000000000000F
:105D940000000000000000000000000000000000FF
:105DA40000000000000000000000000000000000EF
:105DB40000000000000000000000000000000000DF
:105DC400253F000000A00D5000000000000000006E
:105DD40000000000000000000000000000000000BF
:105DE40000000000000000000000000000000000AF
:105DF400000000000000000000000000000000009F
:105E0400000000000000000000000000000000008E
:105E1400000000000000000000000000000000007E
:105E2400000000000000000000000000000000006E
:105E3400000000000000000000000000000000005E
:105E4400000000000000000000000000000000004E
:105E5400000000000000000000000000000000003E
:105E6400000000000000000000000000000000002E
:105E7400000000000000000000C0105000000000FE
:105E8400000000000000000000000000000000000E
:105E940000000000000000000000000000000000FE
:105EA40000000000000000000000000000000000EE
:105EB40000000000000000000000000000000000DE
:105EC40000000000000000000000000000000000CE
:105ED40000000000000000000000000000000000BE
:105EE40000000000000000000000000000000000AE
:105EF400000000000000000000000000000000009E
:105F0400000000000000000000000000000000008D
:105F1400000000000000000000000000000000007D
